{
  "contractName": "DogERC721",
  "abi": [
    {
      "inputs": [],
      "stateMutability": "nonpayable",
      "type": "constructor"
    },
    {
      "anonymous": false,
      "inputs": [
        {
          "indexed": true,
          "internalType": "address",
          "name": "owner",
          "type": "address"
        },
        {
          "indexed": true,
          "internalType": "address",
          "name": "approved",
          "type": "address"
        },
        {
          "indexed": true,
          "internalType": "uint256",
          "name": "tokenId",
          "type": "uint256"
        }
      ],
      "name": "Approval",
      "type": "event"
    },
    {
      "anonymous": false,
      "inputs": [
        {
          "indexed": true,
          "internalType": "address",
          "name": "owner",
          "type": "address"
        },
        {
          "indexed": true,
          "internalType": "address",
          "name": "operator",
          "type": "address"
        },
        {
          "indexed": false,
          "internalType": "bool",
          "name": "approved",
          "type": "bool"
        }
      ],
      "name": "ApprovalForAll",
      "type": "event"
    },
    {
      "anonymous": false,
      "inputs": [
        {
          "indexed": true,
          "internalType": "address",
          "name": "previousOwner",
          "type": "address"
        },
        {
          "indexed": true,
          "internalType": "address",
          "name": "newOwner",
          "type": "address"
        }
      ],
      "name": "OwnershipTransferred",
      "type": "event"
    },
    {
      "anonymous": false,
      "inputs": [
        {
          "indexed": false,
          "internalType": "uint256",
          "name": "tokenId",
          "type": "uint256"
        }
      ],
      "name": "PuppyAdded",
      "type": "event"
    },
    {
      "anonymous": false,
      "inputs": [
        {
          "indexed": false,
          "internalType": "uint256",
          "name": "tokenId",
          "type": "uint256"
        }
      ],
      "name": "PuppyRemoved",
      "type": "event"
    },
    {
      "anonymous": false,
      "inputs": [
        {
          "indexed": true,
          "internalType": "address",
          "name": "from",
          "type": "address"
        },
        {
          "indexed": true,
          "internalType": "address",
          "name": "to",
          "type": "address"
        },
        {
          "indexed": true,
          "internalType": "uint256",
          "name": "tokenId",
          "type": "uint256"
        }
      ],
      "name": "Transfer",
      "type": "event"
    },
    {
      "inputs": [
        {
          "internalType": "address",
          "name": "to",
          "type": "address"
        },
        {
          "internalType": "uint256",
          "name": "tokenId",
          "type": "uint256"
        }
      ],
      "name": "approve",
      "outputs": [],
      "stateMutability": "nonpayable",
      "type": "function"
    },
    {
      "inputs": [
        {
          "internalType": "address",
          "name": "owner",
          "type": "address"
        }
      ],
      "name": "balanceOf",
      "outputs": [
        {
          "internalType": "uint256",
          "name": "",
          "type": "uint256"
        }
      ],
      "stateMutability": "view",
      "type": "function",
      "constant": true
    },
    {
      "inputs": [],
      "name": "baseURI",
      "outputs": [
        {
          "internalType": "string",
          "name": "",
          "type": "string"
        }
      ],
      "stateMutability": "view",
      "type": "function",
      "constant": true
    },
    {
      "inputs": [
        {
          "internalType": "uint256",
          "name": "tokenId",
          "type": "uint256"
        }
      ],
      "name": "getApproved",
      "outputs": [
        {
          "internalType": "address",
          "name": "",
          "type": "address"
        }
      ],
      "stateMutability": "view",
      "type": "function",
      "constant": true
    },
    {
      "inputs": [
        {
          "internalType": "address",
          "name": "owner",
          "type": "address"
        },
        {
          "internalType": "address",
          "name": "operator",
          "type": "address"
        }
      ],
      "name": "isApprovedForAll",
      "outputs": [
        {
          "internalType": "bool",
          "name": "",
          "type": "bool"
        }
      ],
      "stateMutability": "view",
      "type": "function",
      "constant": true
    },
    {
      "inputs": [],
      "name": "name",
      "outputs": [
        {
          "internalType": "string",
          "name": "",
          "type": "string"
        }
      ],
      "stateMutability": "view",
      "type": "function",
      "constant": true
    },
    {
      "inputs": [],
      "name": "owner",
      "outputs": [
        {
          "internalType": "address",
          "name": "",
          "type": "address"
        }
      ],
      "stateMutability": "view",
      "type": "function",
      "constant": true
    },
    {
      "inputs": [
        {
          "internalType": "uint256",
          "name": "tokenId",
          "type": "uint256"
        }
      ],
      "name": "ownerOf",
      "outputs": [
        {
          "internalType": "address",
          "name": "",
          "type": "address"
        }
      ],
      "stateMutability": "view",
      "type": "function",
      "constant": true
    },
    {
      "inputs": [
        {
          "internalType": "uint256",
          "name": "",
          "type": "uint256"
        }
      ],
      "name": "pack",
      "outputs": [
        {
          "internalType": "string",
          "name": "name",
          "type": "string"
        },
        {
          "internalType": "uint256",
          "name": "dob",
          "type": "uint256"
        },
        {
          "internalType": "bytes32",
          "name": "microchip",
          "type": "bytes32"
        },
        {
          "internalType": "uint256",
          "name": "dam",
          "type": "uint256"
        },
        {
          "internalType": "uint256",
          "name": "sire",
          "type": "uint256"
        },
        {
          "internalType": "enum Sex",
          "name": "sex",
          "type": "uint8"
        },
        {
          "internalType": "uint256",
          "name": "timestamp",
          "type": "uint256"
        },
        {
          "internalType": "address",
          "name": "owner",
          "type": "address"
        }
      ],
      "stateMutability": "view",
      "type": "function",
      "constant": true
    },
    {
      "inputs": [],
      "name": "renounceOwnership",
      "outputs": [],
      "stateMutability": "nonpayable",
      "type": "function"
    },
    {
      "inputs": [
        {
          "internalType": "address",
          "name": "from",
          "type": "address"
        },
        {
          "internalType": "address",
          "name": "to",
          "type": "address"
        },
        {
          "internalType": "uint256",
          "name": "tokenId",
          "type": "uint256"
        }
      ],
      "name": "safeTransferFrom",
      "outputs": [],
      "stateMutability": "nonpayable",
      "type": "function"
    },
    {
      "inputs": [
        {
          "internalType": "address",
          "name": "from",
          "type": "address"
        },
        {
          "internalType": "address",
          "name": "to",
          "type": "address"
        },
        {
          "internalType": "uint256",
          "name": "tokenId",
          "type": "uint256"
        },
        {
          "internalType": "bytes",
          "name": "_data",
          "type": "bytes"
        }
      ],
      "name": "safeTransferFrom",
      "outputs": [],
      "stateMutability": "nonpayable",
      "type": "function"
    },
    {
      "inputs": [
        {
          "internalType": "address",
          "name": "operator",
          "type": "address"
        },
        {
          "internalType": "bool",
          "name": "approved",
          "type": "bool"
        }
      ],
      "name": "setApprovalForAll",
      "outputs": [],
      "stateMutability": "nonpayable",
      "type": "function"
    },
    {
      "inputs": [
        {
          "internalType": "bytes4",
          "name": "interfaceId",
          "type": "bytes4"
        }
      ],
      "name": "supportsInterface",
      "outputs": [
        {
          "internalType": "bool",
          "name": "",
          "type": "bool"
        }
      ],
      "stateMutability": "view",
      "type": "function",
      "constant": true
    },
    {
      "inputs": [],
      "name": "symbol",
      "outputs": [
        {
          "internalType": "string",
          "name": "",
          "type": "string"
        }
      ],
      "stateMutability": "view",
      "type": "function",
      "constant": true
    },
    {
      "inputs": [
        {
          "internalType": "uint256",
          "name": "index",
          "type": "uint256"
        }
      ],
      "name": "tokenByIndex",
      "outputs": [
        {
          "internalType": "uint256",
          "name": "",
          "type": "uint256"
        }
      ],
      "stateMutability": "view",
      "type": "function",
      "constant": true
    },
    {
      "inputs": [
        {
          "internalType": "address",
          "name": "owner",
          "type": "address"
        },
        {
          "internalType": "uint256",
          "name": "index",
          "type": "uint256"
        }
      ],
      "name": "tokenOfOwnerByIndex",
      "outputs": [
        {
          "internalType": "uint256",
          "name": "",
          "type": "uint256"
        }
      ],
      "stateMutability": "view",
      "type": "function",
      "constant": true
    },
    {
      "inputs": [
        {
          "internalType": "uint256",
          "name": "tokenId",
          "type": "uint256"
        }
      ],
      "name": "tokenURI",
      "outputs": [
        {
          "internalType": "string",
          "name": "",
          "type": "string"
        }
      ],
      "stateMutability": "view",
      "type": "function",
      "constant": true
    },
    {
      "inputs": [],
      "name": "totalSupply",
      "outputs": [
        {
          "internalType": "uint256",
          "name": "",
          "type": "uint256"
        }
      ],
      "stateMutability": "view",
      "type": "function",
      "constant": true
    },
    {
      "inputs": [
        {
          "internalType": "address",
          "name": "from",
          "type": "address"
        },
        {
          "internalType": "address",
          "name": "to",
          "type": "address"
        },
        {
          "internalType": "uint256",
          "name": "tokenId",
          "type": "uint256"
        }
      ],
      "name": "transferFrom",
      "outputs": [],
      "stateMutability": "nonpayable",
      "type": "function"
    },
    {
      "inputs": [
        {
          "internalType": "address",
          "name": "newOwner",
          "type": "address"
        }
      ],
      "name": "transferOwnership",
      "outputs": [],
      "stateMutability": "nonpayable",
      "type": "function"
    },
    {
      "inputs": [],
      "name": "count",
      "outputs": [
        {
          "internalType": "uint256",
          "name": "",
          "type": "uint256"
        }
      ],
      "stateMutability": "view",
      "type": "function",
      "constant": true
    },
    {
      "inputs": [
        {
          "internalType": "uint256",
          "name": "dob",
          "type": "uint256"
        },
        {
          "internalType": "uint256",
          "name": "dam",
          "type": "uint256"
        },
        {
          "internalType": "uint256",
          "name": "sire",
          "type": "uint256"
        },
        {
          "internalType": "uint256",
          "name": "males",
          "type": "uint256"
        },
        {
          "internalType": "uint256",
          "name": "females",
          "type": "uint256"
        },
        {
          "internalType": "address",
          "name": "owner",
          "type": "address"
        }
      ],
      "name": "addLitter",
      "outputs": [],
      "stateMutability": "nonpayable",
      "type": "function"
    },
    {
      "inputs": [
        {
          "internalType": "string",
          "name": "name",
          "type": "string"
        },
        {
          "internalType": "uint256",
          "name": "dob",
          "type": "uint256"
        },
        {
          "internalType": "bytes32",
          "name": "microchip",
          "type": "bytes32"
        },
        {
          "internalType": "enum Sex",
          "name": "sex",
          "type": "uint8"
        },
        {
          "internalType": "uint256",
          "name": "dam",
          "type": "uint256"
        },
        {
          "internalType": "uint256",
          "name": "sire",
          "type": "uint256"
        }
      ],
      "name": "addOwnPuppy",
      "outputs": [],
      "stateMutability": "nonpayable",
      "type": "function"
    },
    {
      "inputs": [
        {
          "internalType": "string",
          "name": "name",
          "type": "string"
        },
        {
          "internalType": "uint256",
          "name": "dob",
          "type": "uint256"
        },
        {
          "internalType": "bytes32",
          "name": "microchip",
          "type": "bytes32"
        },
        {
          "internalType": "enum Sex",
          "name": "sex",
          "type": "uint8"
        },
        {
          "internalType": "uint256",
          "name": "dam",
          "type": "uint256"
        },
        {
          "internalType": "uint256",
          "name": "sire",
          "type": "uint256"
        },
        {
          "internalType": "address",
          "name": "owner",
          "type": "address"
        }
      ],
      "name": "addPuppy",
      "outputs": [],
      "stateMutability": "nonpayable",
      "type": "function"
    },
    {
      "inputs": [
        {
          "internalType": "uint256",
          "name": "tokenId",
          "type": "uint256"
        }
      ],
      "name": "getPuppy",
      "outputs": [
        {
          "internalType": "string",
          "name": "",
          "type": "string"
        },
        {
          "internalType": "uint256",
          "name": "",
          "type": "uint256"
        },
        {
          "internalType": "enum Sex",
          "name": "",
          "type": "uint8"
        },
        {
          "internalType": "uint256",
          "name": "",
          "type": "uint256"
        },
        {
          "internalType": "uint256",
          "name": "",
          "type": "uint256"
        }
      ],
      "stateMutability": "view",
      "type": "function",
      "constant": true
    },
    {
      "inputs": [
        {
          "internalType": "uint256",
          "name": "tokenId",
          "type": "uint256"
        }
      ],
      "name": "removePuppy",
      "outputs": [],
      "stateMutability": "nonpayable",
      "type": "function"
    },
    {
      "inputs": [
        {
          "internalType": "uint256",
          "name": "tokenId",
          "type": "uint256"
        },
        {
          "internalType": "uint256",
          "name": "dam",
          "type": "uint256"
        }
      ],
      "name": "updateDam",
      "outputs": [],
      "stateMutability": "nonpayable",
      "type": "function"
    },
    {
      "inputs": [
        {
          "internalType": "uint256",
          "name": "tokenId",
          "type": "uint256"
        },
        {
          "internalType": "uint256",
          "name": "sire",
          "type": "uint256"
        }
      ],
      "name": "updateSire",
      "outputs": [],
      "stateMutability": "nonpayable",
      "type": "function"
    },
    {
      "inputs": [
        {
          "internalType": "uint256",
          "name": "tokenId",
          "type": "uint256"
        },
        {
          "internalType": "string",
          "name": "name",
          "type": "string"
        }
      ],
      "name": "updateTitle",
      "outputs": [],
      "stateMutability": "nonpayable",
      "type": "function"
    },
    {
      "inputs": [
        {
          "internalType": "uint256",
          "name": "tokenId",
          "type": "uint256"
        },
        {
          "internalType": "bytes32",
          "name": "microchip",
          "type": "bytes32"
        }
      ],
      "name": "updateMicrochip",
      "outputs": [],
      "stateMutability": "nonpayable",
      "type": "function"
    }
  ],
  "bytecode": "0x60806040523480156200001157600080fd5b506040518060400160405280600781526020017f424541474c4553000000000000000000000000000000000000000000000000008152506040518060400160405280600281526020017f4444000000000000000000000000000000000000000000000000000000000000815250620000966301ffc9a760e01b620001e160201b60201c565b8160069080519060200190620000ae929190620002f2565b508060079080519060200190620000c7929190620002f2565b50620000e06380ac58cd60e01b620001e160201b60201c565b620000f8635b5e139f60e01b620001e160201b60201c565b6200011063780e9d6360e01b620001e160201b60201c565b5050600062000124620002ea60201b60201c565b905080600a60006101000a81548173ffffffffffffffffffffffffffffffffffffffff021916908373ffffffffffffffffffffffffffffffffffffffff1602179055508073ffffffffffffffffffffffffffffffffffffffff16600073ffffffffffffffffffffffffffffffffffffffff167f8be0079c531659141344cd1fd0a4f28419497f9722a3daafe3b4186f6b6457e060405160405180910390a350620001db635b5e139f60e01b620001e160201b60201c565b620003a1565b63ffffffff60e01b817bffffffffffffffffffffffffffffffffffffffffffffffffffffffff191614156200027e576040517f08c379a000000000000000000000000000000000000000000000000000000000815260040180806020018281038252601c8152602001807f4552433136353a20696e76616c696420696e746572666163652069640000000081525060200191505060405180910390fd5b6001600080837bffffffffffffffffffffffffffffffffffffffffffffffffffffffff19167bffffffffffffffffffffffffffffffffffffffffffffffffffffffff1916815260200190815260200160002060006101000a81548160ff02191690831515021790555050565b600033905090565b828054600181600116156101000203166002900490600052602060002090601f016020900481019282601f106200033557805160ff191683800117855562000366565b8280016001018555821562000366579182015b828111156200036557825182559160200191906001019062000348565b5b50905062000375919062000379565b5090565b6200039e91905b808211156200039a57600081600090555060010162000380565b5090565b90565b61434480620003b16000396000f3fe608060405234801561001057600080fd5b50600436106101e55760003560e01c80636352211e1161010f578063a22cb465116100a2578063defc644e11610071578063defc644e14610d8b578063e985e9c514610dc3578063f2fde38b14610e3f578063f36c83f014610e83576101e5565b8063a22cb46514610b57578063b88d4fde14610ba7578063bccf158c14610cac578063c87b56dd14610ce4576101e5565b8063715018a6116100de578063715018a6146109d25780638da5cb5b146109dc57806395d89b4114610a265780639ec4a4e814610aa9576101e5565b80636352211e146107775780636c0360eb146107e55780636ea425551461086857806370a082311461097a576101e5565b80632ef848cf1161018757806352d5b9711161015657806352d5b971146105c05780635786ead2146105f85780635cbd35f51461067b5780636002362814610749576101e5565b80632ef848cf146104385780632f745c59146104ae57806342842e0e146105105780634f6ccce71461057e576101e5565b8063081812fc116101c3578063081812fc146102f0578063095ea7b31461035e57806318160ddd146103ac57806323b872dd146103ca576101e5565b806301ffc9a7146101ea57806306661abd1461024f57806306fdde031461026d575b600080fd5b6102356004803603602081101561020057600080fd5b8101908080357bffffffffffffffffffffffffffffffffffffffffffffffffffffffff19169060200190929190505050610f54565b604051808215151515815260200191505060405180910390f35b610257610fbb565b6040518082815260200191505060405180910390f35b610275610fc5565b6040518080602001828103825283818151815260200191508051906020019080838360005b838110156102b557808201518184015260208101905061029a565b50505050905090810190601f1680156102e25780820380516001836020036101000a031916815260200191505b509250505060405180910390f35b61031c6004803603602081101561030657600080fd5b8101908080359060200190929190505050611067565b604051808273ffffffffffffffffffffffffffffffffffffffff1673ffffffffffffffffffffffffffffffffffffffff16815260200191505060405180910390f35b6103aa6004803603604081101561037457600080fd5b81019080803573ffffffffffffffffffffffffffffffffffffffff16906020019092919080359060200190929190505050611102565b005b6103b4611246565b6040518082815260200191505060405180910390f35b610436600480360360608110156103e057600080fd5b81019080803573ffffffffffffffffffffffffffffffffffffffff169060200190929190803573ffffffffffffffffffffffffffffffffffffffff16906020019092919080359060200190929190505050611257565b005b6104ac600480360360c081101561044e57600080fd5b810190808035906020019092919080359060200190929190803590602001909291908035906020019092919080359060200190929190803573ffffffffffffffffffffffffffffffffffffffff1690602001909291905050506112cd565b005b6104fa600480360360408110156104c457600080fd5b81019080803573ffffffffffffffffffffffffffffffffffffffff1690602001909291908035906020019092919050505061141b565b6040518082815260200191505060405180910390f35b61057c6004803603606081101561052657600080fd5b81019080803573ffffffffffffffffffffffffffffffffffffffff169060200190929190803573ffffffffffffffffffffffffffffffffffffffff16906020019092919080359060200190929190505050611476565b005b6105aa6004803603602081101561059457600080fd5b8101908080359060200190929190505050611496565b6040518082815260200191505060405180910390f35b6105f6600480360360408110156105d657600080fd5b8101908080359060200190929190803590602001909291905050506114b9565b005b6106796004803603604081101561060e57600080fd5b81019080803590602001909291908035906020019064010000000081111561063557600080fd5b82018360208201111561064757600080fd5b8035906020019184600183028401116401000000008311171561066957600080fd5b90919293919293905050506115a4565b005b610747600480360360e081101561069157600080fd5b81019080803590602001906401000000008111156106ae57600080fd5b8201836020820111156106c057600080fd5b803590602001918460018302840111640100000000831117156106e257600080fd5b90919293919293908035906020019092919080359060200190929190803560ff1690602001909291908035906020019092919080359060200190929190803573ffffffffffffffffffffffffffffffffffffffff1690602001909291905050506116a1565b005b6107756004803603602081101561075f57600080fd5b81019080803590602001909291905050506117c8565b005b6107a36004803603602081101561078d57600080fd5b810190808035906020019092919050505061196e565b604051808273ffffffffffffffffffffffffffffffffffffffff1673ffffffffffffffffffffffffffffffffffffffff16815260200191505060405180910390f35b6107ed6119a5565b6040518080602001828103825283818151815260200191508051906020019080838360005b8381101561082d578082015181840152602081019050610812565b50505050905090810190601f16801561085a5780820380516001836020036101000a031916815260200191505b509250505060405180910390f35b6108946004803603602081101561087e57600080fd5b8101908080359060200190929190505050611a47565b60405180806020018981526020018881526020018781526020018681526020018560018111156108c057fe5b60ff1681526020018481526020018373ffffffffffffffffffffffffffffffffffffffff1673ffffffffffffffffffffffffffffffffffffffff16815260200182810382528a818151815260200191508051906020019080838360005b8381101561093857808201518184015260208101905061091d565b50505050905090810190601f1680156109655780820380516001836020036101000a031916815260200191505b50995050505050505050505060405180910390f35b6109bc6004803603602081101561099057600080fd5b81019080803573ffffffffffffffffffffffffffffffffffffffff169060200190929190505050611b61565b6040518082815260200191505060405180910390f35b6109da611c36565b005b6109e4611dc1565b604051808273ffffffffffffffffffffffffffffffffffffffff1673ffffffffffffffffffffffffffffffffffffffff16815260200191505060405180910390f35b610a2e611deb565b6040518080602001828103825283818151815260200191508051906020019080838360005b83811015610a6e578082015181840152602081019050610a53565b50505050905090810190601f168015610a9b5780820380516001836020036101000a031916815260200191505b509250505060405180910390f35b610b55600480360360c0811015610abf57600080fd5b8101908080359060200190640100000000811115610adc57600080fd5b820183602082011115610aee57600080fd5b80359060200191846001830284011164010000000083111715610b1057600080fd5b90919293919293908035906020019092919080359060200190929190803560ff1690602001909291908035906020019092919080359060200190929190505050611e8d565b005b610ba560048036036040811015610b6d57600080fd5b81019080803573ffffffffffffffffffffffffffffffffffffffff169060200190929190803515159060200190929190505050611fb3565b005b610caa60048036036080811015610bbd57600080fd5b81019080803573ffffffffffffffffffffffffffffffffffffffff169060200190929190803573ffffffffffffffffffffffffffffffffffffffff1690602001909291908035906020019092919080359060200190640100000000811115610c2457600080fd5b820183602082011115610c3657600080fd5b80359060200191846001830284011164010000000083111715610c5857600080fd5b91908080601f016020809104026020016040519081016040528093929190818152602001838380828437600081840152601f19601f82011690508083019250505050505050919291929050505061216b565b005b610ce260048036036040811015610cc257600080fd5b8101908080359060200190929190803590602001909291905050506121e3565b005b610d1060048036036020811015610cfa57600080fd5b81019080803590602001909291905050506122d4565b6040518080602001828103825283818151815260200191508051906020019080838360005b83811015610d50578082015181840152602081019050610d35565b50505050905090810190601f168015610d7d5780820380516001836020036101000a031916815260200191505b509250505060405180910390f35b610dc160048036036040811015610da157600080fd5b8101908080359060200190929190803590602001909291905050506125bd565b005b610e2560048036036040811015610dd957600080fd5b81019080803573ffffffffffffffffffffffffffffffffffffffff169060200190929190803573ffffffffffffffffffffffffffffffffffffffff1690602001909291905050506126a8565b604051808215151515815260200191505060405180910390f35b610e8160048036036020811015610e5557600080fd5b81019080803573ffffffffffffffffffffffffffffffffffffffff16906020019092919050505061273c565b005b610eaf60048036036020811015610e9957600080fd5b810190808035906020019092919050505061294c565b6040518080602001868152602001856001811115610ec957fe5b60ff168152602001848152602001838152602001828103825287818151815260200191508051906020019080838360005b83811015610f15578082015181840152602081019050610efa565b50505050905090810190601f168015610f425780820380516001836020036101000a031916815260200191505b50965050505050505060405180910390f35b6000806000837bffffffffffffffffffffffffffffffffffffffffffffffffffffffff19167bffffffffffffffffffffffffffffffffffffffffffffffffffffffff1916815260200190815260200160002060009054906101000a900460ff169050919050565b6000601154905090565b606060068054600181600116156101000203166002900480601f01602080910402602001604051908101604052809291908181526020018280546001816001161561010002031660029004801561105d5780601f106110325761010080835404028352916020019161105d565b820191906000526020600020905b81548152906001019060200180831161104057829003601f168201915b5050505050905090565b600061107282612aaa565b6110c7576040517f08c379a000000000000000000000000000000000000000000000000000000000815260040180806020018281038252602c81526020018061420f602c913960400191505060405180910390fd5b6004600083815260200190815260200160002060009054906101000a900473ffffffffffffffffffffffffffffffffffffffff169050919050565b600061110d8261196e565b90508073ffffffffffffffffffffffffffffffffffffffff168373ffffffffffffffffffffffffffffffffffffffff161415611194576040517f08c379a00000000000000000000000000000000000000000000000000000000081526004018080602001828103825260218152602001806142936021913960400191505060405180910390fd5b8073ffffffffffffffffffffffffffffffffffffffff166111b3612ac7565b73ffffffffffffffffffffffffffffffffffffffff1614806111e257506111e1816111dc612ac7565b6126a8565b5b611237576040517f08c379a00000000000000000000000000000000000000000000000000000000081526004018080602001828103825260388152602001806141626038913960400191505060405180910390fd5b6112418383612acf565b505050565b60006112526002612b88565b905090565b611268611262612ac7565b82612b9d565b6112bd576040517f08c379a00000000000000000000000000000000000000000000000000000000081526004018080602001828103825260318152602001806142b46031913960400191505060405180910390fd5b6112c8838383612c91565b505050565b6112d5612ac7565b73ffffffffffffffffffffffffffffffffffffffff16600a60009054906101000a900473ffffffffffffffffffffffffffffffffffffffff1673ffffffffffffffffffffffffffffffffffffffff1614611397576040517f08c379a00000000000000000000000000000000000000000000000000000000081526004018080602001828103825260208152602001807f4f776e61626c653a2063616c6c6572206973206e6f7420746865206f776e657281525060200191505060405180910390fd5b60008090505b838110156113d4576113c760405180602001604052806000815250886000801b60008a8a88612ed4565b808060010191505061139d565b5060008090505b828110156114125761140560405180602001604052806000815250886000801b60018a8a88612ed4565b80806001019150506113db565b50505050505050565b600061146e82600160008673ffffffffffffffffffffffffffffffffffffffff1673ffffffffffffffffffffffffffffffffffffffff1681526020019081526020016000206130dc90919063ffffffff16565b905092915050565b6114918383836040518060200160405280600081525061216b565b505050565b6000806114ad8360026130f690919063ffffffff16565b50905080915050919050565b813373ffffffffffffffffffffffffffffffffffffffff16600d82815481106114de57fe5b906000526020600020906008020160070160009054906101000a900473ffffffffffffffffffffffffffffffffffffffff1673ffffffffffffffffffffffffffffffffffffffff161461157c576040517f08c379a000000000000000000000000000000000000000000000000000000000815260040180806020018281038252602a8152602001806142e5602a913960400191505060405180910390fd5b81600d848154811061158a57fe5b906000526020600020906008020160030181905550505050565b6115ac612ac7565b73ffffffffffffffffffffffffffffffffffffffff16600a60009054906101000a900473ffffffffffffffffffffffffffffffffffffffff1673ffffffffffffffffffffffffffffffffffffffff161461166e576040517f08c379a00000000000000000000000000000000000000000000000000000000081526004018080602001828103825260208152602001807f4f776e61626c653a2063616c6c6572206973206e6f7420746865206f776e657281525060200191505060405180910390fd5b8181600d858154811061167d57fe5b9060005260206000209060080201600001919061169b929190613f2a565b50505050565b6116a9612ac7565b73ffffffffffffffffffffffffffffffffffffffff16600a60009054906101000a900473ffffffffffffffffffffffffffffffffffffffff1673ffffffffffffffffffffffffffffffffffffffff161461176b576040517f08c379a00000000000000000000000000000000000000000000000000000000081526004018080602001828103825260208152602001807f4f776e61626c653a2063616c6c6572206973206e6f7420746865206f776e657281525060200191505060405180910390fd5b6117be88888080601f016020809104026020016040519081016040528093929190818152602001838380828437600081840152601f19601f82011690508083019250505050505050878787878787612ed4565b5050505050505050565b6117d0612ac7565b73ffffffffffffffffffffffffffffffffffffffff16600a60009054906101000a900473ffffffffffffffffffffffffffffffffffffffff1673ffffffffffffffffffffffffffffffffffffffff1614611892576040517f08c379a00000000000000000000000000000000000000000000000000000000081526004018080602001828103825260208152602001807f4f776e61626c653a2063616c6c6572206973206e6f7420746865206f776e657281525060200191505060405180910390fd5b600d818154811061189f57fe5b9060005260206000209060080201600080820160006118be9190613faa565b60018201600090556002820160009055600382016000905560048201600090556005820160006101000a81549060ff021916905560068201600090556007820160006101000a81549073ffffffffffffffffffffffffffffffffffffffff0219169055505060016011600082825403925050819055507f4aea85f6cb1f012def055dd570b2f19414e39ee70238b57777ad09eaf335dbcf816040518082815260200191505060405180910390a150565b600061199e826040518060600160405280602981526020016141c46029913960026131259092919063ffffffff16565b9050919050565b606060098054600181600116156101000203166002900480601f016020809104026020016040519081016040528092919081815260200182805460018160011615610100020316600290048015611a3d5780601f10611a1257610100808354040283529160200191611a3d565b820191906000526020600020905b815481529060010190602001808311611a2057829003601f168201915b5050505050905090565b600d8181548110611a5457fe5b9060005260206000209060080201600091509050806000018054600181600116156101000203166002900480601f016020809104026020016040519081016040528092919081815260200182805460018160011615610100020316600290048015611b005780601f10611ad557610100808354040283529160200191611b00565b820191906000526020600020905b815481529060010190602001808311611ae357829003601f168201915b5050505050908060010154908060020154908060030154908060040154908060050160009054906101000a900460ff16908060060154908060070160009054906101000a900473ffffffffffffffffffffffffffffffffffffffff16905088565b60008073ffffffffffffffffffffffffffffffffffffffff168273ffffffffffffffffffffffffffffffffffffffff161415611be8576040517f08c379a000000000000000000000000000000000000000000000000000000000815260040180806020018281038252602a81526020018061419a602a913960400191505060405180910390fd5b611c2f600160008473ffffffffffffffffffffffffffffffffffffffff1673ffffffffffffffffffffffffffffffffffffffff168152602001908152602001600020613144565b9050919050565b611c3e612ac7565b73ffffffffffffffffffffffffffffffffffffffff16600a60009054906101000a900473ffffffffffffffffffffffffffffffffffffffff1673ffffffffffffffffffffffffffffffffffffffff1614611d00576040517f08c379a00000000000000000000000000000000000000000000000000000000081526004018080602001828103825260208152602001807f4f776e61626c653a2063616c6c6572206973206e6f7420746865206f776e657281525060200191505060405180910390fd5b600073ffffffffffffffffffffffffffffffffffffffff16600a60009054906101000a900473ffffffffffffffffffffffffffffffffffffffff1673ffffffffffffffffffffffffffffffffffffffff167f8be0079c531659141344cd1fd0a4f28419497f9722a3daafe3b4186f6b6457e060405160405180910390a36000600a60006101000a81548173ffffffffffffffffffffffffffffffffffffffff021916908373ffffffffffffffffffffffffffffffffffffffff160217905550565b6000600a60009054906101000a900473ffffffffffffffffffffffffffffffffffffffff16905090565b606060078054600181600116156101000203166002900480601f016020809104026020016040519081016040528092919081815260200182805460018160011615610100020316600290048015611e835780601f10611e5857610100808354040283529160200191611e83565b820191906000526020600020905b815481529060010190602001808311611e6657829003601f168201915b5050505050905090565b611e95612ac7565b73ffffffffffffffffffffffffffffffffffffffff16600a60009054906101000a900473ffffffffffffffffffffffffffffffffffffffff1673ffffffffffffffffffffffffffffffffffffffff1614611f57576040517f08c379a00000000000000000000000000000000000000000000000000000000081526004018080602001828103825260208152602001807f4f776e61626c653a2063616c6c6572206973206e6f7420746865206f776e657281525060200191505060405180910390fd5b611faa87878080601f016020809104026020016040519081016040528093929190818152602001838380828437600081840152601f19601f82011690508083019250505050505050868686868633612ed4565b50505050505050565b611fbb612ac7565b73ffffffffffffffffffffffffffffffffffffffff168273ffffffffffffffffffffffffffffffffffffffff16141561205c576040517f08c379a00000000000000000000000000000000000000000000000000000000081526004018080602001828103825260198152602001807f4552433732313a20617070726f766520746f2063616c6c65720000000000000081525060200191505060405180910390fd5b8060056000612069612ac7565b73ffffffffffffffffffffffffffffffffffffffff1673ffffffffffffffffffffffffffffffffffffffff16815260200190815260200160002060008473ffffffffffffffffffffffffffffffffffffffff1673ffffffffffffffffffffffffffffffffffffffff16815260200190815260200160002060006101000a81548160ff0219169083151502179055508173ffffffffffffffffffffffffffffffffffffffff16612116612ac7565b73ffffffffffffffffffffffffffffffffffffffff167f17307eab39ab6107e8899845ad3d59bd9653f200f220920489ca2b5937696c3183604051808215151515815260200191505060405180910390a35050565b61217c612176612ac7565b83612b9d565b6121d1576040517f08c379a00000000000000000000000000000000000000000000000000000000081526004018080602001828103825260318152602001806142b46031913960400191505060405180910390fd5b6121dd84848484613159565b50505050565b6121eb612ac7565b73ffffffffffffffffffffffffffffffffffffffff16600a60009054906101000a900473ffffffffffffffffffffffffffffffffffffffff1673ffffffffffffffffffffffffffffffffffffffff16146122ad576040517f08c379a00000000000000000000000000000000000000000000000000000000081526004018080602001828103825260208152602001807f4f776e61626c653a2063616c6c6572206973206e6f7420746865206f776e657281525060200191505060405180910390fd5b80600d83815481106122bb57fe5b9060005260206000209060080201600201819055505050565b60606122df82612aaa565b612334576040517f08c379a000000000000000000000000000000000000000000000000000000000815260040180806020018281038252602f815260200180614264602f913960400191505060405180910390fd5b6060600860008481526020019081526020016000208054600181600116156101000203166002900480601f0160208091040260200160405190810160405280929190818152602001828054600181600116156101000203166002900480156123dd5780601f106123b2576101008083540402835291602001916123dd565b820191906000526020600020905b8154815290600101906020018083116123c057829003601f168201915b5050505050905060006009805460018160011615610100020316600290049050141561240c57809150506125b8565b6000815111156124e55760098160405160200180838054600181600116156101000203166002900480156124775780601f10612455576101008083540402835291820191612477565b820191906000526020600020905b815481529060010190602001808311612463575b505082805190602001908083835b602083106124a85780518252602082019150602081019050602083039250612485565b6001836020036101000a038019825116818451168082178552505050505050905001925050506040516020818303038152906040529150506125b8565b60096124f0846131cb565b604051602001808380546001816001161561010002031660029004801561254e5780601f1061252c57610100808354040283529182019161254e565b820191906000526020600020905b81548152906001019060200180831161253a575b505082805190602001908083835b6020831061257f578051825260208201915060208101905060208303925061255c565b6001836020036101000a038019825116818451168082178552505050505050905001925050506040516020818303038152906040529150505b919050565b813373ffffffffffffffffffffffffffffffffffffffff16600d82815481106125e257fe5b906000526020600020906008020160070160009054906101000a900473ffffffffffffffffffffffffffffffffffffffff1673ffffffffffffffffffffffffffffffffffffffff1614612680576040517f08c379a000000000000000000000000000000000000000000000000000000000815260040180806020018281038252602a8152602001806142e5602a913960400191505060405180910390fd5b81600d848154811061268e57fe5b906000526020600020906008020160040181905550505050565b6000600560008473ffffffffffffffffffffffffffffffffffffffff1673ffffffffffffffffffffffffffffffffffffffff16815260200190815260200160002060008373ffffffffffffffffffffffffffffffffffffffff1673ffffffffffffffffffffffffffffffffffffffff16815260200190815260200160002060009054906101000a900460ff16905092915050565b612744612ac7565b73ffffffffffffffffffffffffffffffffffffffff16600a60009054906101000a900473ffffffffffffffffffffffffffffffffffffffff1673ffffffffffffffffffffffffffffffffffffffff1614612806576040517f08c379a00000000000000000000000000000000000000000000000000000000081526004018080602001828103825260208152602001807f4f776e61626c653a2063616c6c6572206973206e6f7420746865206f776e657281525060200191505060405180910390fd5b600073ffffffffffffffffffffffffffffffffffffffff168173ffffffffffffffffffffffffffffffffffffffff16141561288c576040517f08c379a00000000000000000000000000000000000000000000000000000000081526004018080602001828103825260268152602001806140ec6026913960400191505060405180910390fd5b8073ffffffffffffffffffffffffffffffffffffffff16600a60009054906101000a900473ffffffffffffffffffffffffffffffffffffffff1673ffffffffffffffffffffffffffffffffffffffff167f8be0079c531659141344cd1fd0a4f28419497f9722a3daafe3b4186f6b6457e060405160405180910390a380600a60006101000a81548173ffffffffffffffffffffffffffffffffffffffff021916908373ffffffffffffffffffffffffffffffffffffffff16021790555050565b6060600080600080600d868154811061296157fe5b9060005260206000209060080201600001600d878154811061297f57fe5b906000526020600020906008020160010154600d888154811061299e57fe5b906000526020600020906008020160050160009054906101000a900460ff16600d89815481106129ca57fe5b906000526020600020906008020160030154600d8a815481106129e957fe5b906000526020600020906008020160040154848054600181600116156101000203166002900480601f016020809104026020016040519081016040528092919081815260200182805460018160011615610100020316600290048015612a905780601f10612a6557610100808354040283529160200191612a90565b820191906000526020600020905b815481529060010190602001808311612a7357829003601f168201915b505050505094509450945094509450945091939590929450565b6000612ac08260026132fb90919063ffffffff16565b9050919050565b600033905090565b816004600083815260200190815260200160002060006101000a81548173ffffffffffffffffffffffffffffffffffffffff021916908373ffffffffffffffffffffffffffffffffffffffff160217905550808273ffffffffffffffffffffffffffffffffffffffff16612b428361196e565b73ffffffffffffffffffffffffffffffffffffffff167f8c5be1e5ebec7d5bd14f71427d1e84f3dd0314c0f7b2291e5b200ac8c7c3b92560405160405180910390a45050565b6000612b9682600001613315565b9050919050565b6000612ba882612aaa565b612bfd576040517f08c379a000000000000000000000000000000000000000000000000000000000815260040180806020018281038252602c815260200180614136602c913960400191505060405180910390fd5b6000612c088361196e565b90508073ffffffffffffffffffffffffffffffffffffffff168473ffffffffffffffffffffffffffffffffffffffff161480612c7757508373ffffffffffffffffffffffffffffffffffffffff16612c5f84611067565b73ffffffffffffffffffffffffffffffffffffffff16145b80612c885750612c8781856126a8565b5b91505092915050565b8273ffffffffffffffffffffffffffffffffffffffff16612cb18261196e565b73ffffffffffffffffffffffffffffffffffffffff1614612d1d576040517f08c379a000000000000000000000000000000000000000000000000000000000815260040180806020018281038252602981526020018061423b6029913960400191505060405180910390fd5b600073ffffffffffffffffffffffffffffffffffffffff168273ffffffffffffffffffffffffffffffffffffffff161415612da3576040517f08c379a00000000000000000000000000000000000000000000000000000000081526004018080602001828103825260248152602001806141126024913960400191505060405180910390fd5b612dae838383613326565b612db9600082612acf565b612e0a81600160008673ffffffffffffffffffffffffffffffffffffffff1673ffffffffffffffffffffffffffffffffffffffff16815260200190815260200160002061332b90919063ffffffff16565b50612e5c81600160008573ffffffffffffffffffffffffffffffffffffffff1673ffffffffffffffffffffffffffffffffffffffff16815260200190815260200160002061334590919063ffffffff16565b50612e738183600261335f9092919063ffffffff16565b50808273ffffffffffffffffffffffffffffffffffffffff168473ffffffffffffffffffffffffffffffffffffffff167fddf252ad1be2c89b69c2b068fc378daa952ba7f163c4a11628f55a4df523b3ef60405160405180910390a4505050565b6000600d805490509050600d6040518061010001604052808a8152602001898152602001888152602001868152602001858152602001876001811115612f1657fe5b81526020014281526020018473ffffffffffffffffffffffffffffffffffffffff1681525090806001815401808255809150506001900390600052602060002090600802016000909190919091506000820151816000019080519060200190612f80929190613ff2565b506020820151816001015560408201518160020155606082015181600301556080820151816004015560a08201518160050160006101000a81548160ff02191690836001811115612fcd57fe5b021790555060c0820151816006015560e08201518160070160006101000a81548173ffffffffffffffffffffffffffffffffffffffff021916908373ffffffffffffffffffffffffffffffffffffffff160217905550505060016011600082825401925050819055506130408282613394565b808273ffffffffffffffffffffffffffffffffffffffff168373ffffffffffffffffffffffffffffffffffffffff167fddf252ad1be2c89b69c2b068fc378daa952ba7f163c4a11628f55a4df523b3ef60405160405180910390a47f98f6e57aa4755baead866c21fe3f1a1bdee97be51e462ff15de2395c4fdc78d3816040518082815260200191505060405180910390a15050505050505050565b60006130eb83600001836133b2565b60001c905092915050565b6000806000806131098660000186613435565b915091508160001c8160001c8090509350935050509250929050565b6000613138846000018460001b846134ce565b60001c90509392505050565b6000613152826000016135c4565b9050919050565b613164848484612c91565b613170848484846135d5565b6131c5576040517f08c379a00000000000000000000000000000000000000000000000000000000081526004018080602001828103825260328152602001806140ba6032913960400191505060405180910390fd5b50505050565b60606000821415613213576040518060400160405280600181526020017f300000000000000000000000000000000000000000000000000000000000000081525090506132f6565b600082905060005b6000821461323d578080600101915050600a828161323557fe5b04915061321b565b6060816040519080825280601f01601f1916602001820160405280156132725781602001600182028038833980820191505090505b50905060006001830390508593505b600084146132ee57600a848161329357fe5b0660300160f81b828280600190039350815181106132ad57fe5b60200101907effffffffffffffffffffffffffffffffffffffffffffffffffffffffffffff1916908160001a905350600a84816132e657fe5b049350613281565b819450505050505b919050565b600061330d836000018360001b61381a565b905092915050565b600081600001805490509050919050565b505050565b600061333d836000018360001b61383d565b905092915050565b6000613357836000018360001b613925565b905092915050565b600061338b846000018460001b8473ffffffffffffffffffffffffffffffffffffffff1660001b613995565b90509392505050565b6133ae828260405180602001604052806000815250613a71565b5050565b600081836000018054905011613413576040517f08c379a00000000000000000000000000000000000000000000000000000000081526004018080602001828103825260228152602001806140986022913960400191505060405180910390fd5b82600001828154811061342257fe5b9060005260206000200154905092915050565b60008082846000018054905011613497576040517f08c379a00000000000000000000000000000000000000000000000000000000081526004018080602001828103825260228152602001806141ed6022913960400191505060405180910390fd5b60008460000184815481106134a857fe5b906000526020600020906002020190508060000154816001015492509250509250929050565b60008084600101600085815260200190815260200160002054905060008114158390613595576040517f08c379a00000000000000000000000000000000000000000000000000000000081526004018080602001828103825283818151815260200191508051906020019080838360005b8381101561355a57808201518184015260208101905061353f565b50505050905090810190601f1680156135875780820380516001836020036101000a031916815260200191505b509250505060405180910390fd5b508460000160018203815481106135a857fe5b9060005260206000209060020201600101549150509392505050565b600081600001805490509050919050565b60006135f68473ffffffffffffffffffffffffffffffffffffffff16613ae2565b6136035760019050613812565b606061379963150b7a0260e01b613618612ac7565b888787604051602401808573ffffffffffffffffffffffffffffffffffffffff1673ffffffffffffffffffffffffffffffffffffffff1681526020018473ffffffffffffffffffffffffffffffffffffffff1673ffffffffffffffffffffffffffffffffffffffff16815260200183815260200180602001828103825283818151815260200191508051906020019080838360005b838110156136c85780820151818401526020810190506136ad565b50505050905090810190601f1680156136f55780820380516001836020036101000a031916815260200191505b5095505050505050604051602081830303815290604052907bffffffffffffffffffffffffffffffffffffffffffffffffffffffff19166020820180517bffffffffffffffffffffffffffffffffffffffffffffffffffffffff83818316178352505050506040518060600160405280603281526020016140ba603291398773ffffffffffffffffffffffffffffffffffffffff16613af59092919063ffffffff16565b905060008180602001905160208110156137b257600080fd5b8101908080519060200190929190505050905063150b7a0260e01b7bffffffffffffffffffffffffffffffffffffffffffffffffffffffff1916817bffffffffffffffffffffffffffffffffffffffffffffffffffffffff191614925050505b949350505050565b600080836001016000848152602001908152602001600020541415905092915050565b60008083600101600084815260200190815260200160002054905060008114613919576000600182039050600060018660000180549050039050600086600001828154811061388857fe5b90600052602060002001549050808760000184815481106138a557fe5b90600052602060002001819055506001830187600101600083815260200190815260200160002081905550866000018054806138dd57fe5b6001900381819060005260206000200160009055905586600101600087815260200190815260200160002060009055600194505050505061391f565b60009150505b92915050565b60006139318383613b0d565b61398a57826000018290806001815401808255809150506001900390600052602060002001600090919091909150558260000180549050836001016000848152602001908152602001600020819055506001905061398f565b600090505b92915050565b6000808460010160008581526020019081526020016000205490506000811415613a3c57846000016040518060400160405280868152602001858152509080600181540180825580915050600190039060005260206000209060020201600090919091909150600082015181600001556020820151816001015550508460000180549050856001016000868152602001908152602001600020819055506001915050613a6a565b82856000016001830381548110613a4f57fe5b90600052602060002090600202016001018190555060009150505b9392505050565b613a7b8383613b30565b613a8860008484846135d5565b613add576040517f08c379a00000000000000000000000000000000000000000000000000000000081526004018080602001828103825260328152602001806140ba6032913960400191505060405180910390fd5b505050565b600080823b905060008111915050919050565b6060613b048484600085613d24565b90509392505050565b600080836001016000848152602001908152602001600020541415905092915050565b600073ffffffffffffffffffffffffffffffffffffffff168273ffffffffffffffffffffffffffffffffffffffff161415613bd3576040517f08c379a00000000000000000000000000000000000000000000000000000000081526004018080602001828103825260208152602001807f4552433732313a206d696e7420746f20746865207a65726f206164647265737381525060200191505060405180910390fd5b613bdc81612aaa565b15613c4f576040517f08c379a000000000000000000000000000000000000000000000000000000000815260040180806020018281038252601c8152602001807f4552433732313a20746f6b656e20616c7265616479206d696e7465640000000081525060200191505060405180910390fd5b613c5b60008383613326565b613cac81600160008573ffffffffffffffffffffffffffffffffffffffff1673ffffffffffffffffffffffffffffffffffffffff16815260200190815260200160002061334590919063ffffffff16565b50613cc38183600261335f9092919063ffffffff16565b50808273ffffffffffffffffffffffffffffffffffffffff16600073ffffffffffffffffffffffffffffffffffffffff167fddf252ad1be2c89b69c2b068fc378daa952ba7f163c4a11628f55a4df523b3ef60405160405180910390a45050565b6060613d2f85613ae2565b613da1576040517f08c379a000000000000000000000000000000000000000000000000000000000815260040180806020018281038252601d8152602001807f416464726573733a2063616c6c20746f206e6f6e2d636f6e747261637400000081525060200191505060405180910390fd5b600060608673ffffffffffffffffffffffffffffffffffffffff1685876040518082805190602001908083835b60208310613df15780518252602082019150602081019050602083039250613dce565b6001836020036101000a03801982511681845116808217855250505050505090500191505060006040518083038185875af1925050503d8060008114613e53576040519150601f19603f3d011682016040523d82523d6000602084013e613e58565b606091505b50915091508115613e6d578092505050613f22565b600081511115613e805780518082602001fd5b836040517f08c379a00000000000000000000000000000000000000000000000000000000081526004018080602001828103825283818151815260200191508051906020019080838360005b83811015613ee7578082015181840152602081019050613ecc565b50505050905090810190601f168015613f145780820380516001836020036101000a031916815260200191505b509250505060405180910390fd5b949350505050565b828054600181600116156101000203166002900490600052602060002090601f016020900481019282601f10613f6b57803560ff1916838001178555613f99565b82800160010185558215613f99579182015b82811115613f98578235825591602001919060010190613f7d565b5b509050613fa69190614072565b5090565b50805460018160011615610100020316600290046000825580601f10613fd05750613fef565b601f016020900490600052602060002090810190613fee9190614072565b5b50565b828054600181600116156101000203166002900490600052602060002090601f016020900481019282601f1061403357805160ff1916838001178555614061565b82800160010185558215614061579182015b82811115614060578251825591602001919060010190614045565b5b50905061406e9190614072565b5090565b61409491905b80821115614090576000816000905550600101614078565b5090565b9056fe456e756d657261626c655365743a20696e646578206f7574206f6620626f756e64734552433732313a207472616e7366657220746f206e6f6e20455243373231526563656976657220696d706c656d656e7465724f776e61626c653a206e6577206f776e657220697320746865207a65726f20616464726573734552433732313a207472616e7366657220746f20746865207a65726f20616464726573734552433732313a206f70657261746f7220717565727920666f72206e6f6e6578697374656e7420746f6b656e4552433732313a20617070726f76652063616c6c6572206973206e6f74206f776e6572206e6f7220617070726f76656420666f7220616c6c4552433732313a2062616c616e636520717565727920666f7220746865207a65726f20616464726573734552433732313a206f776e657220717565727920666f72206e6f6e6578697374656e7420746f6b656e456e756d657261626c654d61703a20696e646578206f7574206f6620626f756e64734552433732313a20617070726f76656420717565727920666f72206e6f6e6578697374656e7420746f6b656e4552433732313a207472616e73666572206f6620746f6b656e2074686174206973206e6f74206f776e4552433732314d657461646174613a2055524920717565727920666f72206e6f6e6578697374656e7420746f6b656e4552433732313a20617070726f76616c20746f2063757272656e74206f776e65724552433732313a207472616e736665722063616c6c6572206973206e6f74206f776e6572206e6f7220617070726f7665644f6e6c79207075707079206f776e65722063616e20706572666f726d20746869732066756e6374696f6ea2646970667358221220da06a452f892202e2cee3963cbb57dc08a811160fc32710b5df498da0a8f238d64736f6c63430006020033",
  "source": "// SPDX-License-Identifier: MIT\npragma solidity ^0.6.2;\n\nimport \"@openzeppelin/contracts/token/ERC721/ERC721.sol\";\nimport \"@openzeppelin/contracts/access/Ownable.sol\";\n\nenum Sex { Male, Female }\n\nstruct Dog {\n    string name;\n    uint256 dob;\n    bytes32 microchip;\n    uint256 dam;\n    uint256 sire;\n    Sex sex;\n    uint256 timestamp;\n    address owner;\n}\n\ncontract DogERC721 is ERC721, Ownable {\n    mapping(address => bool) private _writers;\n    mapping(bytes32 => Dog) private _dogs; \n\n    Dog[] public pack;\n\n    string private _name;\n    string private _symbol;\n    mapping(uint256 => string) private _tokenURIs;\n    uint256 private _count;\n\n    bytes4 private constant _INTERFACE_ID_ERC721_METADATA = 0x5b5e139f;\n\n    constructor() public ERC721(\"BEAGLES\", \"DD\") {\n        //_name = \"BEAGLES\";\n        //_symbol = \"DD\";\n        // register the supported interfaces to conform to ERC721 via ERC165\n        _registerInterface(_INTERFACE_ID_ERC721_METADATA);\n    }\n\n    function count() public view returns (uint256) {\n        return _count;\n    }\n\n    function addLitter(uint256 dob, uint256 dam, uint256 sire, uint256 males, uint256 females, address owner) external onlyOwner() {\n        for (uint256 i = 0; i < males; i++) {\n            _addPuppy(\"\", dob, 0x00, Sex.Male, dam, sire, owner);\n        }\n\n        for (uint256 i = 0; i < females; i++) {\n            _addPuppy(\"\", dob, 0x00, Sex.Female, dam, sire, owner);\n        }\n    }\n\n    function addOwnPuppy(string calldata name, uint256 dob, bytes32 microchip, Sex sex, uint256 dam, uint256 sire) external onlyOwner() {\n        _addPuppy(name, dob, microchip, sex, dam, sire, msg.sender);\n    }\n\n    function addPuppy(string calldata name, uint256 dob, bytes32 microchip, Sex sex, uint256 dam, uint256 sire, address owner) external onlyOwner() {\n        _addPuppy(name, dob, microchip, sex, dam, sire, owner);\n    }\n\n    function _addPuppy(string memory name, uint256 dob, bytes32 microchip, Sex sex, uint256 dam, uint256 sire, address owner) internal {\n        uint256 id = pack.length;\n        pack.push(Dog(name, dob, microchip, dam, sire, sex, now, owner));\n\n        _count += 1;\n        _safeMint(owner, id);\n\n        emit Transfer(owner, owner, id);\n        emit PuppyAdded(id);\n    }\n\n    function getPuppy(uint256 tokenId) external view returns (string memory, uint256, Sex, uint256, uint256) {\n        return (\n            pack[tokenId].name,\n            pack[tokenId].dob,\n            pack[tokenId].sex,\n            pack[tokenId].dam,\n            pack[tokenId].sire\n        );\n    }\n\n    function removePuppy(uint256 tokenId) external onlyOwner() {\n        delete pack[tokenId];\n        _count -= 1;\n        emit PuppyRemoved(tokenId);\n    }\n        \n    function updateDam(uint256 tokenId, uint256 dam) external onlyDogOwner(tokenId) {\n        pack[tokenId].dam = dam;\n    }\n\n    function updateSire(uint256 tokenId, uint256 sire) external onlyDogOwner(tokenId) {\n        pack[tokenId].sire = sire;\n    }\n\n    function updateTitle(uint256 tokenId, string calldata name) external onlyOwner() {\n        pack[tokenId].name = name;\n    }\n\n    function updateMicrochip(uint256 tokenId, bytes32 microchip) external onlyOwner() {\n        pack[tokenId].microchip = microchip;\n    }\n\n    event PuppyAdded(uint256 tokenId);\n    event PuppyRemoved(uint256 tokenId);\n\n    modifier onlyDogOwner(uint256 tokenId) {\n        require(pack[tokenId].owner == msg.sender, \"Only puppy owner can perform this function\");\n        _;\n    }\n}\n",
  "sourcePath": "/Users/lucascullen/GitHub/dltxio/digitaldogs.github.io/src/contracts/DogERC721.sol",
  "compiler": {
    "name": "solc",
    "version": "0.6.2+commit.bacdbe57.Emscripten.clang"
  },
  "schemaVersion": "3.0.23",
  "updatedAt": "2020-12-22T05:32:19.460Z",
  "networkType": "ethereum",
  "devdoc": {
    "methods": {
      "approve(address,uint256)": {
        "details": "See {IERC721-approve}."
      },
      "balanceOf(address)": {
        "details": "See {IERC721-balanceOf}."
      },
      "baseURI()": {
        "details": "Returns the base URI set via {_setBaseURI}. This will be automatically added as a prefix in {tokenURI} to each token's URI, or to the token ID if no specific URI is set for that token ID."
      },
      "getApproved(uint256)": {
        "details": "See {IERC721-getApproved}."
      },
      "isApprovedForAll(address,address)": {
        "details": "See {IERC721-isApprovedForAll}."
      },
      "name()": {
        "details": "See {IERC721Metadata-name}."
      },
      "owner()": {
        "details": "Returns the address of the current owner."
      },
      "ownerOf(uint256)": {
        "details": "See {IERC721-ownerOf}."
      },
      "renounceOwnership()": {
        "details": "Leaves the contract without owner. It will not be possible to call `onlyOwner` functions anymore. Can only be called by the current owner.     * NOTE: Renouncing ownership will leave the contract without an owner, thereby removing any functionality that is only available to the owner."
      },
      "safeTransferFrom(address,address,uint256)": {
        "details": "See {IERC721-safeTransferFrom}."
      },
      "safeTransferFrom(address,address,uint256,bytes)": {
        "details": "See {IERC721-safeTransferFrom}."
      },
      "setApprovalForAll(address,bool)": {
        "details": "See {IERC721-setApprovalForAll}."
      },
      "supportsInterface(bytes4)": {
        "details": "See {IERC165-supportsInterface}.     * Time complexity O(1), guaranteed to always use less than 30 000 gas."
      },
      "symbol()": {
        "details": "See {IERC721Metadata-symbol}."
      },
      "tokenByIndex(uint256)": {
        "details": "See {IERC721Enumerable-tokenByIndex}."
      },
      "tokenOfOwnerByIndex(address,uint256)": {
        "details": "See {IERC721Enumerable-tokenOfOwnerByIndex}."
      },
      "tokenURI(uint256)": {
        "details": "See {IERC721Metadata-tokenURI}."
      },
      "totalSupply()": {
        "details": "See {IERC721Enumerable-totalSupply}."
      },
      "transferFrom(address,address,uint256)": {
        "details": "See {IERC721-transferFrom}."
      },
      "transferOwnership(address)": {
        "details": "Transfers ownership of the contract to a new account (`newOwner`). Can only be called by the current owner."
      }
    }
  },
  "userdoc": {
    "methods": {}
  }
}