{
  "contractName": "DogERC721",
  "abi": [
    {
      "inputs": [],
      "stateMutability": "nonpayable",
      "type": "constructor"
    },
    {
      "anonymous": false,
      "inputs": [
        {
          "indexed": true,
          "internalType": "address",
          "name": "owner",
          "type": "address"
        },
        {
          "indexed": true,
          "internalType": "address",
          "name": "approved",
          "type": "address"
        },
        {
          "indexed": true,
          "internalType": "uint256",
          "name": "tokenId",
          "type": "uint256"
        }
      ],
      "name": "Approval",
      "type": "event"
    },
    {
      "anonymous": false,
      "inputs": [
        {
          "indexed": true,
          "internalType": "address",
          "name": "owner",
          "type": "address"
        },
        {
          "indexed": true,
          "internalType": "address",
          "name": "operator",
          "type": "address"
        },
        {
          "indexed": false,
          "internalType": "bool",
          "name": "approved",
          "type": "bool"
        }
      ],
      "name": "ApprovalForAll",
      "type": "event"
    },
    {
      "anonymous": false,
      "inputs": [
        {
          "indexed": true,
          "internalType": "address",
          "name": "previousOwner",
          "type": "address"
        },
        {
          "indexed": true,
          "internalType": "address",
          "name": "newOwner",
          "type": "address"
        }
      ],
      "name": "OwnershipTransferred",
      "type": "event"
    },
    {
      "anonymous": false,
      "inputs": [
        {
          "indexed": false,
          "internalType": "uint256",
          "name": "tokenId",
          "type": "uint256"
        }
      ],
      "name": "PuppyAdded",
      "type": "event"
    },
    {
      "anonymous": false,
      "inputs": [
        {
          "indexed": false,
          "internalType": "uint256",
          "name": "tokenId",
          "type": "uint256"
        }
      ],
      "name": "PuppyRemoved",
      "type": "event"
    },
    {
      "anonymous": false,
      "inputs": [
        {
          "indexed": true,
          "internalType": "address",
          "name": "from",
          "type": "address"
        },
        {
          "indexed": true,
          "internalType": "address",
          "name": "to",
          "type": "address"
        },
        {
          "indexed": true,
          "internalType": "uint256",
          "name": "tokenId",
          "type": "uint256"
        }
      ],
      "name": "Transfer",
      "type": "event"
    },
    {
      "inputs": [
        {
          "internalType": "address",
          "name": "to",
          "type": "address"
        },
        {
          "internalType": "uint256",
          "name": "tokenId",
          "type": "uint256"
        }
      ],
      "name": "approve",
      "outputs": [],
      "stateMutability": "nonpayable",
      "type": "function"
    },
    {
      "inputs": [
        {
          "internalType": "address",
          "name": "owner",
          "type": "address"
        }
      ],
      "name": "balanceOf",
      "outputs": [
        {
          "internalType": "uint256",
          "name": "",
          "type": "uint256"
        }
      ],
      "stateMutability": "view",
      "type": "function",
      "constant": true
    },
    {
      "inputs": [],
      "name": "baseURI",
      "outputs": [
        {
          "internalType": "string",
          "name": "",
          "type": "string"
        }
      ],
      "stateMutability": "view",
      "type": "function",
      "constant": true
    },
    {
      "inputs": [
        {
          "internalType": "uint256",
          "name": "tokenId",
          "type": "uint256"
        }
      ],
      "name": "getApproved",
      "outputs": [
        {
          "internalType": "address",
          "name": "",
          "type": "address"
        }
      ],
      "stateMutability": "view",
      "type": "function",
      "constant": true
    },
    {
      "inputs": [
        {
          "internalType": "address",
          "name": "owner",
          "type": "address"
        },
        {
          "internalType": "address",
          "name": "operator",
          "type": "address"
        }
      ],
      "name": "isApprovedForAll",
      "outputs": [
        {
          "internalType": "bool",
          "name": "",
          "type": "bool"
        }
      ],
      "stateMutability": "view",
      "type": "function",
      "constant": true
    },
    {
      "inputs": [],
      "name": "name",
      "outputs": [
        {
          "internalType": "string",
          "name": "",
          "type": "string"
        }
      ],
      "stateMutability": "view",
      "type": "function",
      "constant": true
    },
    {
      "inputs": [],
      "name": "owner",
      "outputs": [
        {
          "internalType": "address",
          "name": "",
          "type": "address"
        }
      ],
      "stateMutability": "view",
      "type": "function",
      "constant": true
    },
    {
      "inputs": [
        {
          "internalType": "uint256",
          "name": "tokenId",
          "type": "uint256"
        }
      ],
      "name": "ownerOf",
      "outputs": [
        {
          "internalType": "address",
          "name": "",
          "type": "address"
        }
      ],
      "stateMutability": "view",
      "type": "function",
      "constant": true
    },
    {
      "inputs": [
        {
          "internalType": "uint256",
          "name": "",
          "type": "uint256"
        }
      ],
      "name": "pack",
      "outputs": [
        {
          "internalType": "string",
          "name": "name",
          "type": "string"
        },
        {
          "internalType": "uint256",
          "name": "dob",
          "type": "uint256"
        },
        {
          "internalType": "bytes32",
          "name": "microchip",
          "type": "bytes32"
        },
        {
          "internalType": "uint256",
          "name": "dam",
          "type": "uint256"
        },
        {
          "internalType": "uint256",
          "name": "sire",
          "type": "uint256"
        },
        {
          "internalType": "enum Sex",
          "name": "sex",
          "type": "uint8"
        },
        {
          "internalType": "uint256",
          "name": "timestamp",
          "type": "uint256"
        },
        {
          "internalType": "address",
          "name": "owner",
          "type": "address"
        }
      ],
      "stateMutability": "view",
      "type": "function",
      "constant": true
    },
    {
      "inputs": [],
      "name": "renounceOwnership",
      "outputs": [],
      "stateMutability": "nonpayable",
      "type": "function"
    },
    {
      "inputs": [
        {
          "internalType": "address",
          "name": "from",
          "type": "address"
        },
        {
          "internalType": "address",
          "name": "to",
          "type": "address"
        },
        {
          "internalType": "uint256",
          "name": "tokenId",
          "type": "uint256"
        }
      ],
      "name": "safeTransferFrom",
      "outputs": [],
      "stateMutability": "nonpayable",
      "type": "function"
    },
    {
      "inputs": [
        {
          "internalType": "address",
          "name": "from",
          "type": "address"
        },
        {
          "internalType": "address",
          "name": "to",
          "type": "address"
        },
        {
          "internalType": "uint256",
          "name": "tokenId",
          "type": "uint256"
        },
        {
          "internalType": "bytes",
          "name": "_data",
          "type": "bytes"
        }
      ],
      "name": "safeTransferFrom",
      "outputs": [],
      "stateMutability": "nonpayable",
      "type": "function"
    },
    {
      "inputs": [
        {
          "internalType": "address",
          "name": "operator",
          "type": "address"
        },
        {
          "internalType": "bool",
          "name": "approved",
          "type": "bool"
        }
      ],
      "name": "setApprovalForAll",
      "outputs": [],
      "stateMutability": "nonpayable",
      "type": "function"
    },
    {
      "inputs": [
        {
          "internalType": "bytes4",
          "name": "interfaceId",
          "type": "bytes4"
        }
      ],
      "name": "supportsInterface",
      "outputs": [
        {
          "internalType": "bool",
          "name": "",
          "type": "bool"
        }
      ],
      "stateMutability": "view",
      "type": "function",
      "constant": true
    },
    {
      "inputs": [],
      "name": "symbol",
      "outputs": [
        {
          "internalType": "string",
          "name": "",
          "type": "string"
        }
      ],
      "stateMutability": "view",
      "type": "function",
      "constant": true
    },
    {
      "inputs": [
        {
          "internalType": "uint256",
          "name": "index",
          "type": "uint256"
        }
      ],
      "name": "tokenByIndex",
      "outputs": [
        {
          "internalType": "uint256",
          "name": "",
          "type": "uint256"
        }
      ],
      "stateMutability": "view",
      "type": "function",
      "constant": true
    },
    {
      "inputs": [
        {
          "internalType": "address",
          "name": "owner",
          "type": "address"
        },
        {
          "internalType": "uint256",
          "name": "index",
          "type": "uint256"
        }
      ],
      "name": "tokenOfOwnerByIndex",
      "outputs": [
        {
          "internalType": "uint256",
          "name": "",
          "type": "uint256"
        }
      ],
      "stateMutability": "view",
      "type": "function",
      "constant": true
    },
    {
      "inputs": [
        {
          "internalType": "uint256",
          "name": "tokenId",
          "type": "uint256"
        }
      ],
      "name": "tokenURI",
      "outputs": [
        {
          "internalType": "string",
          "name": "",
          "type": "string"
        }
      ],
      "stateMutability": "view",
      "type": "function",
      "constant": true
    },
    {
      "inputs": [],
      "name": "totalSupply",
      "outputs": [
        {
          "internalType": "uint256",
          "name": "",
          "type": "uint256"
        }
      ],
      "stateMutability": "view",
      "type": "function",
      "constant": true
    },
    {
      "inputs": [
        {
          "internalType": "address",
          "name": "from",
          "type": "address"
        },
        {
          "internalType": "address",
          "name": "to",
          "type": "address"
        },
        {
          "internalType": "uint256",
          "name": "tokenId",
          "type": "uint256"
        }
      ],
      "name": "transferFrom",
      "outputs": [],
      "stateMutability": "nonpayable",
      "type": "function"
    },
    {
      "inputs": [
        {
          "internalType": "address",
          "name": "newOwner",
          "type": "address"
        }
      ],
      "name": "transferOwnership",
      "outputs": [],
      "stateMutability": "nonpayable",
      "type": "function"
    },
    {
      "inputs": [],
      "name": "count",
      "outputs": [
        {
          "internalType": "uint256",
          "name": "",
          "type": "uint256"
        }
      ],
      "stateMutability": "view",
      "type": "function",
      "constant": true
    },
    {
      "inputs": [
        {
          "internalType": "uint256",
          "name": "dob",
          "type": "uint256"
        },
        {
          "internalType": "uint256",
          "name": "dam",
          "type": "uint256"
        },
        {
          "internalType": "uint256",
          "name": "sire",
          "type": "uint256"
        },
        {
          "internalType": "uint256",
          "name": "males",
          "type": "uint256"
        },
        {
          "internalType": "uint256",
          "name": "females",
          "type": "uint256"
        },
        {
          "internalType": "address",
          "name": "owner",
          "type": "address"
        }
      ],
      "name": "addLitter",
      "outputs": [],
      "stateMutability": "nonpayable",
      "type": "function"
    },
    {
      "inputs": [
        {
          "internalType": "string",
          "name": "name",
          "type": "string"
        },
        {
          "internalType": "uint256",
          "name": "dob",
          "type": "uint256"
        },
        {
          "internalType": "bytes32",
          "name": "microchip",
          "type": "bytes32"
        },
        {
          "internalType": "enum Sex",
          "name": "sex",
          "type": "uint8"
        },
        {
          "internalType": "uint256",
          "name": "dam",
          "type": "uint256"
        },
        {
          "internalType": "uint256",
          "name": "sire",
          "type": "uint256"
        },
        {
          "internalType": "address",
          "name": "owner",
          "type": "address"
        }
      ],
      "name": "addPuppy",
      "outputs": [],
      "stateMutability": "nonpayable",
      "type": "function"
    },
    {
      "inputs": [
        {
          "internalType": "uint256",
          "name": "tokenId",
          "type": "uint256"
        }
      ],
      "name": "getPuppy",
      "outputs": [
        {
          "internalType": "string",
          "name": "",
          "type": "string"
        },
        {
          "internalType": "uint256",
          "name": "",
          "type": "uint256"
        },
        {
          "internalType": "enum Sex",
          "name": "",
          "type": "uint8"
        },
        {
          "internalType": "uint256",
          "name": "",
          "type": "uint256"
        },
        {
          "internalType": "uint256",
          "name": "",
          "type": "uint256"
        }
      ],
      "stateMutability": "view",
      "type": "function",
      "constant": true
    },
    {
      "inputs": [
        {
          "internalType": "uint256",
          "name": "tokenId",
          "type": "uint256"
        }
      ],
      "name": "removePuppy",
      "outputs": [],
      "stateMutability": "nonpayable",
      "type": "function"
    },
    {
      "inputs": [
        {
          "internalType": "uint256",
          "name": "tokenId",
          "type": "uint256"
        },
        {
          "internalType": "uint256",
          "name": "dam",
          "type": "uint256"
        }
      ],
      "name": "updateDam",
      "outputs": [],
      "stateMutability": "nonpayable",
      "type": "function"
    },
    {
      "inputs": [
        {
          "internalType": "uint256",
          "name": "tokenId",
          "type": "uint256"
        },
        {
          "internalType": "uint256",
          "name": "sire",
          "type": "uint256"
        }
      ],
      "name": "updateSire",
      "outputs": [],
      "stateMutability": "nonpayable",
      "type": "function"
    },
    {
      "inputs": [
        {
          "internalType": "uint256",
          "name": "tokenId",
          "type": "uint256"
        },
        {
          "internalType": "string",
          "name": "name",
          "type": "string"
        }
      ],
      "name": "updateTitle",
      "outputs": [],
      "stateMutability": "nonpayable",
      "type": "function"
    },
    {
      "inputs": [
        {
          "internalType": "uint256",
          "name": "tokenId",
          "type": "uint256"
        },
        {
          "internalType": "bytes32",
          "name": "microchip",
          "type": "bytes32"
        }
      ],
      "name": "updateMicrochip",
      "outputs": [],
      "stateMutability": "nonpayable",
      "type": "function"
    }
  ],
  "bytecode": "0x60806040523480156200001157600080fd5b506040518060400160405280600781526020017f424541474c4553000000000000000000000000000000000000000000000000008152506040518060400160405280600281526020017f4444000000000000000000000000000000000000000000000000000000000000815250620000966301ffc9a760e01b620001e160201b60201c565b8160069080519060200190620000ae929190620002f2565b508060079080519060200190620000c7929190620002f2565b50620000e06380ac58cd60e01b620001e160201b60201c565b620000f8635b5e139f60e01b620001e160201b60201c565b6200011063780e9d6360e01b620001e160201b60201c565b5050600062000124620002ea60201b60201c565b905080600a60006101000a81548173ffffffffffffffffffffffffffffffffffffffff021916908373ffffffffffffffffffffffffffffffffffffffff1602179055508073ffffffffffffffffffffffffffffffffffffffff16600073ffffffffffffffffffffffffffffffffffffffff167f8be0079c531659141344cd1fd0a4f28419497f9722a3daafe3b4186f6b6457e060405160405180910390a350620001db635b5e139f60e01b620001e160201b60201c565b620003a1565b63ffffffff60e01b817bffffffffffffffffffffffffffffffffffffffffffffffffffffffff191614156200027e576040517f08c379a000000000000000000000000000000000000000000000000000000000815260040180806020018281038252601c8152602001807f4552433136353a20696e76616c696420696e746572666163652069640000000081525060200191505060405180910390fd5b6001600080837bffffffffffffffffffffffffffffffffffffffffffffffffffffffff19167bffffffffffffffffffffffffffffffffffffffffffffffffffffffff1916815260200190815260200160002060006101000a81548160ff02191690831515021790555050565b600033905090565b828054600181600116156101000203166002900490600052602060002090601f016020900481019282601f106200033557805160ff191683800117855562000366565b8280016001018555821562000366579182015b828111156200036557825182559160200191906001019062000348565b5b50905062000375919062000379565b5090565b6200039e91905b808211156200039a57600081600090555060010162000380565b5090565b90565b613ed880620003b16000396000f3fe608060405234801561001057600080fd5b50600436106101da5760003560e01c80636352211e11610104578063a22cb465116100a2578063defc644e11610071578063defc644e14610cd2578063e985e9c514610d0a578063f2fde38b14610d86578063f36c83f014610dca576101da565b8063a22cb46514610a9e578063b88d4fde14610aee578063bccf158c14610bf3578063c87b56dd14610c2b576101da565b806370a08231116100de57806370a082311461096f578063715018a6146109c75780638da5cb5b146109d157806395d89b4114610a1b576101da565b80636352211e1461076c5780636c0360eb146107da5780636ea425551461085d576101da565b80632ef848cf1161017c57806352d5b9711161014b57806352d5b971146105b55780635786ead2146105ed5780635cbd35f514610670578063600236281461073e576101da565b80632ef848cf1461042d5780632f745c59146104a357806342842e0e146105055780634f6ccce714610573576101da565b8063081812fc116101b8578063081812fc146102e5578063095ea7b31461035357806318160ddd146103a157806323b872dd146103bf576101da565b806301ffc9a7146101df57806306661abd1461024457806306fdde0314610262575b600080fd5b61022a600480360360208110156101f557600080fd5b8101908080357bffffffffffffffffffffffffffffffffffffffffffffffffffffffff19169060200190929190505050610e9b565b604051808215151515815260200191505060405180910390f35b61024c610f02565b6040518082815260200191505060405180910390f35b61026a610f0c565b6040518080602001828103825283818151815260200191508051906020019080838360005b838110156102aa57808201518184015260208101905061028f565b50505050905090810190601f1680156102d75780820380516001836020036101000a031916815260200191505b509250505060405180910390f35b610311600480360360208110156102fb57600080fd5b8101908080359060200190929190505050610fae565b604051808273ffffffffffffffffffffffffffffffffffffffff1673ffffffffffffffffffffffffffffffffffffffff16815260200191505060405180910390f35b61039f6004803603604081101561036957600080fd5b81019080803573ffffffffffffffffffffffffffffffffffffffff16906020019092919080359060200190929190505050611049565b005b6103a961118d565b6040518082815260200191505060405180910390f35b61042b600480360360608110156103d557600080fd5b81019080803573ffffffffffffffffffffffffffffffffffffffff169060200190929190803573ffffffffffffffffffffffffffffffffffffffff1690602001909291908035906020019092919050505061119e565b005b6104a1600480360360c081101561044357600080fd5b810190808035906020019092919080359060200190929190803590602001909291908035906020019092919080359060200190929190803573ffffffffffffffffffffffffffffffffffffffff169060200190929190505050611214565b005b6104ef600480360360408110156104b957600080fd5b81019080803573ffffffffffffffffffffffffffffffffffffffff16906020019092919080359060200190929190505050611362565b6040518082815260200191505060405180910390f35b6105716004803603606081101561051b57600080fd5b81019080803573ffffffffffffffffffffffffffffffffffffffff169060200190929190803573ffffffffffffffffffffffffffffffffffffffff169060200190929190803590602001909291905050506113bd565b005b61059f6004803603602081101561058957600080fd5b81019080803590602001909291905050506113dd565b6040518082815260200191505060405180910390f35b6105eb600480360360408110156105cb57600080fd5b810190808035906020019092919080359060200190929190505050611400565b005b61066e6004803603604081101561060357600080fd5b81019080803590602001909291908035906020019064010000000081111561062a57600080fd5b82018360208201111561063c57600080fd5b8035906020019184600183028401116401000000008311171561065e57600080fd5b90919293919293905050506114eb565b005b61073c600480360360e081101561068657600080fd5b81019080803590602001906401000000008111156106a357600080fd5b8201836020820111156106b557600080fd5b803590602001918460018302840111640100000000831117156106d757600080fd5b90919293919293908035906020019092919080359060200190929190803560ff1690602001909291908035906020019092919080359060200190929190803573ffffffffffffffffffffffffffffffffffffffff1690602001909291905050506115e8565b005b61076a6004803603602081101561075457600080fd5b810190808035906020019092919050505061170f565b005b6107986004803603602081101561078257600080fd5b81019080803590602001909291905050506118b5565b604051808273ffffffffffffffffffffffffffffffffffffffff1673ffffffffffffffffffffffffffffffffffffffff16815260200191505060405180910390f35b6107e26118ec565b6040518080602001828103825283818151815260200191508051906020019080838360005b83811015610822578082015181840152602081019050610807565b50505050905090810190601f16801561084f5780820380516001836020036101000a031916815260200191505b509250505060405180910390f35b6108896004803603602081101561087357600080fd5b810190808035906020019092919050505061198e565b60405180806020018981526020018881526020018781526020018681526020018560018111156108b557fe5b60ff1681526020018481526020018373ffffffffffffffffffffffffffffffffffffffff1673ffffffffffffffffffffffffffffffffffffffff16815260200182810382528a818151815260200191508051906020019080838360005b8381101561092d578082015181840152602081019050610912565b50505050905090810190601f16801561095a5780820380516001836020036101000a031916815260200191505b50995050505050505050505060405180910390f35b6109b16004803603602081101561098557600080fd5b81019080803573ffffffffffffffffffffffffffffffffffffffff169060200190929190505050611aa8565b6040518082815260200191505060405180910390f35b6109cf611b7d565b005b6109d9611d08565b604051808273ffffffffffffffffffffffffffffffffffffffff1673ffffffffffffffffffffffffffffffffffffffff16815260200191505060405180910390f35b610a23611d32565b6040518080602001828103825283818151815260200191508051906020019080838360005b83811015610a63578082015181840152602081019050610a48565b50505050905090810190601f168015610a905780820380516001836020036101000a031916815260200191505b509250505060405180910390f35b610aec60048036036040811015610ab457600080fd5b81019080803573ffffffffffffffffffffffffffffffffffffffff169060200190929190803515159060200190929190505050611dd4565b005b610bf160048036036080811015610b0457600080fd5b81019080803573ffffffffffffffffffffffffffffffffffffffff169060200190929190803573ffffffffffffffffffffffffffffffffffffffff1690602001909291908035906020019092919080359060200190640100000000811115610b6b57600080fd5b820183602082011115610b7d57600080fd5b80359060200191846001830284011164010000000083111715610b9f57600080fd5b91908080601f016020809104026020016040519081016040528093929190818152602001838380828437600081840152601f19601f820116905080830192505050505050509192919290505050611f8c565b005b610c2960048036036040811015610c0957600080fd5b810190808035906020019092919080359060200190929190505050612004565b005b610c5760048036036020811015610c4157600080fd5b81019080803590602001909291905050506120f5565b6040518080602001828103825283818151815260200191508051906020019080838360005b83811015610c97578082015181840152602081019050610c7c565b50505050905090810190601f168015610cc45780820380516001836020036101000a031916815260200191505b509250505060405180910390f35b610d0860048036036040811015610ce857600080fd5b8101908080359060200190929190803590602001909291905050506123de565b005b610d6c60048036036040811015610d2057600080fd5b81019080803573ffffffffffffffffffffffffffffffffffffffff169060200190929190803573ffffffffffffffffffffffffffffffffffffffff1690602001909291905050506124c9565b604051808215151515815260200191505060405180910390f35b610dc860048036036020811015610d9c57600080fd5b81019080803573ffffffffffffffffffffffffffffffffffffffff16906020019092919050505061255d565b005b610df660048036036020811015610de057600080fd5b810190808035906020019092919050505061276d565b6040518080602001868152602001856001811115610e1057fe5b60ff168152602001848152602001838152602001828103825287818151815260200191508051906020019080838360005b83811015610e5c578082015181840152602081019050610e41565b50505050905090810190601f168015610e895780820380516001836020036101000a031916815260200191505b50965050505050505060405180910390f35b6000806000837bffffffffffffffffffffffffffffffffffffffffffffffffffffffff19167bffffffffffffffffffffffffffffffffffffffffffffffffffffffff1916815260200190815260200160002060009054906101000a900460ff169050919050565b6000601154905090565b606060068054600181600116156101000203166002900480601f016020809104026020016040519081016040528092919081815260200182805460018160011615610100020316600290048015610fa45780601f10610f7957610100808354040283529160200191610fa4565b820191906000526020600020905b815481529060010190602001808311610f8757829003601f168201915b5050505050905090565b6000610fb9826128cb565b61100e576040517f08c379a000000000000000000000000000000000000000000000000000000000815260040180806020018281038252602c815260200180613da3602c913960400191505060405180910390fd5b6004600083815260200190815260200160002060009054906101000a900473ffffffffffffffffffffffffffffffffffffffff169050919050565b6000611054826118b5565b90508073ffffffffffffffffffffffffffffffffffffffff168373ffffffffffffffffffffffffffffffffffffffff1614156110db576040517f08c379a0000000000000000000000000000000000000000000000000000000008152600401808060200182810382526021815260200180613e276021913960400191505060405180910390fd5b8073ffffffffffffffffffffffffffffffffffffffff166110fa6128e8565b73ffffffffffffffffffffffffffffffffffffffff1614806111295750611128816111236128e8565b6124c9565b5b61117e576040517f08c379a0000000000000000000000000000000000000000000000000000000008152600401808060200182810382526038815260200180613cf66038913960400191505060405180910390fd5b61118883836128f0565b505050565b600061119960026129a9565b905090565b6111af6111a96128e8565b826129be565b611204576040517f08c379a0000000000000000000000000000000000000000000000000000000008152600401808060200182810382526031815260200180613e486031913960400191505060405180910390fd5b61120f838383612ab2565b505050565b61121c6128e8565b73ffffffffffffffffffffffffffffffffffffffff16600a60009054906101000a900473ffffffffffffffffffffffffffffffffffffffff1673ffffffffffffffffffffffffffffffffffffffff16146112de576040517f08c379a00000000000000000000000000000000000000000000000000000000081526004018080602001828103825260208152602001807f4f776e61626c653a2063616c6c6572206973206e6f7420746865206f776e657281525060200191505060405180910390fd5b60008090505b8381101561131b5761130e60405180602001604052806000815250886000801b60008a8a88612cf5565b80806001019150506112e4565b5060008090505b828110156113595761134c60405180602001604052806000815250886000801b60018a8a88612cf5565b8080600101915050611322565b50505050505050565b60006113b582600160008673ffffffffffffffffffffffffffffffffffffffff1673ffffffffffffffffffffffffffffffffffffffff168152602001908152602001600020612ef390919063ffffffff16565b905092915050565b6113d883838360405180602001604052806000815250611f8c565b505050565b6000806113f4836002612f0d90919063ffffffff16565b50905080915050919050565b813373ffffffffffffffffffffffffffffffffffffffff16600d828154811061142557fe5b906000526020600020906008020160070160009054906101000a900473ffffffffffffffffffffffffffffffffffffffff1673ffffffffffffffffffffffffffffffffffffffff16146114c3576040517f08c379a000000000000000000000000000000000000000000000000000000000815260040180806020018281038252602a815260200180613e79602a913960400191505060405180910390fd5b81600d84815481106114d157fe5b906000526020600020906008020160030181905550505050565b6114f36128e8565b73ffffffffffffffffffffffffffffffffffffffff16600a60009054906101000a900473ffffffffffffffffffffffffffffffffffffffff1673ffffffffffffffffffffffffffffffffffffffff16146115b5576040517f08c379a00000000000000000000000000000000000000000000000000000000081526004018080602001828103825260208152602001807f4f776e61626c653a2063616c6c6572206973206e6f7420746865206f776e657281525060200191505060405180910390fd5b8181600d85815481106115c457fe5b906000526020600020906008020160000191906115e2929190613abe565b50505050565b6115f06128e8565b73ffffffffffffffffffffffffffffffffffffffff16600a60009054906101000a900473ffffffffffffffffffffffffffffffffffffffff1673ffffffffffffffffffffffffffffffffffffffff16146116b2576040517f08c379a00000000000000000000000000000000000000000000000000000000081526004018080602001828103825260208152602001807f4f776e61626c653a2063616c6c6572206973206e6f7420746865206f776e657281525060200191505060405180910390fd5b61170588888080601f016020809104026020016040519081016040528093929190818152602001838380828437600081840152601f19601f82011690508083019250505050505050878787878787612cf5565b5050505050505050565b6117176128e8565b73ffffffffffffffffffffffffffffffffffffffff16600a60009054906101000a900473ffffffffffffffffffffffffffffffffffffffff1673ffffffffffffffffffffffffffffffffffffffff16146117d9576040517f08c379a00000000000000000000000000000000000000000000000000000000081526004018080602001828103825260208152602001807f4f776e61626c653a2063616c6c6572206973206e6f7420746865206f776e657281525060200191505060405180910390fd5b600d81815481106117e657fe5b9060005260206000209060080201600080820160006118059190613b3e565b60018201600090556002820160009055600382016000905560048201600090556005820160006101000a81549060ff021916905560068201600090556007820160006101000a81549073ffffffffffffffffffffffffffffffffffffffff0219169055505060016011600082825403925050819055507f4aea85f6cb1f012def055dd570b2f19414e39ee70238b57777ad09eaf335dbcf816040518082815260200191505060405180910390a150565b60006118e582604051806060016040528060298152602001613d58602991396002612f3c9092919063ffffffff16565b9050919050565b606060098054600181600116156101000203166002900480601f0160208091040260200160405190810160405280929190818152602001828054600181600116156101000203166002900480156119845780601f1061195957610100808354040283529160200191611984565b820191906000526020600020905b81548152906001019060200180831161196757829003601f168201915b5050505050905090565b600d818154811061199b57fe5b9060005260206000209060080201600091509050806000018054600181600116156101000203166002900480601f016020809104026020016040519081016040528092919081815260200182805460018160011615610100020316600290048015611a475780601f10611a1c57610100808354040283529160200191611a47565b820191906000526020600020905b815481529060010190602001808311611a2a57829003601f168201915b5050505050908060010154908060020154908060030154908060040154908060050160009054906101000a900460ff16908060060154908060070160009054906101000a900473ffffffffffffffffffffffffffffffffffffffff16905088565b60008073ffffffffffffffffffffffffffffffffffffffff168273ffffffffffffffffffffffffffffffffffffffff161415611b2f576040517f08c379a000000000000000000000000000000000000000000000000000000000815260040180806020018281038252602a815260200180613d2e602a913960400191505060405180910390fd5b611b76600160008473ffffffffffffffffffffffffffffffffffffffff1673ffffffffffffffffffffffffffffffffffffffff168152602001908152602001600020612f5b565b9050919050565b611b856128e8565b73ffffffffffffffffffffffffffffffffffffffff16600a60009054906101000a900473ffffffffffffffffffffffffffffffffffffffff1673ffffffffffffffffffffffffffffffffffffffff1614611c47576040517f08c379a00000000000000000000000000000000000000000000000000000000081526004018080602001828103825260208152602001807f4f776e61626c653a2063616c6c6572206973206e6f7420746865206f776e657281525060200191505060405180910390fd5b600073ffffffffffffffffffffffffffffffffffffffff16600a60009054906101000a900473ffffffffffffffffffffffffffffffffffffffff1673ffffffffffffffffffffffffffffffffffffffff167f8be0079c531659141344cd1fd0a4f28419497f9722a3daafe3b4186f6b6457e060405160405180910390a36000600a60006101000a81548173ffffffffffffffffffffffffffffffffffffffff021916908373ffffffffffffffffffffffffffffffffffffffff160217905550565b6000600a60009054906101000a900473ffffffffffffffffffffffffffffffffffffffff16905090565b606060078054600181600116156101000203166002900480601f016020809104026020016040519081016040528092919081815260200182805460018160011615610100020316600290048015611dca5780601f10611d9f57610100808354040283529160200191611dca565b820191906000526020600020905b815481529060010190602001808311611dad57829003601f168201915b5050505050905090565b611ddc6128e8565b73ffffffffffffffffffffffffffffffffffffffff168273ffffffffffffffffffffffffffffffffffffffff161415611e7d576040517f08c379a00000000000000000000000000000000000000000000000000000000081526004018080602001828103825260198152602001807f4552433732313a20617070726f766520746f2063616c6c65720000000000000081525060200191505060405180910390fd5b8060056000611e8a6128e8565b73ffffffffffffffffffffffffffffffffffffffff1673ffffffffffffffffffffffffffffffffffffffff16815260200190815260200160002060008473ffffffffffffffffffffffffffffffffffffffff1673ffffffffffffffffffffffffffffffffffffffff16815260200190815260200160002060006101000a81548160ff0219169083151502179055508173ffffffffffffffffffffffffffffffffffffffff16611f376128e8565b73ffffffffffffffffffffffffffffffffffffffff167f17307eab39ab6107e8899845ad3d59bd9653f200f220920489ca2b5937696c3183604051808215151515815260200191505060405180910390a35050565b611f9d611f976128e8565b836129be565b611ff2576040517f08c379a0000000000000000000000000000000000000000000000000000000008152600401808060200182810382526031815260200180613e486031913960400191505060405180910390fd5b611ffe84848484612f70565b50505050565b61200c6128e8565b73ffffffffffffffffffffffffffffffffffffffff16600a60009054906101000a900473ffffffffffffffffffffffffffffffffffffffff1673ffffffffffffffffffffffffffffffffffffffff16146120ce576040517f08c379a00000000000000000000000000000000000000000000000000000000081526004018080602001828103825260208152602001807f4f776e61626c653a2063616c6c6572206973206e6f7420746865206f776e657281525060200191505060405180910390fd5b80600d83815481106120dc57fe5b9060005260206000209060080201600201819055505050565b6060612100826128cb565b612155576040517f08c379a000000000000000000000000000000000000000000000000000000000815260040180806020018281038252602f815260200180613df8602f913960400191505060405180910390fd5b6060600860008481526020019081526020016000208054600181600116156101000203166002900480601f0160208091040260200160405190810160405280929190818152602001828054600181600116156101000203166002900480156121fe5780601f106121d3576101008083540402835291602001916121fe565b820191906000526020600020905b8154815290600101906020018083116121e157829003601f168201915b5050505050905060006009805460018160011615610100020316600290049050141561222d57809150506123d9565b6000815111156123065760098160405160200180838054600181600116156101000203166002900480156122985780601f10612276576101008083540402835291820191612298565b820191906000526020600020905b815481529060010190602001808311612284575b505082805190602001908083835b602083106122c957805182526020820191506020810190506020830392506122a6565b6001836020036101000a038019825116818451168082178552505050505050905001925050506040516020818303038152906040529150506123d9565b600961231184612fe2565b604051602001808380546001816001161561010002031660029004801561236f5780601f1061234d57610100808354040283529182019161236f565b820191906000526020600020905b81548152906001019060200180831161235b575b505082805190602001908083835b602083106123a0578051825260208201915060208101905060208303925061237d565b6001836020036101000a038019825116818451168082178552505050505050905001925050506040516020818303038152906040529150505b919050565b813373ffffffffffffffffffffffffffffffffffffffff16600d828154811061240357fe5b906000526020600020906008020160070160009054906101000a900473ffffffffffffffffffffffffffffffffffffffff1673ffffffffffffffffffffffffffffffffffffffff16146124a1576040517f08c379a000000000000000000000000000000000000000000000000000000000815260040180806020018281038252602a815260200180613e79602a913960400191505060405180910390fd5b81600d84815481106124af57fe5b906000526020600020906008020160040181905550505050565b6000600560008473ffffffffffffffffffffffffffffffffffffffff1673ffffffffffffffffffffffffffffffffffffffff16815260200190815260200160002060008373ffffffffffffffffffffffffffffffffffffffff1673ffffffffffffffffffffffffffffffffffffffff16815260200190815260200160002060009054906101000a900460ff16905092915050565b6125656128e8565b73ffffffffffffffffffffffffffffffffffffffff16600a60009054906101000a900473ffffffffffffffffffffffffffffffffffffffff1673ffffffffffffffffffffffffffffffffffffffff1614612627576040517f08c379a00000000000000000000000000000000000000000000000000000000081526004018080602001828103825260208152602001807f4f776e61626c653a2063616c6c6572206973206e6f7420746865206f776e657281525060200191505060405180910390fd5b600073ffffffffffffffffffffffffffffffffffffffff168173ffffffffffffffffffffffffffffffffffffffff1614156126ad576040517f08c379a0000000000000000000000000000000000000000000000000000000008152600401808060200182810382526026815260200180613c806026913960400191505060405180910390fd5b8073ffffffffffffffffffffffffffffffffffffffff16600a60009054906101000a900473ffffffffffffffffffffffffffffffffffffffff1673ffffffffffffffffffffffffffffffffffffffff167f8be0079c531659141344cd1fd0a4f28419497f9722a3daafe3b4186f6b6457e060405160405180910390a380600a60006101000a81548173ffffffffffffffffffffffffffffffffffffffff021916908373ffffffffffffffffffffffffffffffffffffffff16021790555050565b6060600080600080600d868154811061278257fe5b9060005260206000209060080201600001600d87815481106127a057fe5b906000526020600020906008020160010154600d88815481106127bf57fe5b906000526020600020906008020160050160009054906101000a900460ff16600d89815481106127eb57fe5b906000526020600020906008020160030154600d8a8154811061280a57fe5b906000526020600020906008020160040154848054600181600116156101000203166002900480601f0160208091040260200160405190810160405280929190818152602001828054600181600116156101000203166002900480156128b15780601f10612886576101008083540402835291602001916128b1565b820191906000526020600020905b81548152906001019060200180831161289457829003601f168201915b505050505094509450945094509450945091939590929450565b60006128e182600261311290919063ffffffff16565b9050919050565b600033905090565b816004600083815260200190815260200160002060006101000a81548173ffffffffffffffffffffffffffffffffffffffff021916908373ffffffffffffffffffffffffffffffffffffffff160217905550808273ffffffffffffffffffffffffffffffffffffffff16612963836118b5565b73ffffffffffffffffffffffffffffffffffffffff167f8c5be1e5ebec7d5bd14f71427d1e84f3dd0314c0f7b2291e5b200ac8c7c3b92560405160405180910390a45050565b60006129b78260000161312c565b9050919050565b60006129c9826128cb565b612a1e576040517f08c379a000000000000000000000000000000000000000000000000000000000815260040180806020018281038252602c815260200180613cca602c913960400191505060405180910390fd5b6000612a29836118b5565b90508073ffffffffffffffffffffffffffffffffffffffff168473ffffffffffffffffffffffffffffffffffffffff161480612a9857508373ffffffffffffffffffffffffffffffffffffffff16612a8084610fae565b73ffffffffffffffffffffffffffffffffffffffff16145b80612aa95750612aa881856124c9565b5b91505092915050565b8273ffffffffffffffffffffffffffffffffffffffff16612ad2826118b5565b73ffffffffffffffffffffffffffffffffffffffff1614612b3e576040517f08c379a0000000000000000000000000000000000000000000000000000000008152600401808060200182810382526029815260200180613dcf6029913960400191505060405180910390fd5b600073ffffffffffffffffffffffffffffffffffffffff168273ffffffffffffffffffffffffffffffffffffffff161415612bc4576040517f08c379a0000000000000000000000000000000000000000000000000000000008152600401808060200182810382526024815260200180613ca66024913960400191505060405180910390fd5b612bcf83838361313d565b612bda6000826128f0565b612c2b81600160008673ffffffffffffffffffffffffffffffffffffffff1673ffffffffffffffffffffffffffffffffffffffff16815260200190815260200160002061314290919063ffffffff16565b50612c7d81600160008573ffffffffffffffffffffffffffffffffffffffff1673ffffffffffffffffffffffffffffffffffffffff16815260200190815260200160002061315c90919063ffffffff16565b50612c94818360026131769092919063ffffffff16565b50808273ffffffffffffffffffffffffffffffffffffffff168473ffffffffffffffffffffffffffffffffffffffff167fddf252ad1be2c89b69c2b068fc378daa952ba7f163c4a11628f55a4df523b3ef60405160405180910390a4505050565b6000600d805490509050600d6040518061010001604052808a8152602001898152602001888152602001868152602001858152602001876001811115612d3757fe5b81526020014281526020018473ffffffffffffffffffffffffffffffffffffffff1681525090806001815401808255809150506001900390600052602060002090600802016000909190919091506000820151816000019080519060200190612da1929190613b86565b506020820151816001015560408201518160020155606082015181600301556080820151816004015560a08201518160050160006101000a81548160ff02191690836001811115612dee57fe5b021790555060c0820151816006015560e08201518160070160006101000a81548173ffffffffffffffffffffffffffffffffffffffff021916908373ffffffffffffffffffffffffffffffffffffffff16021790555050506001601160008282540192505081905550808273ffffffffffffffffffffffffffffffffffffffff168373ffffffffffffffffffffffffffffffffffffffff167fddf252ad1be2c89b69c2b068fc378daa952ba7f163c4a11628f55a4df523b3ef60405160405180910390a47f98f6e57aa4755baead866c21fe3f1a1bdee97be51e462ff15de2395c4fdc78d3816040518082815260200191505060405180910390a15050505050505050565b6000612f0283600001836131ab565b60001c905092915050565b600080600080612f20866000018661322e565b915091508160001c8160001c8090509350935050509250929050565b6000612f4f846000018460001b846132c7565b60001c90509392505050565b6000612f69826000016133bd565b9050919050565b612f7b848484612ab2565b612f87848484846133ce565b612fdc576040517f08c379a0000000000000000000000000000000000000000000000000000000008152600401808060200182810382526032815260200180613c4e6032913960400191505060405180910390fd5b50505050565b6060600082141561302a576040518060400160405280600181526020017f3000000000000000000000000000000000000000000000000000000000000000815250905061310d565b600082905060005b60008214613054578080600101915050600a828161304c57fe5b049150613032565b6060816040519080825280601f01601f1916602001820160405280156130895781602001600182028038833980820191505090505b50905060006001830390508593505b6000841461310557600a84816130aa57fe5b0660300160f81b828280600190039350815181106130c457fe5b60200101907effffffffffffffffffffffffffffffffffffffffffffffffffffffffffffff1916908160001a905350600a84816130fd57fe5b049350613098565b819450505050505b919050565b6000613124836000018360001b613613565b905092915050565b600081600001805490509050919050565b505050565b6000613154836000018360001b613636565b905092915050565b600061316e836000018360001b61371e565b905092915050565b60006131a2846000018460001b8473ffffffffffffffffffffffffffffffffffffffff1660001b61378e565b90509392505050565b60008183600001805490501161320c576040517f08c379a0000000000000000000000000000000000000000000000000000000008152600401808060200182810382526022815260200180613c2c6022913960400191505060405180910390fd5b82600001828154811061321b57fe5b9060005260206000200154905092915050565b60008082846000018054905011613290576040517f08c379a0000000000000000000000000000000000000000000000000000000008152600401808060200182810382526022815260200180613d816022913960400191505060405180910390fd5b60008460000184815481106132a157fe5b906000526020600020906002020190508060000154816001015492509250509250929050565b6000808460010160008581526020019081526020016000205490506000811415839061338e576040517f08c379a00000000000000000000000000000000000000000000000000000000081526004018080602001828103825283818151815260200191508051906020019080838360005b83811015613353578082015181840152602081019050613338565b50505050905090810190601f1680156133805780820380516001836020036101000a031916815260200191505b509250505060405180910390fd5b508460000160018203815481106133a157fe5b9060005260206000209060020201600101549150509392505050565b600081600001805490509050919050565b60006133ef8473ffffffffffffffffffffffffffffffffffffffff1661386a565b6133fc576001905061360b565b606061359263150b7a0260e01b6134116128e8565b888787604051602401808573ffffffffffffffffffffffffffffffffffffffff1673ffffffffffffffffffffffffffffffffffffffff1681526020018473ffffffffffffffffffffffffffffffffffffffff1673ffffffffffffffffffffffffffffffffffffffff16815260200183815260200180602001828103825283818151815260200191508051906020019080838360005b838110156134c15780820151818401526020810190506134a6565b50505050905090810190601f1680156134ee5780820380516001836020036101000a031916815260200191505b5095505050505050604051602081830303815290604052907bffffffffffffffffffffffffffffffffffffffffffffffffffffffff19166020820180517bffffffffffffffffffffffffffffffffffffffffffffffffffffffff8381831617835250505050604051806060016040528060328152602001613c4e603291398773ffffffffffffffffffffffffffffffffffffffff1661387d9092919063ffffffff16565b905060008180602001905160208110156135ab57600080fd5b8101908080519060200190929190505050905063150b7a0260e01b7bffffffffffffffffffffffffffffffffffffffffffffffffffffffff1916817bffffffffffffffffffffffffffffffffffffffffffffffffffffffff191614925050505b949350505050565b600080836001016000848152602001908152602001600020541415905092915050565b60008083600101600084815260200190815260200160002054905060008114613712576000600182039050600060018660000180549050039050600086600001828154811061368157fe5b906000526020600020015490508087600001848154811061369e57fe5b90600052602060002001819055506001830187600101600083815260200190815260200160002081905550866000018054806136d657fe5b60019003818190600052602060002001600090559055866001016000878152602001908152602001600020600090556001945050505050613718565b60009150505b92915050565b600061372a8383613895565b613783578260000182908060018154018082558091505060019003906000526020600020016000909190919091505582600001805490508360010160008481526020019081526020016000208190555060019050613788565b600090505b92915050565b600080846001016000858152602001908152602001600020549050600081141561383557846000016040518060400160405280868152602001858152509080600181540180825580915050600190039060005260206000209060020201600090919091909150600082015181600001556020820151816001015550508460000180549050856001016000868152602001908152602001600020819055506001915050613863565b8285600001600183038154811061384857fe5b90600052602060002090600202016001018190555060009150505b9392505050565b600080823b905060008111915050919050565b606061388c84846000856138b8565b90509392505050565b600080836001016000848152602001908152602001600020541415905092915050565b60606138c38561386a565b613935576040517f08c379a000000000000000000000000000000000000000000000000000000000815260040180806020018281038252601d8152602001807f416464726573733a2063616c6c20746f206e6f6e2d636f6e747261637400000081525060200191505060405180910390fd5b600060608673ffffffffffffffffffffffffffffffffffffffff1685876040518082805190602001908083835b602083106139855780518252602082019150602081019050602083039250613962565b6001836020036101000a03801982511681845116808217855250505050505090500191505060006040518083038185875af1925050503d80600081146139e7576040519150601f19603f3d011682016040523d82523d6000602084013e6139ec565b606091505b50915091508115613a01578092505050613ab6565b600081511115613a145780518082602001fd5b836040517f08c379a00000000000000000000000000000000000000000000000000000000081526004018080602001828103825283818151815260200191508051906020019080838360005b83811015613a7b578082015181840152602081019050613a60565b50505050905090810190601f168015613aa85780820380516001836020036101000a031916815260200191505b509250505060405180910390fd5b949350505050565b828054600181600116156101000203166002900490600052602060002090601f016020900481019282601f10613aff57803560ff1916838001178555613b2d565b82800160010185558215613b2d579182015b82811115613b2c578235825591602001919060010190613b11565b5b509050613b3a9190613c06565b5090565b50805460018160011615610100020316600290046000825580601f10613b645750613b83565b601f016020900490600052602060002090810190613b829190613c06565b5b50565b828054600181600116156101000203166002900490600052602060002090601f016020900481019282601f10613bc757805160ff1916838001178555613bf5565b82800160010185558215613bf5579182015b82811115613bf4578251825591602001919060010190613bd9565b5b509050613c029190613c06565b5090565b613c2891905b80821115613c24576000816000905550600101613c0c565b5090565b9056fe456e756d657261626c655365743a20696e646578206f7574206f6620626f756e64734552433732313a207472616e7366657220746f206e6f6e20455243373231526563656976657220696d706c656d656e7465724f776e61626c653a206e6577206f776e657220697320746865207a65726f20616464726573734552433732313a207472616e7366657220746f20746865207a65726f20616464726573734552433732313a206f70657261746f7220717565727920666f72206e6f6e6578697374656e7420746f6b656e4552433732313a20617070726f76652063616c6c6572206973206e6f74206f776e6572206e6f7220617070726f76656420666f7220616c6c4552433732313a2062616c616e636520717565727920666f7220746865207a65726f20616464726573734552433732313a206f776e657220717565727920666f72206e6f6e6578697374656e7420746f6b656e456e756d657261626c654d61703a20696e646578206f7574206f6620626f756e64734552433732313a20617070726f76656420717565727920666f72206e6f6e6578697374656e7420746f6b656e4552433732313a207472616e73666572206f6620746f6b656e2074686174206973206e6f74206f776e4552433732314d657461646174613a2055524920717565727920666f72206e6f6e6578697374656e7420746f6b656e4552433732313a20617070726f76616c20746f2063757272656e74206f776e65724552433732313a207472616e736665722063616c6c6572206973206e6f74206f776e6572206e6f7220617070726f7665644f6e6c79207075707079206f776e65722063616e20706572666f726d20746869732066756e6374696f6ea26469706673582212200dbf3f65f027a85819deac67e0ce58b5181e233c293042e37c1557f6b673d11764736f6c63430006020033",
  "source": "// SPDX-License-Identifier: MIT\npragma solidity ^0.6.2;\n\nimport \"@openzeppelin/contracts/token/ERC721/ERC721.sol\";\nimport \"@openzeppelin/contracts/access/Ownable.sol\";\n\nenum Sex { Male, Female }\n\nstruct Dog {\n    string name;\n    uint256 dob;\n    bytes32 microchip;\n    uint256 dam;\n    uint256 sire;\n    Sex sex;\n    uint256 timestamp;\n    address owner;\n}\n\ncontract DogERC721 is ERC721, Ownable {\n    mapping(address => bool) private _writers;\n    mapping(bytes32 => Dog) private _dogs; \n\n    Dog[] public pack;\n\n    string private _name;\n    string private _symbol;\n    mapping(uint256 => string) private _tokenURIs;\n    uint256 private _count;\n\n    bytes4 private constant _INTERFACE_ID_ERC721_METADATA = 0x5b5e139f;\n\n    constructor() public ERC721(\"BEAGLES\", \"DD\") {\n        //_name = \"BEAGLES\";\n        //_symbol = \"DD\";\n        // register the supported interfaces to conform to ERC721 via ERC165\n        _registerInterface(_INTERFACE_ID_ERC721_METADATA);\n    }\n\n    function count() public view returns (uint256) {\n        return _count;\n    }\n\n    function addLitter(uint256 dob, uint256 dam, uint256 sire, uint256 males, uint256 females, address owner) external onlyOwner() {\n        for (uint256 i = 0; i < males; i++) {\n            _addPuppy(\"\", dob, 0x00, Sex.Male, dam, sire, owner);\n        }\n\n        for (uint256 i = 0; i < females; i++) {\n            _addPuppy(\"\", dob, 0x00, Sex.Female, dam, sire, owner);\n        }\n    }\n\n    function addPuppy(string calldata name, uint256 dob, bytes32 microchip, Sex sex, uint256 dam, uint256 sire, address owner) external onlyOwner() {\n        _addPuppy(name, dob, microchip, sex, dam, sire, owner);\n    }\n\n    function _addPuppy(string memory name, uint256 dob, bytes32 microchip, Sex sex, uint256 dam, uint256 sire, address owner) internal {\n        uint256 id = pack.length;\n        pack.push(Dog(name, dob, microchip, dam, sire, sex, now, owner));\n\n        _count += 1;\n\n        emit Transfer(owner, owner, id);\n        emit PuppyAdded(id);\n    }\n\n    function getPuppy(uint256 tokenId) external view returns (string memory, uint256, Sex, uint256, uint256) {\n        return (\n            pack[tokenId].name,\n            pack[tokenId].dob,\n            pack[tokenId].sex,\n            pack[tokenId].dam,\n            pack[tokenId].sire\n        );\n    }\n\n    function removePuppy(uint256 tokenId) external onlyOwner() {\n        delete pack[tokenId];\n        _count -= 1;\n        emit PuppyRemoved(tokenId);\n    }\n        \n    function updateDam(uint256 tokenId, uint256 dam) external onlyDogOwner(tokenId) {\n        pack[tokenId].dam = dam;\n    }\n\n    function updateSire(uint256 tokenId, uint256 sire) external onlyDogOwner(tokenId) {\n        pack[tokenId].sire = sire;\n    }\n\n    function updateTitle(uint256 tokenId, string calldata name) external onlyOwner() {\n        pack[tokenId].name = name;\n    }\n\n    function updateMicrochip(uint256 tokenId, bytes32 microchip) external onlyOwner() {\n        pack[tokenId].microchip = microchip;\n    }\n\n    event PuppyAdded(uint256 tokenId);\n    event PuppyRemoved(uint256 tokenId);\n\n    modifier onlyDogOwner(uint256 tokenId) {\n        require(pack[tokenId].owner == msg.sender, \"Only puppy owner can perform this function\");\n        _;\n    }\n}\n",
  "sourcePath": "/Users/lucascullen/GitHub/dltxio/digitaldogs.github.io/src/contracts/DogERC721.sol",
  "compiler": {
    "name": "solc",
    "version": "0.6.2+commit.bacdbe57.Emscripten.clang"
  },
  "schemaVersion": "3.0.23",
  "updatedAt": "2020-12-18T02:34:19.678Z",
  "networkType": "ethereum",
  "devdoc": {
    "methods": {
      "approve(address,uint256)": {
        "details": "See {IERC721-approve}."
      },
      "balanceOf(address)": {
        "details": "See {IERC721-balanceOf}."
      },
      "baseURI()": {
        "details": "Returns the base URI set via {_setBaseURI}. This will be automatically added as a prefix in {tokenURI} to each token's URI, or to the token ID if no specific URI is set for that token ID."
      },
      "getApproved(uint256)": {
        "details": "See {IERC721-getApproved}."
      },
      "isApprovedForAll(address,address)": {
        "details": "See {IERC721-isApprovedForAll}."
      },
      "name()": {
        "details": "See {IERC721Metadata-name}."
      },
      "owner()": {
        "details": "Returns the address of the current owner."
      },
      "ownerOf(uint256)": {
        "details": "See {IERC721-ownerOf}."
      },
      "renounceOwnership()": {
        "details": "Leaves the contract without owner. It will not be possible to call `onlyOwner` functions anymore. Can only be called by the current owner.     * NOTE: Renouncing ownership will leave the contract without an owner, thereby removing any functionality that is only available to the owner."
      },
      "safeTransferFrom(address,address,uint256)": {
        "details": "See {IERC721-safeTransferFrom}."
      },
      "safeTransferFrom(address,address,uint256,bytes)": {
        "details": "See {IERC721-safeTransferFrom}."
      },
      "setApprovalForAll(address,bool)": {
        "details": "See {IERC721-setApprovalForAll}."
      },
      "supportsInterface(bytes4)": {
        "details": "See {IERC165-supportsInterface}.     * Time complexity O(1), guaranteed to always use less than 30 000 gas."
      },
      "symbol()": {
        "details": "See {IERC721Metadata-symbol}."
      },
      "tokenByIndex(uint256)": {
        "details": "See {IERC721Enumerable-tokenByIndex}."
      },
      "tokenOfOwnerByIndex(address,uint256)": {
        "details": "See {IERC721Enumerable-tokenOfOwnerByIndex}."
      },
      "tokenURI(uint256)": {
        "details": "See {IERC721Metadata-tokenURI}."
      },
      "totalSupply()": {
        "details": "See {IERC721Enumerable-totalSupply}."
      },
      "transferFrom(address,address,uint256)": {
        "details": "See {IERC721-transferFrom}."
      },
      "transferOwnership(address)": {
        "details": "Transfers ownership of the contract to a new account (`newOwner`). Can only be called by the current owner."
      }
    }
  },
  "userdoc": {
    "methods": {}
  }
}