{
  "contractName": "DogERC721",
  "abi": [
    {
      "inputs": [],
      "stateMutability": "nonpayable",
      "type": "constructor"
    },
    {
      "anonymous": false,
      "inputs": [
        {
          "indexed": true,
          "internalType": "address",
          "name": "owner",
          "type": "address"
        },
        {
          "indexed": true,
          "internalType": "address",
          "name": "approved",
          "type": "address"
        },
        {
          "indexed": true,
          "internalType": "uint256",
          "name": "tokenId",
          "type": "uint256"
        }
      ],
      "name": "Approval",
      "type": "event"
    },
    {
      "anonymous": false,
      "inputs": [
        {
          "indexed": true,
          "internalType": "address",
          "name": "owner",
          "type": "address"
        },
        {
          "indexed": true,
          "internalType": "address",
          "name": "operator",
          "type": "address"
        },
        {
          "indexed": false,
          "internalType": "bool",
          "name": "approved",
          "type": "bool"
        }
      ],
      "name": "ApprovalForAll",
      "type": "event"
    },
    {
      "anonymous": false,
      "inputs": [
        {
          "indexed": true,
          "internalType": "address",
          "name": "previousOwner",
          "type": "address"
        },
        {
          "indexed": true,
          "internalType": "address",
          "name": "newOwner",
          "type": "address"
        }
      ],
      "name": "OwnershipTransferred",
      "type": "event"
    },
    {
      "anonymous": false,
      "inputs": [
        {
          "indexed": false,
          "internalType": "uint256",
          "name": "tokenId",
          "type": "uint256"
        }
      ],
      "name": "PuppyAdded",
      "type": "event"
    },
    {
      "anonymous": false,
      "inputs": [
        {
          "indexed": false,
          "internalType": "uint256",
          "name": "tokenId",
          "type": "uint256"
        }
      ],
      "name": "PuppyRemoved",
      "type": "event"
    },
    {
      "anonymous": false,
      "inputs": [
        {
          "indexed": true,
          "internalType": "address",
          "name": "from",
          "type": "address"
        },
        {
          "indexed": true,
          "internalType": "address",
          "name": "to",
          "type": "address"
        },
        {
          "indexed": true,
          "internalType": "uint256",
          "name": "tokenId",
          "type": "uint256"
        }
      ],
      "name": "Transfer",
      "type": "event"
    },
    {
      "inputs": [
        {
          "internalType": "address",
          "name": "to",
          "type": "address"
        },
        {
          "internalType": "uint256",
          "name": "tokenId",
          "type": "uint256"
        }
      ],
      "name": "approve",
      "outputs": [],
      "stateMutability": "nonpayable",
      "type": "function"
    },
    {
      "inputs": [
        {
          "internalType": "address",
          "name": "owner",
          "type": "address"
        }
      ],
      "name": "balanceOf",
      "outputs": [
        {
          "internalType": "uint256",
          "name": "",
          "type": "uint256"
        }
      ],
      "stateMutability": "view",
      "type": "function",
      "constant": true
    },
    {
      "inputs": [],
      "name": "baseURI",
      "outputs": [
        {
          "internalType": "string",
          "name": "",
          "type": "string"
        }
      ],
      "stateMutability": "view",
      "type": "function",
      "constant": true
    },
    {
      "inputs": [
        {
          "internalType": "uint256",
          "name": "tokenId",
          "type": "uint256"
        }
      ],
      "name": "getApproved",
      "outputs": [
        {
          "internalType": "address",
          "name": "",
          "type": "address"
        }
      ],
      "stateMutability": "view",
      "type": "function",
      "constant": true
    },
    {
      "inputs": [
        {
          "internalType": "address",
          "name": "owner",
          "type": "address"
        },
        {
          "internalType": "address",
          "name": "operator",
          "type": "address"
        }
      ],
      "name": "isApprovedForAll",
      "outputs": [
        {
          "internalType": "bool",
          "name": "",
          "type": "bool"
        }
      ],
      "stateMutability": "view",
      "type": "function",
      "constant": true
    },
    {
      "inputs": [],
      "name": "name",
      "outputs": [
        {
          "internalType": "string",
          "name": "",
          "type": "string"
        }
      ],
      "stateMutability": "view",
      "type": "function",
      "constant": true
    },
    {
      "inputs": [],
      "name": "owner",
      "outputs": [
        {
          "internalType": "address",
          "name": "",
          "type": "address"
        }
      ],
      "stateMutability": "view",
      "type": "function",
      "constant": true
    },
    {
      "inputs": [
        {
          "internalType": "uint256",
          "name": "tokenId",
          "type": "uint256"
        }
      ],
      "name": "ownerOf",
      "outputs": [
        {
          "internalType": "address",
          "name": "",
          "type": "address"
        }
      ],
      "stateMutability": "view",
      "type": "function",
      "constant": true
    },
    {
      "inputs": [
        {
          "internalType": "uint256",
          "name": "",
          "type": "uint256"
        }
      ],
      "name": "pack",
      "outputs": [
        {
          "internalType": "string",
          "name": "name",
          "type": "string"
        },
        {
          "internalType": "uint256",
          "name": "dob",
          "type": "uint256"
        },
        {
          "internalType": "bytes32",
          "name": "microchip",
          "type": "bytes32"
        },
        {
          "internalType": "uint256",
          "name": "dam",
          "type": "uint256"
        },
        {
          "internalType": "uint256",
          "name": "sire",
          "type": "uint256"
        },
        {
          "internalType": "enum Sex",
          "name": "sex",
          "type": "uint8"
        },
        {
          "internalType": "uint256",
          "name": "timestamp",
          "type": "uint256"
        }
      ],
      "stateMutability": "view",
      "type": "function",
      "constant": true
    },
    {
      "inputs": [],
      "name": "renounceOwnership",
      "outputs": [],
      "stateMutability": "nonpayable",
      "type": "function"
    },
    {
      "inputs": [
        {
          "internalType": "address",
          "name": "from",
          "type": "address"
        },
        {
          "internalType": "address",
          "name": "to",
          "type": "address"
        },
        {
          "internalType": "uint256",
          "name": "tokenId",
          "type": "uint256"
        }
      ],
      "name": "safeTransferFrom",
      "outputs": [],
      "stateMutability": "nonpayable",
      "type": "function"
    },
    {
      "inputs": [
        {
          "internalType": "address",
          "name": "from",
          "type": "address"
        },
        {
          "internalType": "address",
          "name": "to",
          "type": "address"
        },
        {
          "internalType": "uint256",
          "name": "tokenId",
          "type": "uint256"
        },
        {
          "internalType": "bytes",
          "name": "_data",
          "type": "bytes"
        }
      ],
      "name": "safeTransferFrom",
      "outputs": [],
      "stateMutability": "nonpayable",
      "type": "function"
    },
    {
      "inputs": [
        {
          "internalType": "address",
          "name": "operator",
          "type": "address"
        },
        {
          "internalType": "bool",
          "name": "approved",
          "type": "bool"
        }
      ],
      "name": "setApprovalForAll",
      "outputs": [],
      "stateMutability": "nonpayable",
      "type": "function"
    },
    {
      "inputs": [
        {
          "internalType": "bytes4",
          "name": "interfaceId",
          "type": "bytes4"
        }
      ],
      "name": "supportsInterface",
      "outputs": [
        {
          "internalType": "bool",
          "name": "",
          "type": "bool"
        }
      ],
      "stateMutability": "view",
      "type": "function",
      "constant": true
    },
    {
      "inputs": [],
      "name": "symbol",
      "outputs": [
        {
          "internalType": "string",
          "name": "",
          "type": "string"
        }
      ],
      "stateMutability": "view",
      "type": "function",
      "constant": true
    },
    {
      "inputs": [
        {
          "internalType": "uint256",
          "name": "index",
          "type": "uint256"
        }
      ],
      "name": "tokenByIndex",
      "outputs": [
        {
          "internalType": "uint256",
          "name": "",
          "type": "uint256"
        }
      ],
      "stateMutability": "view",
      "type": "function",
      "constant": true
    },
    {
      "inputs": [
        {
          "internalType": "address",
          "name": "owner",
          "type": "address"
        },
        {
          "internalType": "uint256",
          "name": "index",
          "type": "uint256"
        }
      ],
      "name": "tokenOfOwnerByIndex",
      "outputs": [
        {
          "internalType": "uint256",
          "name": "",
          "type": "uint256"
        }
      ],
      "stateMutability": "view",
      "type": "function",
      "constant": true
    },
    {
      "inputs": [
        {
          "internalType": "uint256",
          "name": "tokenId",
          "type": "uint256"
        }
      ],
      "name": "tokenURI",
      "outputs": [
        {
          "internalType": "string",
          "name": "",
          "type": "string"
        }
      ],
      "stateMutability": "view",
      "type": "function",
      "constant": true
    },
    {
      "inputs": [],
      "name": "totalSupply",
      "outputs": [
        {
          "internalType": "uint256",
          "name": "",
          "type": "uint256"
        }
      ],
      "stateMutability": "view",
      "type": "function",
      "constant": true
    },
    {
      "inputs": [
        {
          "internalType": "address",
          "name": "from",
          "type": "address"
        },
        {
          "internalType": "address",
          "name": "to",
          "type": "address"
        },
        {
          "internalType": "uint256",
          "name": "tokenId",
          "type": "uint256"
        }
      ],
      "name": "transferFrom",
      "outputs": [],
      "stateMutability": "nonpayable",
      "type": "function"
    },
    {
      "inputs": [
        {
          "internalType": "address",
          "name": "newOwner",
          "type": "address"
        }
      ],
      "name": "transferOwnership",
      "outputs": [],
      "stateMutability": "nonpayable",
      "type": "function"
    },
    {
      "inputs": [],
      "name": "count",
      "outputs": [
        {
          "internalType": "uint256",
          "name": "",
          "type": "uint256"
        }
      ],
      "stateMutability": "view",
      "type": "function",
      "constant": true
    },
    {
      "inputs": [
        {
          "internalType": "uint256",
          "name": "dob",
          "type": "uint256"
        },
        {
          "internalType": "uint256",
          "name": "dam",
          "type": "uint256"
        },
        {
          "internalType": "uint256",
          "name": "sire",
          "type": "uint256"
        },
        {
          "internalType": "uint256",
          "name": "numberOfMales",
          "type": "uint256"
        },
        {
          "internalType": "uint256",
          "name": "numberOfFemales",
          "type": "uint256"
        },
        {
          "internalType": "address",
          "name": "owner",
          "type": "address"
        }
      ],
      "name": "addLitter",
      "outputs": [],
      "stateMutability": "nonpayable",
      "type": "function"
    },
    {
      "inputs": [
        {
          "internalType": "string",
          "name": "name",
          "type": "string"
        },
        {
          "internalType": "uint256",
          "name": "dob",
          "type": "uint256"
        },
        {
          "internalType": "bytes32",
          "name": "microchip",
          "type": "bytes32"
        },
        {
          "internalType": "enum Sex",
          "name": "sex",
          "type": "uint8"
        },
        {
          "internalType": "uint256",
          "name": "dam",
          "type": "uint256"
        },
        {
          "internalType": "uint256",
          "name": "sire",
          "type": "uint256"
        },
        {
          "internalType": "address",
          "name": "owner",
          "type": "address"
        }
      ],
      "name": "addPuppy",
      "outputs": [],
      "stateMutability": "nonpayable",
      "type": "function"
    },
    {
      "inputs": [
        {
          "internalType": "uint256",
          "name": "tokenId",
          "type": "uint256"
        }
      ],
      "name": "getPuppy",
      "outputs": [
        {
          "internalType": "string",
          "name": "",
          "type": "string"
        },
        {
          "internalType": "uint256",
          "name": "",
          "type": "uint256"
        },
        {
          "internalType": "enum Sex",
          "name": "",
          "type": "uint8"
        },
        {
          "internalType": "uint256",
          "name": "",
          "type": "uint256"
        },
        {
          "internalType": "uint256",
          "name": "",
          "type": "uint256"
        }
      ],
      "stateMutability": "view",
      "type": "function",
      "constant": true
    },
    {
      "inputs": [
        {
          "internalType": "uint256",
          "name": "tokenId",
          "type": "uint256"
        }
      ],
      "name": "removePuppy",
      "outputs": [],
      "stateMutability": "nonpayable",
      "type": "function"
    },
    {
      "inputs": [
        {
          "internalType": "uint256",
          "name": "tokenId",
          "type": "uint256"
        },
        {
          "internalType": "string",
          "name": "name",
          "type": "string"
        }
      ],
      "name": "updateTitle",
      "outputs": [],
      "stateMutability": "nonpayable",
      "type": "function"
    },
    {
      "inputs": [
        {
          "internalType": "uint256",
          "name": "tokenId",
          "type": "uint256"
        },
        {
          "internalType": "bytes32",
          "name": "microchip",
          "type": "bytes32"
        }
      ],
      "name": "updateMicrochip",
      "outputs": [],
      "stateMutability": "nonpayable",
      "type": "function"
    }
  ],
  "bytecode": "0x60806040523480156200001157600080fd5b506040518060400160405280600781526020017f424541474c4553000000000000000000000000000000000000000000000000008152506040518060400160405280600281526020017f4444000000000000000000000000000000000000000000000000000000000000815250620000966301ffc9a760e01b620001c960201b60201c565b8160069080519060200190620000ae929190620002da565b508060079080519060200190620000c7929190620002da565b50620000e06380ac58cd60e01b620001c960201b60201c565b620000f8635b5e139f60e01b620001c960201b60201c565b6200011063780e9d6360e01b620001c960201b60201c565b5050600062000124620002d260201b60201c565b905080600a60006101000a81548173ffffffffffffffffffffffffffffffffffffffff021916908373ffffffffffffffffffffffffffffffffffffffff1602179055508073ffffffffffffffffffffffffffffffffffffffff16600073ffffffffffffffffffffffffffffffffffffffff167f8be0079c531659141344cd1fd0a4f28419497f9722a3daafe3b4186f6b6457e060405160405180910390a35062000389565b63ffffffff60e01b817bffffffffffffffffffffffffffffffffffffffffffffffffffffffff1916141562000266576040517f08c379a000000000000000000000000000000000000000000000000000000000815260040180806020018281038252601c8152602001807f4552433136353a20696e76616c696420696e746572666163652069640000000081525060200191505060405180910390fd5b6001600080837bffffffffffffffffffffffffffffffffffffffffffffffffffffffff19167bffffffffffffffffffffffffffffffffffffffffffffffffffffffff1916815260200190815260200160002060006101000a81548160ff02191690831515021790555050565b600033905090565b828054600181600116156101000203166002900490600052602060002090601f016020900481019282601f106200031d57805160ff19168380011785556200034e565b828001600101855582156200034e579182015b828111156200034d57825182559160200191906001019062000330565b5b5090506200035d919062000361565b5090565b6200038691905b808211156200038257600081600090555060010162000368565b5090565b90565b613b4c80620003996000396000f3fe608060405234801561001057600080fd5b50600436106101c45760003560e01c80636352211e116100f9578063a22cb46511610097578063c87b56dd11610071578063c87b56dd14610baa578063e985e9c514610c51578063f2fde38b14610ccd578063f36c83f014610d11576101c4565b8063a22cb46514610a1d578063b88d4fde14610a6d578063bccf158c14610b72576101c4565b806370a08231116100d357806370a08231146108ee578063715018a6146109465780638da5cb5b1461095057806395d89b411461099a576101c4565b80636352211e1461071e5780636c0360eb1461078c5780636ea425551461080f576101c4565b80632ef848cf116101665780634f6ccce7116101405780634f6ccce71461055d5780635786ead21461059f5780635cbd35f51461062257806360023628146106f0576101c4565b80632ef848cf146104175780632f745c591461048d57806342842e0e146104ef576101c4565b8063081812fc116101a2578063081812fc146102cf578063095ea7b31461033d57806318160ddd1461038b57806323b872dd146103a9576101c4565b806301ffc9a7146101c957806306661abd1461022e57806306fdde031461024c575b600080fd5b610214600480360360208110156101df57600080fd5b8101908080357bffffffffffffffffffffffffffffffffffffffffffffffffffffffff19169060200190929190505050610de2565b604051808215151515815260200191505060405180910390f35b610236610e49565b6040518082815260200191505060405180910390f35b610254610e53565b6040518080602001828103825283818151815260200191508051906020019080838360005b83811015610294578082015181840152602081019050610279565b50505050905090810190601f1680156102c15780820380516001836020036101000a031916815260200191505b509250505060405180910390f35b6102fb600480360360208110156102e557600080fd5b8101908080359060200190929190505050610ef5565b604051808273ffffffffffffffffffffffffffffffffffffffff1673ffffffffffffffffffffffffffffffffffffffff16815260200191505060405180910390f35b6103896004803603604081101561035357600080fd5b81019080803573ffffffffffffffffffffffffffffffffffffffff16906020019092919080359060200190929190505050610f90565b005b6103936110d4565b6040518082815260200191505060405180910390f35b610415600480360360608110156103bf57600080fd5b81019080803573ffffffffffffffffffffffffffffffffffffffff169060200190929190803573ffffffffffffffffffffffffffffffffffffffff169060200190929190803590602001909291905050506110e5565b005b61048b600480360360c081101561042d57600080fd5b810190808035906020019092919080359060200190929190803590602001909291908035906020019092919080359060200190929190803573ffffffffffffffffffffffffffffffffffffffff16906020019092919050505061115b565b005b6104d9600480360360408110156104a357600080fd5b81019080803573ffffffffffffffffffffffffffffffffffffffff169060200190929190803590602001909291905050506112a9565b6040518082815260200191505060405180910390f35b61055b6004803603606081101561050557600080fd5b81019080803573ffffffffffffffffffffffffffffffffffffffff169060200190929190803573ffffffffffffffffffffffffffffffffffffffff16906020019092919080359060200190929190505050611304565b005b6105896004803603602081101561057357600080fd5b8101908080359060200190929190505050611324565b6040518082815260200191505060405180910390f35b610620600480360360408110156105b557600080fd5b8101908080359060200190929190803590602001906401000000008111156105dc57600080fd5b8201836020820111156105ee57600080fd5b8035906020019184600183028401116401000000008311171561061057600080fd5b9091929391929390505050611347565b005b6106ee600480360360e081101561063857600080fd5b810190808035906020019064010000000081111561065557600080fd5b82018360208201111561066757600080fd5b8035906020019184600183028401116401000000008311171561068957600080fd5b90919293919293908035906020019092919080359060200190929190803560ff1690602001909291908035906020019092919080359060200190929190803573ffffffffffffffffffffffffffffffffffffffff169060200190929190505050611444565b005b61071c6004803603602081101561070657600080fd5b810190808035906020019092919050505061156b565b005b61074a6004803603602081101561073457600080fd5b81019080803590602001909291905050506116d9565b604051808273ffffffffffffffffffffffffffffffffffffffff1673ffffffffffffffffffffffffffffffffffffffff16815260200191505060405180910390f35b610794611710565b6040518080602001828103825283818151815260200191508051906020019080838360005b838110156107d45780820151818401526020810190506107b9565b50505050905090810190601f1680156108015780820380516001836020036101000a031916815260200191505b509250505060405180910390f35b61083b6004803603602081101561082557600080fd5b81019080803590602001909291905050506117b2565b604051808060200188815260200187815260200186815260200185815260200184600181111561086757fe5b60ff168152602001838152602001828103825289818151815260200191508051906020019080838360005b838110156108ad578082015181840152602081019050610892565b50505050905090810190601f1680156108da5780820380516001836020036101000a031916815260200191505b509850505050505050505060405180910390f35b6109306004803603602081101561090457600080fd5b81019080803573ffffffffffffffffffffffffffffffffffffffff1690602001909291905050506118a6565b6040518082815260200191505060405180910390f35b61094e61197b565b005b610958611b06565b604051808273ffffffffffffffffffffffffffffffffffffffff1673ffffffffffffffffffffffffffffffffffffffff16815260200191505060405180910390f35b6109a2611b30565b6040518080602001828103825283818151815260200191508051906020019080838360005b838110156109e25780820151818401526020810190506109c7565b50505050905090810190601f168015610a0f5780820380516001836020036101000a031916815260200191505b509250505060405180910390f35b610a6b60048036036040811015610a3357600080fd5b81019080803573ffffffffffffffffffffffffffffffffffffffff169060200190929190803515159060200190929190505050611bd2565b005b610b7060048036036080811015610a8357600080fd5b81019080803573ffffffffffffffffffffffffffffffffffffffff169060200190929190803573ffffffffffffffffffffffffffffffffffffffff1690602001909291908035906020019092919080359060200190640100000000811115610aea57600080fd5b820183602082011115610afc57600080fd5b80359060200191846001830284011164010000000083111715610b1e57600080fd5b91908080601f016020809104026020016040519081016040528093929190818152602001838380828437600081840152601f19601f820116905080830192505050505050509192919290505050611d8a565b005b610ba860048036036040811015610b8857600080fd5b810190808035906020019092919080359060200190929190505050611e02565b005b610bd660048036036020811015610bc057600080fd5b8101908080359060200190929190505050611ef3565b6040518080602001828103825283818151815260200191508051906020019080838360005b83811015610c16578082015181840152602081019050610bfb565b50505050905090810190601f168015610c435780820380516001836020036101000a031916815260200191505b509250505060405180910390f35b610cb360048036036040811015610c6757600080fd5b81019080803573ffffffffffffffffffffffffffffffffffffffff169060200190929190803573ffffffffffffffffffffffffffffffffffffffff1690602001909291905050506121dc565b604051808215151515815260200191505060405180910390f35b610d0f60048036036020811015610ce357600080fd5b81019080803573ffffffffffffffffffffffffffffffffffffffff169060200190929190505050612270565b005b610d3d60048036036020811015610d2757600080fd5b8101908080359060200190929190505050612480565b6040518080602001868152602001856001811115610d5757fe5b60ff168152602001848152602001838152602001828103825287818151815260200191508051906020019080838360005b83811015610da3578082015181840152602081019050610d88565b50505050905090810190601f168015610dd05780820380516001836020036101000a031916815260200191505b50965050505050505060405180910390f35b6000806000837bffffffffffffffffffffffffffffffffffffffffffffffffffffffff19167bffffffffffffffffffffffffffffffffffffffffffffffffffffffff1916815260200190815260200160002060009054906101000a900460ff169050919050565b6000601154905090565b606060068054600181600116156101000203166002900480601f016020809104026020016040519081016040528092919081815260200182805460018160011615610100020316600290048015610eeb5780601f10610ec057610100808354040283529160200191610eeb565b820191906000526020600020905b815481529060010190602001808311610ece57829003601f168201915b5050505050905090565b6000610f00826125de565b610f55576040517f08c379a000000000000000000000000000000000000000000000000000000000815260040180806020018281038252602c815260200180613a41602c913960400191505060405180910390fd5b6004600083815260200190815260200160002060009054906101000a900473ffffffffffffffffffffffffffffffffffffffff169050919050565b6000610f9b826116d9565b90508073ffffffffffffffffffffffffffffffffffffffff168373ffffffffffffffffffffffffffffffffffffffff161415611022576040517f08c379a0000000000000000000000000000000000000000000000000000000008152600401808060200182810382526021815260200180613ac56021913960400191505060405180910390fd5b8073ffffffffffffffffffffffffffffffffffffffff166110416125fb565b73ffffffffffffffffffffffffffffffffffffffff161480611070575061106f8161106a6125fb565b6121dc565b5b6110c5576040517f08c379a00000000000000000000000000000000000000000000000000000000081526004018080602001828103825260388152602001806139946038913960400191505060405180910390fd5b6110cf8383612603565b505050565b60006110e060026126bc565b905090565b6110f66110f06125fb565b826126d1565b61114b576040517f08c379a0000000000000000000000000000000000000000000000000000000008152600401808060200182810382526031815260200180613ae66031913960400191505060405180910390fd5b6111568383836127c5565b505050565b6111636125fb565b73ffffffffffffffffffffffffffffffffffffffff16600a60009054906101000a900473ffffffffffffffffffffffffffffffffffffffff1673ffffffffffffffffffffffffffffffffffffffff1614611225576040517f08c379a00000000000000000000000000000000000000000000000000000000081526004018080602001828103825260208152602001807f4f776e61626c653a2063616c6c6572206973206e6f7420746865206f776e657281525060200191505060405180910390fd5b60008090505b838110156112625761125560405180602001604052806000815250886000801b60008a8a88612a08565b808060010191505061122b565b5060008090505b828110156112a05761129360405180602001604052806000815250886000801b60018a8a88612a08565b8080600101915050611269565b50505050505050565b60006112fc82600160008673ffffffffffffffffffffffffffffffffffffffff1673ffffffffffffffffffffffffffffffffffffffff168152602001908152602001600020612b9190919063ffffffff16565b905092915050565b61131f83838360405180602001604052806000815250611d8a565b505050565b60008061133b836002612bab90919063ffffffff16565b50905080915050919050565b61134f6125fb565b73ffffffffffffffffffffffffffffffffffffffff16600a60009054906101000a900473ffffffffffffffffffffffffffffffffffffffff1673ffffffffffffffffffffffffffffffffffffffff1614611411576040517f08c379a00000000000000000000000000000000000000000000000000000000081526004018080602001828103825260208152602001807f4f776e61626c653a2063616c6c6572206973206e6f7420746865206f776e657281525060200191505060405180910390fd5b8181600d858154811061142057fe5b9060005260206000209060070201600001919061143e92919061375c565b50505050565b61144c6125fb565b73ffffffffffffffffffffffffffffffffffffffff16600a60009054906101000a900473ffffffffffffffffffffffffffffffffffffffff1673ffffffffffffffffffffffffffffffffffffffff161461150e576040517f08c379a00000000000000000000000000000000000000000000000000000000081526004018080602001828103825260208152602001807f4f776e61626c653a2063616c6c6572206973206e6f7420746865206f776e657281525060200191505060405180910390fd5b61156188888080601f016020809104026020016040519081016040528093929190818152602001838380828437600081840152601f19601f82011690508083019250505050505050878787878787612a08565b5050505050505050565b6115736125fb565b73ffffffffffffffffffffffffffffffffffffffff16600a60009054906101000a900473ffffffffffffffffffffffffffffffffffffffff1673ffffffffffffffffffffffffffffffffffffffff1614611635576040517f08c379a00000000000000000000000000000000000000000000000000000000081526004018080602001828103825260208152602001807f4f776e61626c653a2063616c6c6572206973206e6f7420746865206f776e657281525060200191505060405180910390fd5b600d818154811061164257fe5b90600052602060002090600702016000808201600061166191906137dc565b60018201600090556002820160009055600382016000905560048201600090556005820160006101000a81549060ff0219169055600682016000905550507f4aea85f6cb1f012def055dd570b2f19414e39ee70238b57777ad09eaf335dbcf816040518082815260200191505060405180910390a150565b6000611709826040518060600160405280602981526020016139f6602991396002612bda9092919063ffffffff16565b9050919050565b606060098054600181600116156101000203166002900480601f0160208091040260200160405190810160405280929190818152602001828054600181600116156101000203166002900480156117a85780601f1061177d576101008083540402835291602001916117a8565b820191906000526020600020905b81548152906001019060200180831161178b57829003601f168201915b5050505050905090565b600d81815481106117bf57fe5b9060005260206000209060070201600091509050806000018054600181600116156101000203166002900480601f01602080910402602001604051908101604052809291908181526020018280546001816001161561010002031660029004801561186b5780601f106118405761010080835404028352916020019161186b565b820191906000526020600020905b81548152906001019060200180831161184e57829003601f168201915b5050505050908060010154908060020154908060030154908060040154908060050160009054906101000a900460ff16908060060154905087565b60008073ffffffffffffffffffffffffffffffffffffffff168273ffffffffffffffffffffffffffffffffffffffff16141561192d576040517f08c379a000000000000000000000000000000000000000000000000000000000815260040180806020018281038252602a8152602001806139cc602a913960400191505060405180910390fd5b611974600160008473ffffffffffffffffffffffffffffffffffffffff1673ffffffffffffffffffffffffffffffffffffffff168152602001908152602001600020612bf9565b9050919050565b6119836125fb565b73ffffffffffffffffffffffffffffffffffffffff16600a60009054906101000a900473ffffffffffffffffffffffffffffffffffffffff1673ffffffffffffffffffffffffffffffffffffffff1614611a45576040517f08c379a00000000000000000000000000000000000000000000000000000000081526004018080602001828103825260208152602001807f4f776e61626c653a2063616c6c6572206973206e6f7420746865206f776e657281525060200191505060405180910390fd5b600073ffffffffffffffffffffffffffffffffffffffff16600a60009054906101000a900473ffffffffffffffffffffffffffffffffffffffff1673ffffffffffffffffffffffffffffffffffffffff167f8be0079c531659141344cd1fd0a4f28419497f9722a3daafe3b4186f6b6457e060405160405180910390a36000600a60006101000a81548173ffffffffffffffffffffffffffffffffffffffff021916908373ffffffffffffffffffffffffffffffffffffffff160217905550565b6000600a60009054906101000a900473ffffffffffffffffffffffffffffffffffffffff16905090565b606060078054600181600116156101000203166002900480601f016020809104026020016040519081016040528092919081815260200182805460018160011615610100020316600290048015611bc85780601f10611b9d57610100808354040283529160200191611bc8565b820191906000526020600020905b815481529060010190602001808311611bab57829003601f168201915b5050505050905090565b611bda6125fb565b73ffffffffffffffffffffffffffffffffffffffff168273ffffffffffffffffffffffffffffffffffffffff161415611c7b576040517f08c379a00000000000000000000000000000000000000000000000000000000081526004018080602001828103825260198152602001807f4552433732313a20617070726f766520746f2063616c6c65720000000000000081525060200191505060405180910390fd5b8060056000611c886125fb565b73ffffffffffffffffffffffffffffffffffffffff1673ffffffffffffffffffffffffffffffffffffffff16815260200190815260200160002060008473ffffffffffffffffffffffffffffffffffffffff1673ffffffffffffffffffffffffffffffffffffffff16815260200190815260200160002060006101000a81548160ff0219169083151502179055508173ffffffffffffffffffffffffffffffffffffffff16611d356125fb565b73ffffffffffffffffffffffffffffffffffffffff167f17307eab39ab6107e8899845ad3d59bd9653f200f220920489ca2b5937696c3183604051808215151515815260200191505060405180910390a35050565b611d9b611d956125fb565b836126d1565b611df0576040517f08c379a0000000000000000000000000000000000000000000000000000000008152600401808060200182810382526031815260200180613ae66031913960400191505060405180910390fd5b611dfc84848484612c0e565b50505050565b611e0a6125fb565b73ffffffffffffffffffffffffffffffffffffffff16600a60009054906101000a900473ffffffffffffffffffffffffffffffffffffffff1673ffffffffffffffffffffffffffffffffffffffff1614611ecc576040517f08c379a00000000000000000000000000000000000000000000000000000000081526004018080602001828103825260208152602001807f4f776e61626c653a2063616c6c6572206973206e6f7420746865206f776e657281525060200191505060405180910390fd5b80600d8381548110611eda57fe5b9060005260206000209060070201600201819055505050565b6060611efe826125de565b611f53576040517f08c379a000000000000000000000000000000000000000000000000000000000815260040180806020018281038252602f815260200180613a96602f913960400191505060405180910390fd5b6060600860008481526020019081526020016000208054600181600116156101000203166002900480601f016020809104026020016040519081016040528092919081815260200182805460018160011615610100020316600290048015611ffc5780601f10611fd157610100808354040283529160200191611ffc565b820191906000526020600020905b815481529060010190602001808311611fdf57829003601f168201915b5050505050905060006009805460018160011615610100020316600290049050141561202b57809150506121d7565b6000815111156121045760098160405160200180838054600181600116156101000203166002900480156120965780601f10612074576101008083540402835291820191612096565b820191906000526020600020905b815481529060010190602001808311612082575b505082805190602001908083835b602083106120c757805182526020820191506020810190506020830392506120a4565b6001836020036101000a038019825116818451168082178552505050505050905001925050506040516020818303038152906040529150506121d7565b600961210f84612c80565b604051602001808380546001816001161561010002031660029004801561216d5780601f1061214b57610100808354040283529182019161216d565b820191906000526020600020905b815481529060010190602001808311612159575b505082805190602001908083835b6020831061219e578051825260208201915060208101905060208303925061217b565b6001836020036101000a038019825116818451168082178552505050505050905001925050506040516020818303038152906040529150505b919050565b6000600560008473ffffffffffffffffffffffffffffffffffffffff1673ffffffffffffffffffffffffffffffffffffffff16815260200190815260200160002060008373ffffffffffffffffffffffffffffffffffffffff1673ffffffffffffffffffffffffffffffffffffffff16815260200190815260200160002060009054906101000a900460ff16905092915050565b6122786125fb565b73ffffffffffffffffffffffffffffffffffffffff16600a60009054906101000a900473ffffffffffffffffffffffffffffffffffffffff1673ffffffffffffffffffffffffffffffffffffffff161461233a576040517f08c379a00000000000000000000000000000000000000000000000000000000081526004018080602001828103825260208152602001807f4f776e61626c653a2063616c6c6572206973206e6f7420746865206f776e657281525060200191505060405180910390fd5b600073ffffffffffffffffffffffffffffffffffffffff168173ffffffffffffffffffffffffffffffffffffffff1614156123c0576040517f08c379a000000000000000000000000000000000000000000000000000000000815260040180806020018281038252602681526020018061391e6026913960400191505060405180910390fd5b8073ffffffffffffffffffffffffffffffffffffffff16600a60009054906101000a900473ffffffffffffffffffffffffffffffffffffffff1673ffffffffffffffffffffffffffffffffffffffff167f8be0079c531659141344cd1fd0a4f28419497f9722a3daafe3b4186f6b6457e060405160405180910390a380600a60006101000a81548173ffffffffffffffffffffffffffffffffffffffff021916908373ffffffffffffffffffffffffffffffffffffffff16021790555050565b6060600080600080600d868154811061249557fe5b9060005260206000209060070201600001600d87815481106124b357fe5b906000526020600020906007020160010154600d88815481106124d257fe5b906000526020600020906007020160050160009054906101000a900460ff16600d89815481106124fe57fe5b906000526020600020906007020160030154600d8a8154811061251d57fe5b906000526020600020906007020160040154848054600181600116156101000203166002900480601f0160208091040260200160405190810160405280929190818152602001828054600181600116156101000203166002900480156125c45780601f10612599576101008083540402835291602001916125c4565b820191906000526020600020905b8154815290600101906020018083116125a757829003601f168201915b505050505094509450945094509450945091939590929450565b60006125f4826002612db090919063ffffffff16565b9050919050565b600033905090565b816004600083815260200190815260200160002060006101000a81548173ffffffffffffffffffffffffffffffffffffffff021916908373ffffffffffffffffffffffffffffffffffffffff160217905550808273ffffffffffffffffffffffffffffffffffffffff16612676836116d9565b73ffffffffffffffffffffffffffffffffffffffff167f8c5be1e5ebec7d5bd14f71427d1e84f3dd0314c0f7b2291e5b200ac8c7c3b92560405160405180910390a45050565b60006126ca82600001612dca565b9050919050565b60006126dc826125de565b612731576040517f08c379a000000000000000000000000000000000000000000000000000000000815260040180806020018281038252602c815260200180613968602c913960400191505060405180910390fd5b600061273c836116d9565b90508073ffffffffffffffffffffffffffffffffffffffff168473ffffffffffffffffffffffffffffffffffffffff1614806127ab57508373ffffffffffffffffffffffffffffffffffffffff1661279384610ef5565b73ffffffffffffffffffffffffffffffffffffffff16145b806127bc57506127bb81856121dc565b5b91505092915050565b8273ffffffffffffffffffffffffffffffffffffffff166127e5826116d9565b73ffffffffffffffffffffffffffffffffffffffff1614612851576040517f08c379a0000000000000000000000000000000000000000000000000000000008152600401808060200182810382526029815260200180613a6d6029913960400191505060405180910390fd5b600073ffffffffffffffffffffffffffffffffffffffff168273ffffffffffffffffffffffffffffffffffffffff1614156128d7576040517f08c379a00000000000000000000000000000000000000000000000000000000081526004018080602001828103825260248152602001806139446024913960400191505060405180910390fd5b6128e2838383612ddb565b6128ed600082612603565b61293e81600160008673ffffffffffffffffffffffffffffffffffffffff1673ffffffffffffffffffffffffffffffffffffffff168152602001908152602001600020612de090919063ffffffff16565b5061299081600160008573ffffffffffffffffffffffffffffffffffffffff1673ffffffffffffffffffffffffffffffffffffffff168152602001908152602001600020612dfa90919063ffffffff16565b506129a781836002612e149092919063ffffffff16565b50808273ffffffffffffffffffffffffffffffffffffffff168473ffffffffffffffffffffffffffffffffffffffff167fddf252ad1be2c89b69c2b068fc378daa952ba7f163c4a11628f55a4df523b3ef60405160405180910390a4505050565b6000600d805490509050600d6040518060e001604052808a8152602001898152602001888152602001868152602001858152602001876001811115612a4957fe5b81526020014281525090806001815401808255809150506001900390600052602060002090600702016000909190919091506000820151816000019080519060200190612a97929190613824565b506020820151816001015560408201518160020155606082015181600301556080820151816004015560a08201518160050160006101000a81548160ff02191690836001811115612ae457fe5b021790555060c082015181600601555050808273ffffffffffffffffffffffffffffffffffffffff168373ffffffffffffffffffffffffffffffffffffffff167fddf252ad1be2c89b69c2b068fc378daa952ba7f163c4a11628f55a4df523b3ef60405160405180910390a47f98f6e57aa4755baead866c21fe3f1a1bdee97be51e462ff15de2395c4fdc78d3816040518082815260200191505060405180910390a15050505050505050565b6000612ba08360000183612e49565b60001c905092915050565b600080600080612bbe8660000186612ecc565b915091508160001c8160001c8090509350935050509250929050565b6000612bed846000018460001b84612f65565b60001c90509392505050565b6000612c078260000161305b565b9050919050565b612c198484846127c5565b612c258484848461306c565b612c7a576040517f08c379a00000000000000000000000000000000000000000000000000000000081526004018080602001828103825260328152602001806138ec6032913960400191505060405180910390fd5b50505050565b60606000821415612cc8576040518060400160405280600181526020017f30000000000000000000000000000000000000000000000000000000000000008152509050612dab565b600082905060005b60008214612cf2578080600101915050600a8281612cea57fe5b049150612cd0565b6060816040519080825280601f01601f191660200182016040528015612d275781602001600182028038833980820191505090505b50905060006001830390508593505b60008414612da357600a8481612d4857fe5b0660300160f81b82828060019003935081518110612d6257fe5b60200101907effffffffffffffffffffffffffffffffffffffffffffffffffffffffffffff1916908160001a905350600a8481612d9b57fe5b049350612d36565b819450505050505b919050565b6000612dc2836000018360001b6132b1565b905092915050565b600081600001805490509050919050565b505050565b6000612df2836000018360001b6132d4565b905092915050565b6000612e0c836000018360001b6133bc565b905092915050565b6000612e40846000018460001b8473ffffffffffffffffffffffffffffffffffffffff1660001b61342c565b90509392505050565b600081836000018054905011612eaa576040517f08c379a00000000000000000000000000000000000000000000000000000000081526004018080602001828103825260228152602001806138ca6022913960400191505060405180910390fd5b826000018281548110612eb957fe5b9060005260206000200154905092915050565b60008082846000018054905011612f2e576040517f08c379a0000000000000000000000000000000000000000000000000000000008152600401808060200182810382526022815260200180613a1f6022913960400191505060405180910390fd5b6000846000018481548110612f3f57fe5b906000526020600020906002020190508060000154816001015492509250509250929050565b6000808460010160008581526020019081526020016000205490506000811415839061302c576040517f08c379a00000000000000000000000000000000000000000000000000000000081526004018080602001828103825283818151815260200191508051906020019080838360005b83811015612ff1578082015181840152602081019050612fd6565b50505050905090810190601f16801561301e5780820380516001836020036101000a031916815260200191505b509250505060405180910390fd5b5084600001600182038154811061303f57fe5b9060005260206000209060020201600101549150509392505050565b600081600001805490509050919050565b600061308d8473ffffffffffffffffffffffffffffffffffffffff16613508565b61309a57600190506132a9565b606061323063150b7a0260e01b6130af6125fb565b888787604051602401808573ffffffffffffffffffffffffffffffffffffffff1673ffffffffffffffffffffffffffffffffffffffff1681526020018473ffffffffffffffffffffffffffffffffffffffff1673ffffffffffffffffffffffffffffffffffffffff16815260200183815260200180602001828103825283818151815260200191508051906020019080838360005b8381101561315f578082015181840152602081019050613144565b50505050905090810190601f16801561318c5780820380516001836020036101000a031916815260200191505b5095505050505050604051602081830303815290604052907bffffffffffffffffffffffffffffffffffffffffffffffffffffffff19166020820180517bffffffffffffffffffffffffffffffffffffffffffffffffffffffff83818316178352505050506040518060600160405280603281526020016138ec603291398773ffffffffffffffffffffffffffffffffffffffff1661351b9092919063ffffffff16565b9050600081806020019051602081101561324957600080fd5b8101908080519060200190929190505050905063150b7a0260e01b7bffffffffffffffffffffffffffffffffffffffffffffffffffffffff1916817bffffffffffffffffffffffffffffffffffffffffffffffffffffffff191614925050505b949350505050565b600080836001016000848152602001908152602001600020541415905092915050565b600080836001016000848152602001908152602001600020549050600081146133b0576000600182039050600060018660000180549050039050600086600001828154811061331f57fe5b906000526020600020015490508087600001848154811061333c57fe5b906000526020600020018190555060018301876001016000838152602001908152602001600020819055508660000180548061337457fe5b600190038181906000526020600020016000905590558660010160008781526020019081526020016000206000905560019450505050506133b6565b60009150505b92915050565b60006133c88383613533565b613421578260000182908060018154018082558091505060019003906000526020600020016000909190919091505582600001805490508360010160008481526020019081526020016000208190555060019050613426565b600090505b92915050565b60008084600101600085815260200190815260200160002054905060008114156134d357846000016040518060400160405280868152602001858152509080600181540180825580915050600190039060005260206000209060020201600090919091909150600082015181600001556020820151816001015550508460000180549050856001016000868152602001908152602001600020819055506001915050613501565b828560000160018303815481106134e657fe5b90600052602060002090600202016001018190555060009150505b9392505050565b600080823b905060008111915050919050565b606061352a8484600085613556565b90509392505050565b600080836001016000848152602001908152602001600020541415905092915050565b606061356185613508565b6135d3576040517f08c379a000000000000000000000000000000000000000000000000000000000815260040180806020018281038252601d8152602001807f416464726573733a2063616c6c20746f206e6f6e2d636f6e747261637400000081525060200191505060405180910390fd5b600060608673ffffffffffffffffffffffffffffffffffffffff1685876040518082805190602001908083835b602083106136235780518252602082019150602081019050602083039250613600565b6001836020036101000a03801982511681845116808217855250505050505090500191505060006040518083038185875af1925050503d8060008114613685576040519150601f19603f3d011682016040523d82523d6000602084013e61368a565b606091505b5091509150811561369f578092505050613754565b6000815111156136b25780518082602001fd5b836040517f08c379a00000000000000000000000000000000000000000000000000000000081526004018080602001828103825283818151815260200191508051906020019080838360005b838110156137195780820151818401526020810190506136fe565b50505050905090810190601f1680156137465780820380516001836020036101000a031916815260200191505b509250505060405180910390fd5b949350505050565b828054600181600116156101000203166002900490600052602060002090601f016020900481019282601f1061379d57803560ff19168380011785556137cb565b828001600101855582156137cb579182015b828111156137ca5782358255916020019190600101906137af565b5b5090506137d891906138a4565b5090565b50805460018160011615610100020316600290046000825580601f106138025750613821565b601f01602090049060005260206000209081019061382091906138a4565b5b50565b828054600181600116156101000203166002900490600052602060002090601f016020900481019282601f1061386557805160ff1916838001178555613893565b82800160010185558215613893579182015b82811115613892578251825591602001919060010190613877565b5b5090506138a091906138a4565b5090565b6138c691905b808211156138c25760008160009055506001016138aa565b5090565b9056fe456e756d657261626c655365743a20696e646578206f7574206f6620626f756e64734552433732313a207472616e7366657220746f206e6f6e20455243373231526563656976657220696d706c656d656e7465724f776e61626c653a206e6577206f776e657220697320746865207a65726f20616464726573734552433732313a207472616e7366657220746f20746865207a65726f20616464726573734552433732313a206f70657261746f7220717565727920666f72206e6f6e6578697374656e7420746f6b656e4552433732313a20617070726f76652063616c6c6572206973206e6f74206f776e6572206e6f7220617070726f76656420666f7220616c6c4552433732313a2062616c616e636520717565727920666f7220746865207a65726f20616464726573734552433732313a206f776e657220717565727920666f72206e6f6e6578697374656e7420746f6b656e456e756d657261626c654d61703a20696e646578206f7574206f6620626f756e64734552433732313a20617070726f76656420717565727920666f72206e6f6e6578697374656e7420746f6b656e4552433732313a207472616e73666572206f6620746f6b656e2074686174206973206e6f74206f776e4552433732314d657461646174613a2055524920717565727920666f72206e6f6e6578697374656e7420746f6b656e4552433732313a20617070726f76616c20746f2063757272656e74206f776e65724552433732313a207472616e736665722063616c6c6572206973206e6f74206f776e6572206e6f7220617070726f766564a26469706673582212205e92a53cf3277dac75505ad2a5e02176d5d48e8ed3a5bbe3f69b5bb96f33fb3464736f6c63430006020033",
  "source": "pragma solidity ^0.6.2;\n\nimport \"@openzeppelin/contracts/token/ERC721/ERC721.sol\";\nimport \"@openzeppelin/contracts/access/Ownable.sol\";\n\nenum Sex { Male, Female }\n\nstruct Dog {\n    string name;\n    uint256 dob;\n    bytes32 microchip;\n    uint256 dam;\n    uint256 sire;\n    Sex sex;\n    uint256 timestamp;\n}\n\ncontract DogERC721 is ERC721, Ownable {\n    mapping(address => bool) private _writers;\n    mapping(bytes32 => Dog) private _dogs; \n\n    Dog[] public pack;\n\n    string private _name;\n    string private _symbol;\n    mapping(uint256 => string) private _tokenURIs;\n    uint256 private _count;\n\n    bytes4 private constant _INTERFACE_ID_ERC721_METADATA = 0x5b5e139f;\n\n    constructor() public ERC721(\"BEAGLES\", \"DD\") {\n        //_name = \"BEAGLES\";\n        //_symbol = \"DD\";\n        // register the supported interfaces to conform to ERC721 via ERC165\n        //_registerInterface(_INTERFACE_ID_ERC721_METADATA);\n    }\n\n    function count() public view returns (uint256) {\n        return _count;\n    }\n\n    function addLitter(uint256 dob, uint256 dam, uint256 sire, uint256 numberOfMales, uint256 numberOfFemales, address owner) external onlyOwner() {\n\n        for (uint256 i = 0; i < numberOfMales; i++) {\n            _addPuppy(\"\", dob, 0x00, Sex.Male, dam, sire, owner);\n        }\n\n        for (uint256 i = 0; i < numberOfFemales; i++) {\n            _addPuppy(\"\", dob, 0x00, Sex.Female, dam, sire, owner);\n        }\n    }\n\n    function addPuppy(string calldata name, uint256 dob, bytes32 microchip, Sex sex, uint256 dam, uint256 sire, address owner) external onlyOwner() {\n        _addPuppy(name, dob, microchip, sex, dam, sire, owner);\n    }\n\n    function _addPuppy(string memory name, uint256 dob, bytes32 microchip, Sex sex, uint256 dam, uint256 sire, address owner) internal {\n        uint256 id = pack.length;\n        pack.push(Dog(name, dob, microchip, dam, sire, sex, now));\n\n        emit Transfer(owner, owner, id);\n        emit PuppyAdded(id);\n    }\n\n    function getPuppy(uint256 tokenId) external view returns (string memory, uint256, Sex, uint256, uint256) {\n        //address owner = ownerOf(_tokenId);\n        return (\n            pack[tokenId].name,\n            pack[tokenId].dob,\n            pack[tokenId].sex,\n            pack[tokenId].dam,\n            pack[tokenId].sire\n            //owner\n        );\n    }\n\n    function removePuppy(uint256 tokenId) external onlyOwner() {\n        delete pack[tokenId];\n        emit PuppyRemoved(tokenId);\n    }\n\n    function updateTitle(uint256 tokenId, string calldata name) external onlyOwner() {\n        pack[tokenId].name = name;\n    }\n\n    function updateMicrochip(uint256 tokenId, bytes32 microchip) external onlyOwner() {\n        pack[tokenId].microchip = microchip;\n    }\n\n    event PuppyAdded(uint256 tokenId);\n    event PuppyRemoved(uint256 tokenId);\n\n    modifier onlyDogOwner() {\n\n        _;\n    }\n}\n",
  "sourcePath": "/home/lucascullen/GitHub/dltx/digitaldogs.github.io/src/contracts/DogERC721.sol",
  "compiler": {
    "name": "solc",
    "version": "0.6.2+commit.bacdbe57.Emscripten.clang"
  },
  "schemaVersion": "3.2.5",
  "updatedAt": "2020-11-08T11:17:35.821Z",
  "networkType": "ethereum",
  "devdoc": {
    "methods": {
      "approve(address,uint256)": {
        "details": "See {IERC721-approve}."
      },
      "balanceOf(address)": {
        "details": "See {IERC721-balanceOf}."
      },
      "baseURI()": {
        "details": "Returns the base URI set via {_setBaseURI}. This will be automatically added as a prefix in {tokenURI} to each token's URI, or to the token ID if no specific URI is set for that token ID."
      },
      "getApproved(uint256)": {
        "details": "See {IERC721-getApproved}."
      },
      "isApprovedForAll(address,address)": {
        "details": "See {IERC721-isApprovedForAll}."
      },
      "name()": {
        "details": "See {IERC721Metadata-name}."
      },
      "owner()": {
        "details": "Returns the address of the current owner."
      },
      "ownerOf(uint256)": {
        "details": "See {IERC721-ownerOf}."
      },
      "renounceOwnership()": {
        "details": "Leaves the contract without owner. It will not be possible to call `onlyOwner` functions anymore. Can only be called by the current owner.     * NOTE: Renouncing ownership will leave the contract without an owner, thereby removing any functionality that is only available to the owner."
      },
      "safeTransferFrom(address,address,uint256)": {
        "details": "See {IERC721-safeTransferFrom}."
      },
      "safeTransferFrom(address,address,uint256,bytes)": {
        "details": "See {IERC721-safeTransferFrom}."
      },
      "setApprovalForAll(address,bool)": {
        "details": "See {IERC721-setApprovalForAll}."
      },
      "supportsInterface(bytes4)": {
        "details": "See {IERC165-supportsInterface}.     * Time complexity O(1), guaranteed to always use less than 30 000 gas."
      },
      "symbol()": {
        "details": "See {IERC721Metadata-symbol}."
      },
      "tokenByIndex(uint256)": {
        "details": "See {IERC721Enumerable-tokenByIndex}."
      },
      "tokenOfOwnerByIndex(address,uint256)": {
        "details": "See {IERC721Enumerable-tokenOfOwnerByIndex}."
      },
      "tokenURI(uint256)": {
        "details": "See {IERC721Metadata-tokenURI}."
      },
      "totalSupply()": {
        "details": "See {IERC721Enumerable-totalSupply}."
      },
      "transferFrom(address,address,uint256)": {
        "details": "See {IERC721-transferFrom}."
      },
      "transferOwnership(address)": {
        "details": "Transfers ownership of the contract to a new account (`newOwner`). Can only be called by the current owner."
      }
    }
  },
  "userdoc": {
    "methods": {}
  }
}