{
  "contractName": "DogERC721",
  "abi": [
    {
      "inputs": [],
      "stateMutability": "nonpayable",
      "type": "constructor"
    },
    {
      "anonymous": false,
      "inputs": [
        {
          "indexed": true,
          "internalType": "address",
          "name": "owner",
          "type": "address"
        },
        {
          "indexed": true,
          "internalType": "address",
          "name": "approved",
          "type": "address"
        },
        {
          "indexed": true,
          "internalType": "uint256",
          "name": "tokenId",
          "type": "uint256"
        }
      ],
      "name": "Approval",
      "type": "event"
    },
    {
      "anonymous": false,
      "inputs": [
        {
          "indexed": true,
          "internalType": "address",
          "name": "owner",
          "type": "address"
        },
        {
          "indexed": true,
          "internalType": "address",
          "name": "operator",
          "type": "address"
        },
        {
          "indexed": false,
          "internalType": "bool",
          "name": "approved",
          "type": "bool"
        }
      ],
      "name": "ApprovalForAll",
      "type": "event"
    },
    {
      "anonymous": false,
      "inputs": [
        {
          "indexed": true,
          "internalType": "address",
          "name": "issuer",
          "type": "address"
        },
        {
          "indexed": true,
          "internalType": "uint256",
          "name": "tokenId",
          "type": "uint256"
        },
        {
          "indexed": true,
          "internalType": "bytes32",
          "name": "key",
          "type": "bytes32"
        },
        {
          "indexed": false,
          "internalType": "uint256",
          "name": "removedAt",
          "type": "uint256"
        }
      ],
      "name": "ClaimRemoved",
      "type": "event"
    },
    {
      "anonymous": false,
      "inputs": [
        {
          "indexed": true,
          "internalType": "address",
          "name": "issuer",
          "type": "address"
        },
        {
          "indexed": true,
          "internalType": "uint256",
          "name": "tokenId",
          "type": "uint256"
        },
        {
          "indexed": true,
          "internalType": "bytes32",
          "name": "key",
          "type": "bytes32"
        },
        {
          "indexed": false,
          "internalType": "bytes32",
          "name": "value",
          "type": "bytes32"
        },
        {
          "indexed": false,
          "internalType": "uint256",
          "name": "updatedAt",
          "type": "uint256"
        }
      ],
      "name": "ClaimSet",
      "type": "event"
    },
    {
      "anonymous": false,
      "inputs": [
        {
          "indexed": true,
          "internalType": "address",
          "name": "previousOwner",
          "type": "address"
        },
        {
          "indexed": true,
          "internalType": "address",
          "name": "newOwner",
          "type": "address"
        }
      ],
      "name": "OwnershipTransferred",
      "type": "event"
    },
    {
      "anonymous": false,
      "inputs": [
        {
          "indexed": false,
          "internalType": "uint256",
          "name": "tokenId",
          "type": "uint256"
        }
      ],
      "name": "PuppyAdded",
      "type": "event"
    },
    {
      "anonymous": false,
      "inputs": [
        {
          "indexed": false,
          "internalType": "uint256",
          "name": "tokenId",
          "type": "uint256"
        }
      ],
      "name": "PuppyRemoved",
      "type": "event"
    },
    {
      "anonymous": false,
      "inputs": [
        {
          "indexed": true,
          "internalType": "address",
          "name": "from",
          "type": "address"
        },
        {
          "indexed": true,
          "internalType": "address",
          "name": "to",
          "type": "address"
        },
        {
          "indexed": true,
          "internalType": "uint256",
          "name": "tokenId",
          "type": "uint256"
        }
      ],
      "name": "Transfer",
      "type": "event"
    },
    {
      "inputs": [
        {
          "internalType": "address",
          "name": "to",
          "type": "address"
        },
        {
          "internalType": "uint256",
          "name": "tokenId",
          "type": "uint256"
        }
      ],
      "name": "approve",
      "outputs": [],
      "stateMutability": "nonpayable",
      "type": "function"
    },
    {
      "inputs": [
        {
          "internalType": "address",
          "name": "owner",
          "type": "address"
        }
      ],
      "name": "balanceOf",
      "outputs": [
        {
          "internalType": "uint256",
          "name": "",
          "type": "uint256"
        }
      ],
      "stateMutability": "view",
      "type": "function",
      "constant": true
    },
    {
      "inputs": [],
      "name": "baseURI",
      "outputs": [
        {
          "internalType": "string",
          "name": "",
          "type": "string"
        }
      ],
      "stateMutability": "view",
      "type": "function",
      "constant": true
    },
    {
      "inputs": [
        {
          "internalType": "uint256",
          "name": "tokenId",
          "type": "uint256"
        }
      ],
      "name": "getApproved",
      "outputs": [
        {
          "internalType": "address",
          "name": "",
          "type": "address"
        }
      ],
      "stateMutability": "view",
      "type": "function",
      "constant": true
    },
    {
      "inputs": [
        {
          "internalType": "address",
          "name": "owner",
          "type": "address"
        },
        {
          "internalType": "address",
          "name": "operator",
          "type": "address"
        }
      ],
      "name": "isApprovedForAll",
      "outputs": [
        {
          "internalType": "bool",
          "name": "",
          "type": "bool"
        }
      ],
      "stateMutability": "view",
      "type": "function",
      "constant": true
    },
    {
      "inputs": [],
      "name": "name",
      "outputs": [
        {
          "internalType": "string",
          "name": "",
          "type": "string"
        }
      ],
      "stateMutability": "view",
      "type": "function",
      "constant": true
    },
    {
      "inputs": [],
      "name": "owner",
      "outputs": [
        {
          "internalType": "address",
          "name": "",
          "type": "address"
        }
      ],
      "stateMutability": "view",
      "type": "function",
      "constant": true
    },
    {
      "inputs": [
        {
          "internalType": "uint256",
          "name": "tokenId",
          "type": "uint256"
        }
      ],
      "name": "ownerOf",
      "outputs": [
        {
          "internalType": "address",
          "name": "",
          "type": "address"
        }
      ],
      "stateMutability": "view",
      "type": "function",
      "constant": true
    },
    {
      "inputs": [
        {
          "internalType": "uint256",
          "name": "",
          "type": "uint256"
        }
      ],
      "name": "pack",
      "outputs": [
        {
          "internalType": "string",
          "name": "name",
          "type": "string"
        },
        {
          "internalType": "uint256",
          "name": "dob",
          "type": "uint256"
        },
        {
          "internalType": "bytes32",
          "name": "microchip",
          "type": "bytes32"
        },
        {
          "internalType": "uint256",
          "name": "dam",
          "type": "uint256"
        },
        {
          "internalType": "uint256",
          "name": "sire",
          "type": "uint256"
        },
        {
          "internalType": "enum Sex",
          "name": "sex",
          "type": "uint8"
        },
        {
          "internalType": "uint256",
          "name": "timestamp",
          "type": "uint256"
        },
        {
          "internalType": "address",
          "name": "owner",
          "type": "address"
        }
      ],
      "stateMutability": "view",
      "type": "function",
      "constant": true
    },
    {
      "inputs": [
        {
          "internalType": "uint256",
          "name": "",
          "type": "uint256"
        },
        {
          "internalType": "address",
          "name": "",
          "type": "address"
        },
        {
          "internalType": "bytes32",
          "name": "",
          "type": "bytes32"
        }
      ],
      "name": "registry",
      "outputs": [
        {
          "internalType": "bytes32",
          "name": "",
          "type": "bytes32"
        }
      ],
      "stateMutability": "view",
      "type": "function",
      "constant": true
    },
    {
      "inputs": [],
      "name": "renounceOwnership",
      "outputs": [],
      "stateMutability": "nonpayable",
      "type": "function"
    },
    {
      "inputs": [
        {
          "internalType": "address",
          "name": "from",
          "type": "address"
        },
        {
          "internalType": "address",
          "name": "to",
          "type": "address"
        },
        {
          "internalType": "uint256",
          "name": "tokenId",
          "type": "uint256"
        }
      ],
      "name": "safeTransferFrom",
      "outputs": [],
      "stateMutability": "nonpayable",
      "type": "function"
    },
    {
      "inputs": [
        {
          "internalType": "address",
          "name": "from",
          "type": "address"
        },
        {
          "internalType": "address",
          "name": "to",
          "type": "address"
        },
        {
          "internalType": "uint256",
          "name": "tokenId",
          "type": "uint256"
        },
        {
          "internalType": "bytes",
          "name": "_data",
          "type": "bytes"
        }
      ],
      "name": "safeTransferFrom",
      "outputs": [],
      "stateMutability": "nonpayable",
      "type": "function"
    },
    {
      "inputs": [
        {
          "internalType": "address",
          "name": "operator",
          "type": "address"
        },
        {
          "internalType": "bool",
          "name": "approved",
          "type": "bool"
        }
      ],
      "name": "setApprovalForAll",
      "outputs": [],
      "stateMutability": "nonpayable",
      "type": "function"
    },
    {
      "inputs": [
        {
          "internalType": "bytes4",
          "name": "interfaceId",
          "type": "bytes4"
        }
      ],
      "name": "supportsInterface",
      "outputs": [
        {
          "internalType": "bool",
          "name": "",
          "type": "bool"
        }
      ],
      "stateMutability": "view",
      "type": "function",
      "constant": true
    },
    {
      "inputs": [],
      "name": "symbol",
      "outputs": [
        {
          "internalType": "string",
          "name": "",
          "type": "string"
        }
      ],
      "stateMutability": "view",
      "type": "function",
      "constant": true
    },
    {
      "inputs": [
        {
          "internalType": "uint256",
          "name": "index",
          "type": "uint256"
        }
      ],
      "name": "tokenByIndex",
      "outputs": [
        {
          "internalType": "uint256",
          "name": "",
          "type": "uint256"
        }
      ],
      "stateMutability": "view",
      "type": "function",
      "constant": true
    },
    {
      "inputs": [
        {
          "internalType": "address",
          "name": "owner",
          "type": "address"
        },
        {
          "internalType": "uint256",
          "name": "index",
          "type": "uint256"
        }
      ],
      "name": "tokenOfOwnerByIndex",
      "outputs": [
        {
          "internalType": "uint256",
          "name": "",
          "type": "uint256"
        }
      ],
      "stateMutability": "view",
      "type": "function",
      "constant": true
    },
    {
      "inputs": [
        {
          "internalType": "uint256",
          "name": "tokenId",
          "type": "uint256"
        }
      ],
      "name": "tokenURI",
      "outputs": [
        {
          "internalType": "string",
          "name": "",
          "type": "string"
        }
      ],
      "stateMutability": "view",
      "type": "function",
      "constant": true
    },
    {
      "inputs": [],
      "name": "totalSupply",
      "outputs": [
        {
          "internalType": "uint256",
          "name": "",
          "type": "uint256"
        }
      ],
      "stateMutability": "view",
      "type": "function",
      "constant": true
    },
    {
      "inputs": [
        {
          "internalType": "address",
          "name": "from",
          "type": "address"
        },
        {
          "internalType": "address",
          "name": "to",
          "type": "address"
        },
        {
          "internalType": "uint256",
          "name": "tokenId",
          "type": "uint256"
        }
      ],
      "name": "transferFrom",
      "outputs": [],
      "stateMutability": "nonpayable",
      "type": "function"
    },
    {
      "inputs": [
        {
          "internalType": "address",
          "name": "newOwner",
          "type": "address"
        }
      ],
      "name": "transferOwnership",
      "outputs": [],
      "stateMutability": "nonpayable",
      "type": "function"
    },
    {
      "inputs": [],
      "name": "count",
      "outputs": [
        {
          "internalType": "uint256",
          "name": "",
          "type": "uint256"
        }
      ],
      "stateMutability": "view",
      "type": "function",
      "constant": true
    },
    {
      "inputs": [
        {
          "internalType": "uint256",
          "name": "dob",
          "type": "uint256"
        },
        {
          "internalType": "uint256",
          "name": "dam",
          "type": "uint256"
        },
        {
          "internalType": "uint256",
          "name": "sire",
          "type": "uint256"
        },
        {
          "internalType": "uint256",
          "name": "males",
          "type": "uint256"
        },
        {
          "internalType": "uint256",
          "name": "females",
          "type": "uint256"
        },
        {
          "internalType": "address",
          "name": "owner",
          "type": "address"
        }
      ],
      "name": "addLitter",
      "outputs": [],
      "stateMutability": "nonpayable",
      "type": "function"
    },
    {
      "inputs": [
        {
          "internalType": "string",
          "name": "name",
          "type": "string"
        },
        {
          "internalType": "uint256",
          "name": "dob",
          "type": "uint256"
        },
        {
          "internalType": "bytes32",
          "name": "microchip",
          "type": "bytes32"
        },
        {
          "internalType": "enum Sex",
          "name": "sex",
          "type": "uint8"
        },
        {
          "internalType": "uint256",
          "name": "dam",
          "type": "uint256"
        },
        {
          "internalType": "uint256",
          "name": "sire",
          "type": "uint256"
        }
      ],
      "name": "addOwnPuppy",
      "outputs": [],
      "stateMutability": "nonpayable",
      "type": "function"
    },
    {
      "inputs": [
        {
          "internalType": "string",
          "name": "name",
          "type": "string"
        },
        {
          "internalType": "uint256",
          "name": "dob",
          "type": "uint256"
        },
        {
          "internalType": "bytes32",
          "name": "microchip",
          "type": "bytes32"
        },
        {
          "internalType": "enum Sex",
          "name": "sex",
          "type": "uint8"
        },
        {
          "internalType": "uint256",
          "name": "dam",
          "type": "uint256"
        },
        {
          "internalType": "uint256",
          "name": "sire",
          "type": "uint256"
        },
        {
          "internalType": "address",
          "name": "owner",
          "type": "address"
        }
      ],
      "name": "addPuppy",
      "outputs": [],
      "stateMutability": "nonpayable",
      "type": "function"
    },
    {
      "inputs": [
        {
          "internalType": "uint256",
          "name": "tokenId",
          "type": "uint256"
        }
      ],
      "name": "getPuppy",
      "outputs": [
        {
          "internalType": "string",
          "name": "",
          "type": "string"
        },
        {
          "internalType": "uint256",
          "name": "",
          "type": "uint256"
        },
        {
          "internalType": "enum Sex",
          "name": "",
          "type": "uint8"
        },
        {
          "internalType": "uint256",
          "name": "",
          "type": "uint256"
        },
        {
          "internalType": "uint256",
          "name": "",
          "type": "uint256"
        }
      ],
      "stateMutability": "view",
      "type": "function",
      "constant": true
    },
    {
      "inputs": [
        {
          "internalType": "uint256",
          "name": "tokenId",
          "type": "uint256"
        }
      ],
      "name": "removePuppy",
      "outputs": [],
      "stateMutability": "nonpayable",
      "type": "function"
    },
    {
      "inputs": [
        {
          "internalType": "uint256",
          "name": "tokenId",
          "type": "uint256"
        },
        {
          "internalType": "uint256",
          "name": "dam",
          "type": "uint256"
        }
      ],
      "name": "updateDam",
      "outputs": [],
      "stateMutability": "nonpayable",
      "type": "function"
    },
    {
      "inputs": [
        {
          "internalType": "uint256",
          "name": "tokenId",
          "type": "uint256"
        },
        {
          "internalType": "uint256",
          "name": "sire",
          "type": "uint256"
        }
      ],
      "name": "updateSire",
      "outputs": [],
      "stateMutability": "nonpayable",
      "type": "function"
    },
    {
      "inputs": [
        {
          "internalType": "uint256",
          "name": "tokenId",
          "type": "uint256"
        },
        {
          "internalType": "string",
          "name": "name",
          "type": "string"
        }
      ],
      "name": "updateTitle",
      "outputs": [],
      "stateMutability": "nonpayable",
      "type": "function"
    },
    {
      "inputs": [
        {
          "internalType": "uint256",
          "name": "tokenId",
          "type": "uint256"
        },
        {
          "internalType": "bytes32",
          "name": "microchip",
          "type": "bytes32"
        }
      ],
      "name": "updateMicrochip",
      "outputs": [],
      "stateMutability": "nonpayable",
      "type": "function"
    },
    {
      "inputs": [
        {
          "internalType": "uint256",
          "name": "tokenId",
          "type": "uint256"
        },
        {
          "internalType": "address",
          "name": "issuer",
          "type": "address"
        },
        {
          "internalType": "bytes32",
          "name": "key",
          "type": "bytes32"
        },
        {
          "internalType": "bytes32",
          "name": "value",
          "type": "bytes32"
        }
      ],
      "name": "setClaim",
      "outputs": [],
      "stateMutability": "nonpayable",
      "type": "function"
    },
    {
      "inputs": [
        {
          "internalType": "uint256",
          "name": "tokenId",
          "type": "uint256"
        },
        {
          "internalType": "bytes32",
          "name": "key",
          "type": "bytes32"
        },
        {
          "internalType": "bytes32",
          "name": "value",
          "type": "bytes32"
        }
      ],
      "name": "setSelfClaim",
      "outputs": [],
      "stateMutability": "nonpayable",
      "type": "function"
    },
    {
      "inputs": [
        {
          "internalType": "uint256",
          "name": "tokenId",
          "type": "uint256"
        },
        {
          "internalType": "address",
          "name": "issuer",
          "type": "address"
        },
        {
          "internalType": "bytes32",
          "name": "key",
          "type": "bytes32"
        }
      ],
      "name": "getClaim",
      "outputs": [
        {
          "internalType": "bytes32",
          "name": "",
          "type": "bytes32"
        }
      ],
      "stateMutability": "view",
      "type": "function",
      "constant": true
    },
    {
      "inputs": [
        {
          "internalType": "uint256",
          "name": "tokenId",
          "type": "uint256"
        },
        {
          "internalType": "address",
          "name": "issuer",
          "type": "address"
        },
        {
          "internalType": "bytes32",
          "name": "key",
          "type": "bytes32"
        }
      ],
      "name": "removeClaim",
      "outputs": [],
      "stateMutability": "nonpayable",
      "type": "function"
    }
  ],
  "bytecode": "0x60806040523480156200001157600080fd5b506040518060400160405280600781526020017f424541474c4553000000000000000000000000000000000000000000000000008152506040518060400160405280600281526020017f4444000000000000000000000000000000000000000000000000000000000000815250620000966301ffc9a760e01b620001e160201b60201c565b8160069080519060200190620000ae929190620002f2565b508060079080519060200190620000c7929190620002f2565b50620000e06380ac58cd60e01b620001e160201b60201c565b620000f8635b5e139f60e01b620001e160201b60201c565b6200011063780e9d6360e01b620001e160201b60201c565b5050600062000124620002ea60201b60201c565b905080600a60006101000a81548173ffffffffffffffffffffffffffffffffffffffff021916908373ffffffffffffffffffffffffffffffffffffffff1602179055508073ffffffffffffffffffffffffffffffffffffffff16600073ffffffffffffffffffffffffffffffffffffffff167f8be0079c531659141344cd1fd0a4f28419497f9722a3daafe3b4186f6b6457e060405160405180910390a350620001db635b5e139f60e01b620001e160201b60201c565b620003a1565b63ffffffff60e01b817bffffffffffffffffffffffffffffffffffffffffffffffffffffffff191614156200027e576040517f08c379a000000000000000000000000000000000000000000000000000000000815260040180806020018281038252601c8152602001807f4552433136353a20696e76616c696420696e746572666163652069640000000081525060200191505060405180910390fd5b6001600080837bffffffffffffffffffffffffffffffffffffffffffffffffffffffff19167bffffffffffffffffffffffffffffffffffffffffffffffffffffffff1916815260200190815260200160002060006101000a81548160ff02191690831515021790555050565b600033905090565b828054600181600116156101000203166002900490600052602060002090601f016020900481019282601f106200033557805160ff191683800117855562000366565b8280016001018555821562000366579182015b828111156200036557825182559160200191906001019062000348565b5b50905062000375919062000379565b5090565b6200039e91905b808211156200039a57600081600090555060010162000380565b5090565b90565b6149ea80620003b16000396000f3fe608060405234801561001057600080fd5b506004361061021c5760003560e01c80636352211e11610125578063a73e4d05116100ad578063c9e34f841161007c578063c9e34f8414610f3e578063defc644e14610f96578063e985e9c514610fce578063f2fde38b1461104a578063f36c83f01461108e5761021c565b8063a73e4d0514610d18578063b88d4fde14610d5a578063bccf158c14610e5f578063c87b56dd14610e975761021c565b8063715018a6116100f4578063715018a614610b435780638da5cb5b14610b4d57806395d89b4114610b975780639ec4a4e814610c1a578063a22cb46514610cc85761021c565b80636352211e146108e85780636c0360eb146109565780636ea42555146109d957806370a0823114610aeb5761021c565b80632f745c59116101a857806352d5b9711161017757806352d5b971146106c55780635786ead2146106fd5780635cbd35f514610780578063600236281461084e5780636301a4df1461087c5761021c565b80632f745c59146105475780633f28031e146105a957806342842e0e146106155780634f6ccce7146106835761021c565b8063095ea7b3116101ef578063095ea7b31461039557806318160ddd146103e35780631f6c45b31461040157806323b872dd146104635780632ef848cf146104d15761021c565b806301ffc9a71461022157806306661abd1461028657806306fdde03146102a4578063081812fc14610327575b600080fd5b61026c6004803603602081101561023757600080fd5b8101908080357bffffffffffffffffffffffffffffffffffffffffffffffffffffffff1916906020019092919050505061115f565b604051808215151515815260200191505060405180910390f35b61028e6111c6565b6040518082815260200191505060405180910390f35b6102ac6111d0565b6040518080602001828103825283818151815260200191508051906020019080838360005b838110156102ec5780820151818401526020810190506102d1565b50505050905090810190601f1680156103195780820380516001836020036101000a031916815260200191505b509250505060405180910390f35b6103536004803603602081101561033d57600080fd5b8101908080359060200190929190505050611272565b604051808273ffffffffffffffffffffffffffffffffffffffff1673ffffffffffffffffffffffffffffffffffffffff16815260200191505060405180910390f35b6103e1600480360360408110156103ab57600080fd5b81019080803573ffffffffffffffffffffffffffffffffffffffff1690602001909291908035906020019092919050505061130d565b005b6103eb611451565b6040518082815260200191505060405180910390f35b6104616004803603608081101561041757600080fd5b8101908080359060200190929190803573ffffffffffffffffffffffffffffffffffffffff1690602001909291908035906020019092919080359060200190929190505050611462565b005b6104cf6004803603606081101561047957600080fd5b81019080803573ffffffffffffffffffffffffffffffffffffffff169060200190929190803573ffffffffffffffffffffffffffffffffffffffff1690602001909291908035906020019092919050505061153e565b005b610545600480360360c08110156104e757600080fd5b810190808035906020019092919080359060200190929190803590602001909291908035906020019092919080359060200190929190803573ffffffffffffffffffffffffffffffffffffffff1690602001909291905050506115b4565b005b6105936004803603604081101561055d57600080fd5b81019080803573ffffffffffffffffffffffffffffffffffffffff16906020019092919080359060200190929190505050611702565b6040518082815260200191505060405180910390f35b6105ff600480360360608110156105bf57600080fd5b8101908080359060200190929190803573ffffffffffffffffffffffffffffffffffffffff1690602001909291908035906020019092919050505061175d565b6040518082815260200191505060405180910390f35b6106816004803603606081101561062b57600080fd5b81019080803573ffffffffffffffffffffffffffffffffffffffff169060200190929190803573ffffffffffffffffffffffffffffffffffffffff169060200190929190803590602001909291905050506117ca565b005b6106af6004803603602081101561069957600080fd5b81019080803590602001909291905050506117ea565b6040518082815260200191505060405180910390f35b6106fb600480360360408110156106db57600080fd5b81019080803590602001909291908035906020019092919050505061180d565b005b61077e6004803603604081101561071357600080fd5b81019080803590602001909291908035906020019064010000000081111561073a57600080fd5b82018360208201111561074c57600080fd5b8035906020019184600183028401116401000000008311171561076e57600080fd5b90919293919293905050506118f8565b005b61084c600480360360e081101561079657600080fd5b81019080803590602001906401000000008111156107b357600080fd5b8201836020820111156107c557600080fd5b803590602001918460018302840111640100000000831117156107e757600080fd5b90919293919293908035906020019092919080359060200190929190803560ff1690602001909291908035906020019092919080359060200190929190803573ffffffffffffffffffffffffffffffffffffffff1690602001909291905050506119f5565b005b61087a6004803603602081101561086457600080fd5b8101908080359060200190929190505050611b1c565b005b6108d26004803603606081101561089257600080fd5b8101908080359060200190929190803573ffffffffffffffffffffffffffffffffffffffff16906020019092919080359060200190929190505050611cc2565b6040518082815260200191505060405180910390f35b610914600480360360208110156108fe57600080fd5b8101908080359060200190929190505050611cf4565b604051808273ffffffffffffffffffffffffffffffffffffffff1673ffffffffffffffffffffffffffffffffffffffff16815260200191505060405180910390f35b61095e611d2b565b6040518080602001828103825283818151815260200191508051906020019080838360005b8381101561099e578082015181840152602081019050610983565b50505050905090810190601f1680156109cb5780820380516001836020036101000a031916815260200191505b509250505060405180910390f35b610a05600480360360208110156109ef57600080fd5b8101908080359060200190929190505050611dcd565b6040518080602001898152602001888152602001878152602001868152602001856001811115610a3157fe5b60ff1681526020018481526020018373ffffffffffffffffffffffffffffffffffffffff1673ffffffffffffffffffffffffffffffffffffffff16815260200182810382528a818151815260200191508051906020019080838360005b83811015610aa9578082015181840152602081019050610a8e565b50505050905090810190601f168015610ad65780820380516001836020036101000a031916815260200191505b50995050505050505050505060405180910390f35b610b2d60048036036020811015610b0157600080fd5b81019080803573ffffffffffffffffffffffffffffffffffffffff169060200190929190505050611ee7565b6040518082815260200191505060405180910390f35b610b4b611fbc565b005b610b55612147565b604051808273ffffffffffffffffffffffffffffffffffffffff1673ffffffffffffffffffffffffffffffffffffffff16815260200191505060405180910390f35b610b9f612171565b6040518080602001828103825283818151815260200191508051906020019080838360005b83811015610bdf578082015181840152602081019050610bc4565b50505050905090810190601f168015610c0c5780820380516001836020036101000a031916815260200191505b509250505060405180910390f35b610cc6600480360360c0811015610c3057600080fd5b8101908080359060200190640100000000811115610c4d57600080fd5b820183602082011115610c5f57600080fd5b80359060200191846001830284011164010000000083111715610c8157600080fd5b90919293919293908035906020019092919080359060200190929190803560ff1690602001909291908035906020019092919080359060200190929190505050612213565b005b610d1660048036036040811015610cde57600080fd5b81019080803573ffffffffffffffffffffffffffffffffffffffff169060200190929190803515159060200190929190505050612339565b005b610d5860048036036060811015610d2e57600080fd5b810190808035906020019092919080359060200190929190803590602001909291905050506124f1565b005b610e5d60048036036080811015610d7057600080fd5b81019080803573ffffffffffffffffffffffffffffffffffffffff169060200190929190803573ffffffffffffffffffffffffffffffffffffffff1690602001909291908035906020019092919080359060200190640100000000811115610dd757600080fd5b820183602082011115610de957600080fd5b80359060200191846001830284011164010000000083111715610e0b57600080fd5b91908080601f016020809104026020016040519081016040528093929190818152602001838380828437600081840152601f19601f8201169050808301925050505050505091929192905050506125c6565b005b610e9560048036036040811015610e7557600080fd5b81019080803590602001909291908035906020019092919050505061263e565b005b610ec360048036036020811015610ead57600080fd5b810190808035906020019092919050505061275b565b6040518080602001828103825283818151815260200191508051906020019080838360005b83811015610f03578082015181840152602081019050610ee8565b50505050905090810190601f168015610f305780820380516001836020036101000a031916815260200191505b509250505060405180910390f35b610f9460048036036060811015610f5457600080fd5b8101908080359060200190929190803573ffffffffffffffffffffffffffffffffffffffff16906020019092919080359060200190929190505050612a44565b005b610fcc60048036036040811015610fac57600080fd5b810190808035906020019092919080359060200190929190505050612b9f565b005b61103060048036036040811015610fe457600080fd5b81019080803573ffffffffffffffffffffffffffffffffffffffff169060200190929190803573ffffffffffffffffffffffffffffffffffffffff169060200190929190505050612c8a565b604051808215151515815260200191505060405180910390f35b61108c6004803603602081101561106057600080fd5b81019080803573ffffffffffffffffffffffffffffffffffffffff169060200190929190505050612d1e565b005b6110ba600480360360208110156110a457600080fd5b8101908080359060200190929190505050612f2e565b60405180806020018681526020018560018111156110d457fe5b60ff168152602001848152602001838152602001828103825287818151815260200191508051906020019080838360005b83811015611120578082015181840152602081019050611105565b50505050905090810190601f16801561114d5780820380516001836020036101000a031916815260200191505b50965050505050505060405180910390f35b6000806000837bffffffffffffffffffffffffffffffffffffffffffffffffffffffff19167bffffffffffffffffffffffffffffffffffffffffffffffffffffffff1916815260200190815260200160002060009054906101000a900460ff169050919050565b6000601254905090565b606060068054600181600116156101000203166002900480601f0160208091040260200160405190810160405280929190818152602001828054600181600116156101000203166002900480156112685780601f1061123d57610100808354040283529160200191611268565b820191906000526020600020905b81548152906001019060200180831161124b57829003601f168201915b5050505050905090565b600061127d8261308c565b6112d2576040517f08c379a000000000000000000000000000000000000000000000000000000000815260040180806020018281038252602c8152602001806148b5602c913960400191505060405180910390fd5b6004600083815260200190815260200160002060009054906101000a900473ffffffffffffffffffffffffffffffffffffffff169050919050565b600061131882611cf4565b90508073ffffffffffffffffffffffffffffffffffffffff168373ffffffffffffffffffffffffffffffffffffffff16141561139f576040517f08c379a00000000000000000000000000000000000000000000000000000000081526004018080602001828103825260218152602001806149396021913960400191505060405180910390fd5b8073ffffffffffffffffffffffffffffffffffffffff166113be6130a9565b73ffffffffffffffffffffffffffffffffffffffff1614806113ed57506113ec816113e76130a9565b612c8a565b5b611442576040517f08c379a00000000000000000000000000000000000000000000000000000000081526004018080602001828103825260388152602001806148086038913960400191505060405180910390fd5b61144c83836130b1565b505050565b600061145d600261316a565b905090565b61146a6130a9565b73ffffffffffffffffffffffffffffffffffffffff16600a60009054906101000a900473ffffffffffffffffffffffffffffffffffffffff1673ffffffffffffffffffffffffffffffffffffffff161461152c576040517f08c379a00000000000000000000000000000000000000000000000000000000081526004018080602001828103825260208152602001807f4f776e61626c653a2063616c6c6572206973206e6f7420746865206f776e657281525060200191505060405180910390fd5b6115388484848461317f565b50505050565b61154f6115496130a9565b82613243565b6115a4576040517f08c379a000000000000000000000000000000000000000000000000000000000815260040180806020018281038252603181526020018061495a6031913960400191505060405180910390fd5b6115af838383613337565b505050565b6115bc6130a9565b73ffffffffffffffffffffffffffffffffffffffff16600a60009054906101000a900473ffffffffffffffffffffffffffffffffffffffff1673ffffffffffffffffffffffffffffffffffffffff161461167e576040517f08c379a00000000000000000000000000000000000000000000000000000000081526004018080602001828103825260208152602001807f4f776e61626c653a2063616c6c6572206973206e6f7420746865206f776e657281525060200191505060405180910390fd5b60008090505b838110156116bb576116ae60405180602001604052806000815250886000801b60008a8a8861357a565b8080600101915050611684565b5060008090505b828110156116f9576116ec60405180602001604052806000815250886000801b60018a8a8861357a565b80806001019150506116c2565b50505050505050565b600061175582600160008673ffffffffffffffffffffffffffffffffffffffff1673ffffffffffffffffffffffffffffffffffffffff16815260200190815260200160002061378290919063ffffffff16565b905092915050565b6000600e600085815260200190815260200160002060008473ffffffffffffffffffffffffffffffffffffffff1673ffffffffffffffffffffffffffffffffffffffff16815260200190815260200160002060008381526020019081526020016000205490509392505050565b6117e5838383604051806020016040528060008152506125c6565b505050565b60008061180183600261379c90919063ffffffff16565b50905080915050919050565b813373ffffffffffffffffffffffffffffffffffffffff16600d828154811061183257fe5b906000526020600020906008020160070160009054906101000a900473ffffffffffffffffffffffffffffffffffffffff1673ffffffffffffffffffffffffffffffffffffffff16146118d0576040517f08c379a000000000000000000000000000000000000000000000000000000000815260040180806020018281038252602a81526020018061498b602a913960400191505060405180910390fd5b81600d84815481106118de57fe5b906000526020600020906008020160030181905550505050565b6119006130a9565b73ffffffffffffffffffffffffffffffffffffffff16600a60009054906101000a900473ffffffffffffffffffffffffffffffffffffffff1673ffffffffffffffffffffffffffffffffffffffff16146119c2576040517f08c379a00000000000000000000000000000000000000000000000000000000081526004018080602001828103825260208152602001807f4f776e61626c653a2063616c6c6572206973206e6f7420746865206f776e657281525060200191505060405180910390fd5b8181600d85815481106119d157fe5b906000526020600020906008020160000191906119ef9291906145d0565b50505050565b6119fd6130a9565b73ffffffffffffffffffffffffffffffffffffffff16600a60009054906101000a900473ffffffffffffffffffffffffffffffffffffffff1673ffffffffffffffffffffffffffffffffffffffff1614611abf576040517f08c379a00000000000000000000000000000000000000000000000000000000081526004018080602001828103825260208152602001807f4f776e61626c653a2063616c6c6572206973206e6f7420746865206f776e657281525060200191505060405180910390fd5b611b1288888080601f016020809104026020016040519081016040528093929190818152602001838380828437600081840152601f19601f8201169050808301925050505050505087878787878761357a565b5050505050505050565b611b246130a9565b73ffffffffffffffffffffffffffffffffffffffff16600a60009054906101000a900473ffffffffffffffffffffffffffffffffffffffff1673ffffffffffffffffffffffffffffffffffffffff1614611be6576040517f08c379a00000000000000000000000000000000000000000000000000000000081526004018080602001828103825260208152602001807f4f776e61626c653a2063616c6c6572206973206e6f7420746865206f776e657281525060200191505060405180910390fd5b600d8181548110611bf357fe5b906000526020600020906008020160008082016000611c129190614650565b60018201600090556002820160009055600382016000905560048201600090556005820160006101000a81549060ff021916905560068201600090556007820160006101000a81549073ffffffffffffffffffffffffffffffffffffffff0219169055505060016012600082825403925050819055507f4aea85f6cb1f012def055dd570b2f19414e39ee70238b57777ad09eaf335dbcf816040518082815260200191505060405180910390a150565b600e60205282600052604060002060205281600052604060002060205280600052604060002060009250925050505481565b6000611d248260405180606001604052806029815260200161486a6029913960026137cb9092919063ffffffff16565b9050919050565b606060098054600181600116156101000203166002900480601f016020809104026020016040519081016040528092919081815260200182805460018160011615610100020316600290048015611dc35780601f10611d9857610100808354040283529160200191611dc3565b820191906000526020600020905b815481529060010190602001808311611da657829003601f168201915b5050505050905090565b600d8181548110611dda57fe5b9060005260206000209060080201600091509050806000018054600181600116156101000203166002900480601f016020809104026020016040519081016040528092919081815260200182805460018160011615610100020316600290048015611e865780601f10611e5b57610100808354040283529160200191611e86565b820191906000526020600020905b815481529060010190602001808311611e6957829003601f168201915b5050505050908060010154908060020154908060030154908060040154908060050160009054906101000a900460ff16908060060154908060070160009054906101000a900473ffffffffffffffffffffffffffffffffffffffff16905088565b60008073ffffffffffffffffffffffffffffffffffffffff168273ffffffffffffffffffffffffffffffffffffffff161415611f6e576040517f08c379a000000000000000000000000000000000000000000000000000000000815260040180806020018281038252602a815260200180614840602a913960400191505060405180910390fd5b611fb5600160008473ffffffffffffffffffffffffffffffffffffffff1673ffffffffffffffffffffffffffffffffffffffff1681526020019081526020016000206137ea565b9050919050565b611fc46130a9565b73ffffffffffffffffffffffffffffffffffffffff16600a60009054906101000a900473ffffffffffffffffffffffffffffffffffffffff1673ffffffffffffffffffffffffffffffffffffffff1614612086576040517f08c379a00000000000000000000000000000000000000000000000000000000081526004018080602001828103825260208152602001807f4f776e61626c653a2063616c6c6572206973206e6f7420746865206f776e657281525060200191505060405180910390fd5b600073ffffffffffffffffffffffffffffffffffffffff16600a60009054906101000a900473ffffffffffffffffffffffffffffffffffffffff1673ffffffffffffffffffffffffffffffffffffffff167f8be0079c531659141344cd1fd0a4f28419497f9722a3daafe3b4186f6b6457e060405160405180910390a36000600a60006101000a81548173ffffffffffffffffffffffffffffffffffffffff021916908373ffffffffffffffffffffffffffffffffffffffff160217905550565b6000600a60009054906101000a900473ffffffffffffffffffffffffffffffffffffffff16905090565b606060078054600181600116156101000203166002900480601f0160208091040260200160405190810160405280929190818152602001828054600181600116156101000203166002900480156122095780601f106121de57610100808354040283529160200191612209565b820191906000526020600020905b8154815290600101906020018083116121ec57829003601f168201915b5050505050905090565b61221b6130a9565b73ffffffffffffffffffffffffffffffffffffffff16600a60009054906101000a900473ffffffffffffffffffffffffffffffffffffffff1673ffffffffffffffffffffffffffffffffffffffff16146122dd576040517f08c379a00000000000000000000000000000000000000000000000000000000081526004018080602001828103825260208152602001807f4f776e61626c653a2063616c6c6572206973206e6f7420746865206f776e657281525060200191505060405180910390fd5b61233087878080601f016020809104026020016040519081016040528093929190818152602001838380828437600081840152601f19601f8201169050808301925050505050505086868686863361357a565b50505050505050565b6123416130a9565b73ffffffffffffffffffffffffffffffffffffffff168273ffffffffffffffffffffffffffffffffffffffff1614156123e2576040517f08c379a00000000000000000000000000000000000000000000000000000000081526004018080602001828103825260198152602001807f4552433732313a20617070726f766520746f2063616c6c65720000000000000081525060200191505060405180910390fd5b80600560006123ef6130a9565b73ffffffffffffffffffffffffffffffffffffffff1673ffffffffffffffffffffffffffffffffffffffff16815260200190815260200160002060008473ffffffffffffffffffffffffffffffffffffffff1673ffffffffffffffffffffffffffffffffffffffff16815260200190815260200160002060006101000a81548160ff0219169083151502179055508173ffffffffffffffffffffffffffffffffffffffff1661249c6130a9565b73ffffffffffffffffffffffffffffffffffffffff167f17307eab39ab6107e8899845ad3d59bd9653f200f220920489ca2b5937696c3183604051808215151515815260200191505060405180910390a35050565b823373ffffffffffffffffffffffffffffffffffffffff16600d828154811061251657fe5b906000526020600020906008020160070160009054906101000a900473ffffffffffffffffffffffffffffffffffffffff1673ffffffffffffffffffffffffffffffffffffffff16146125b4576040517f08c379a000000000000000000000000000000000000000000000000000000000815260040180806020018281038252602a81526020018061498b602a913960400191505060405180910390fd5b6125c08433858561317f565b50505050565b6125d76125d16130a9565b83613243565b61262c576040517f08c379a000000000000000000000000000000000000000000000000000000000815260040180806020018281038252603181526020018061495a6031913960400191505060405180910390fd5b612638848484846137ff565b50505050565b6126466130a9565b73ffffffffffffffffffffffffffffffffffffffff16600a60009054906101000a900473ffffffffffffffffffffffffffffffffffffffff1673ffffffffffffffffffffffffffffffffffffffff1614612708576040517f08c379a00000000000000000000000000000000000000000000000000000000081526004018080602001828103825260208152602001807f4f776e61626c653a2063616c6c6572206973206e6f7420746865206f776e657281525060200191505060405180910390fd5b80600d838154811061271657fe5b90600052602060002090600802016002018190555061275782337f4d4943524f43484950204e4f00000000000000000000000000000000000000008461317f565b5050565b60606127668261308c565b6127bb576040517f08c379a000000000000000000000000000000000000000000000000000000000815260040180806020018281038252602f81526020018061490a602f913960400191505060405180910390fd5b6060600860008481526020019081526020016000208054600181600116156101000203166002900480601f0160208091040260200160405190810160405280929190818152602001828054600181600116156101000203166002900480156128645780601f1061283957610100808354040283529160200191612864565b820191906000526020600020905b81548152906001019060200180831161284757829003601f168201915b505050505090506000600980546001816001161561010002031660029004905014156128935780915050612a3f565b60008151111561296c5760098160405160200180838054600181600116156101000203166002900480156128fe5780601f106128dc5761010080835404028352918201916128fe565b820191906000526020600020905b8154815290600101906020018083116128ea575b505082805190602001908083835b6020831061292f578051825260208201915060208101905060208303925061290c565b6001836020036101000a03801982511681845116808217855250505050505090500192505050604051602081830303815290604052915050612a3f565b600961297784613871565b60405160200180838054600181600116156101000203166002900480156129d55780601f106129b35761010080835404028352918201916129d5565b820191906000526020600020905b8154815290600101906020018083116129c1575b505082805190602001908083835b60208310612a0657805182526020820191506020810190506020830392506129e3565b6001836020036101000a038019825116818451168082178552505050505050905001925050506040516020818303038152906040529150505b919050565b8173ffffffffffffffffffffffffffffffffffffffff163373ffffffffffffffffffffffffffffffffffffffff1614612ae5576040517f08c379a000000000000000000000000000000000000000000000000000000000815260040180806020018281038252600b8152602001807f4f6e6c792069737375657200000000000000000000000000000000000000000081525060200191505060405180910390fd5b600e600084815260200190815260200160002060008373ffffffffffffffffffffffffffffffffffffffff1673ffffffffffffffffffffffffffffffffffffffff16815260200190815260200160002060008281526020019081526020016000206000905580833373ffffffffffffffffffffffffffffffffffffffff167f101b2e7ea26c5e1ead62afe28133616a62a3f1def6d5ae85ad68f750f44db80e426040518082815260200191505060405180910390a4505050565b813373ffffffffffffffffffffffffffffffffffffffff16600d8281548110612bc457fe5b906000526020600020906008020160070160009054906101000a900473ffffffffffffffffffffffffffffffffffffffff1673ffffffffffffffffffffffffffffffffffffffff1614612c62576040517f08c379a000000000000000000000000000000000000000000000000000000000815260040180806020018281038252602a81526020018061498b602a913960400191505060405180910390fd5b81600d8481548110612c7057fe5b906000526020600020906008020160040181905550505050565b6000600560008473ffffffffffffffffffffffffffffffffffffffff1673ffffffffffffffffffffffffffffffffffffffff16815260200190815260200160002060008373ffffffffffffffffffffffffffffffffffffffff1673ffffffffffffffffffffffffffffffffffffffff16815260200190815260200160002060009054906101000a900460ff16905092915050565b612d266130a9565b73ffffffffffffffffffffffffffffffffffffffff16600a60009054906101000a900473ffffffffffffffffffffffffffffffffffffffff1673ffffffffffffffffffffffffffffffffffffffff1614612de8576040517f08c379a00000000000000000000000000000000000000000000000000000000081526004018080602001828103825260208152602001807f4f776e61626c653a2063616c6c6572206973206e6f7420746865206f776e657281525060200191505060405180910390fd5b600073ffffffffffffffffffffffffffffffffffffffff168173ffffffffffffffffffffffffffffffffffffffff161415612e6e576040517f08c379a00000000000000000000000000000000000000000000000000000000081526004018080602001828103825260268152602001806147926026913960400191505060405180910390fd5b8073ffffffffffffffffffffffffffffffffffffffff16600a60009054906101000a900473ffffffffffffffffffffffffffffffffffffffff1673ffffffffffffffffffffffffffffffffffffffff167f8be0079c531659141344cd1fd0a4f28419497f9722a3daafe3b4186f6b6457e060405160405180910390a380600a60006101000a81548173ffffffffffffffffffffffffffffffffffffffff021916908373ffffffffffffffffffffffffffffffffffffffff16021790555050565b6060600080600080600d8681548110612f4357fe5b9060005260206000209060080201600001600d8781548110612f6157fe5b906000526020600020906008020160010154600d8881548110612f8057fe5b906000526020600020906008020160050160009054906101000a900460ff16600d8981548110612fac57fe5b906000526020600020906008020160030154600d8a81548110612fcb57fe5b906000526020600020906008020160040154848054600181600116156101000203166002900480601f0160208091040260200160405190810160405280929190818152602001828054600181600116156101000203166002900480156130725780601f1061304757610100808354040283529160200191613072565b820191906000526020600020905b81548152906001019060200180831161305557829003601f168201915b505050505094509450945094509450945091939590929450565b60006130a28260026139a190919063ffffffff16565b9050919050565b600033905090565b816004600083815260200190815260200160002060006101000a81548173ffffffffffffffffffffffffffffffffffffffff021916908373ffffffffffffffffffffffffffffffffffffffff160217905550808273ffffffffffffffffffffffffffffffffffffffff1661312483611cf4565b73ffffffffffffffffffffffffffffffffffffffff167f8c5be1e5ebec7d5bd14f71427d1e84f3dd0314c0f7b2291e5b200ac8c7c3b92560405160405180910390a45050565b6000613178826000016139bb565b9050919050565b80600e600086815260200190815260200160002060008573ffffffffffffffffffffffffffffffffffffffff1673ffffffffffffffffffffffffffffffffffffffff16815260200190815260200160002060008481526020019081526020016000208190555081843373ffffffffffffffffffffffffffffffffffffffff167f40ccf6d7e73ec422a2f6bccb92dde912c416f17b8405703479503c9457ddd17d8442604051808381526020018281526020019250505060405180910390a450505050565b600061324e8261308c565b6132a3576040517f08c379a000000000000000000000000000000000000000000000000000000000815260040180806020018281038252602c8152602001806147dc602c913960400191505060405180910390fd5b60006132ae83611cf4565b90508073ffffffffffffffffffffffffffffffffffffffff168473ffffffffffffffffffffffffffffffffffffffff16148061331d57508373ffffffffffffffffffffffffffffffffffffffff1661330584611272565b73ffffffffffffffffffffffffffffffffffffffff16145b8061332e575061332d8185612c8a565b5b91505092915050565b8273ffffffffffffffffffffffffffffffffffffffff1661335782611cf4565b73ffffffffffffffffffffffffffffffffffffffff16146133c3576040517f08c379a00000000000000000000000000000000000000000000000000000000081526004018080602001828103825260298152602001806148e16029913960400191505060405180910390fd5b600073ffffffffffffffffffffffffffffffffffffffff168273ffffffffffffffffffffffffffffffffffffffff161415613449576040517f08c379a00000000000000000000000000000000000000000000000000000000081526004018080602001828103825260248152602001806147b86024913960400191505060405180910390fd5b6134548383836139cc565b61345f6000826130b1565b6134b081600160008673ffffffffffffffffffffffffffffffffffffffff1673ffffffffffffffffffffffffffffffffffffffff1681526020019081526020016000206139d190919063ffffffff16565b5061350281600160008573ffffffffffffffffffffffffffffffffffffffff1673ffffffffffffffffffffffffffffffffffffffff1681526020019081526020016000206139eb90919063ffffffff16565b5061351981836002613a059092919063ffffffff16565b50808273ffffffffffffffffffffffffffffffffffffffff168473ffffffffffffffffffffffffffffffffffffffff167fddf252ad1be2c89b69c2b068fc378daa952ba7f163c4a11628f55a4df523b3ef60405160405180910390a4505050565b6000600d805490509050600d6040518061010001604052808a81526020018981526020018881526020018681526020018581526020018760018111156135bc57fe5b81526020014281526020018473ffffffffffffffffffffffffffffffffffffffff1681525090806001815401808255809150506001900390600052602060002090600802016000909190919091506000820151816000019080519060200190613626929190614698565b506020820151816001015560408201518160020155606082015181600301556080820151816004015560a08201518160050160006101000a81548160ff0219169083600181111561367357fe5b021790555060c0820151816006015560e08201518160070160006101000a81548173ffffffffffffffffffffffffffffffffffffffff021916908373ffffffffffffffffffffffffffffffffffffffff160217905550505060016012600082825401925050819055506136e68282613a3a565b808273ffffffffffffffffffffffffffffffffffffffff168373ffffffffffffffffffffffffffffffffffffffff167fddf252ad1be2c89b69c2b068fc378daa952ba7f163c4a11628f55a4df523b3ef60405160405180910390a47f98f6e57aa4755baead866c21fe3f1a1bdee97be51e462ff15de2395c4fdc78d3816040518082815260200191505060405180910390a15050505050505050565b60006137918360000183613a58565b60001c905092915050565b6000806000806137af8660000186613adb565b915091508160001c8160001c8090509350935050509250929050565b60006137de846000018460001b84613b74565b60001c90509392505050565b60006137f882600001613c6a565b9050919050565b61380a848484613337565b61381684848484613c7b565b61386b576040517f08c379a00000000000000000000000000000000000000000000000000000000081526004018080602001828103825260328152602001806147606032913960400191505060405180910390fd5b50505050565b606060008214156138b9576040518060400160405280600181526020017f3000000000000000000000000000000000000000000000000000000000000000815250905061399c565b600082905060005b600082146138e3578080600101915050600a82816138db57fe5b0491506138c1565b6060816040519080825280601f01601f1916602001820160405280156139185781602001600182028038833980820191505090505b50905060006001830390508593505b6000841461399457600a848161393957fe5b0660300160f81b8282806001900393508151811061395357fe5b60200101907effffffffffffffffffffffffffffffffffffffffffffffffffffffffffffff1916908160001a905350600a848161398c57fe5b049350613927565b819450505050505b919050565b60006139b3836000018360001b613ec0565b905092915050565b600081600001805490509050919050565b505050565b60006139e3836000018360001b613ee3565b905092915050565b60006139fd836000018360001b613fcb565b905092915050565b6000613a31846000018460001b8473ffffffffffffffffffffffffffffffffffffffff1660001b61403b565b90509392505050565b613a54828260405180602001604052806000815250614117565b5050565b600081836000018054905011613ab9576040517f08c379a000000000000000000000000000000000000000000000000000000000815260040180806020018281038252602281526020018061473e6022913960400191505060405180910390fd5b826000018281548110613ac857fe5b9060005260206000200154905092915050565b60008082846000018054905011613b3d576040517f08c379a00000000000000000000000000000000000000000000000000000000081526004018080602001828103825260228152602001806148936022913960400191505060405180910390fd5b6000846000018481548110613b4e57fe5b906000526020600020906002020190508060000154816001015492509250509250929050565b60008084600101600085815260200190815260200160002054905060008114158390613c3b576040517f08c379a00000000000000000000000000000000000000000000000000000000081526004018080602001828103825283818151815260200191508051906020019080838360005b83811015613c00578082015181840152602081019050613be5565b50505050905090810190601f168015613c2d5780820380516001836020036101000a031916815260200191505b509250505060405180910390fd5b50846000016001820381548110613c4e57fe5b9060005260206000209060020201600101549150509392505050565b600081600001805490509050919050565b6000613c9c8473ffffffffffffffffffffffffffffffffffffffff16614188565b613ca95760019050613eb8565b6060613e3f63150b7a0260e01b613cbe6130a9565b888787604051602401808573ffffffffffffffffffffffffffffffffffffffff1673ffffffffffffffffffffffffffffffffffffffff1681526020018473ffffffffffffffffffffffffffffffffffffffff1673ffffffffffffffffffffffffffffffffffffffff16815260200183815260200180602001828103825283818151815260200191508051906020019080838360005b83811015613d6e578082015181840152602081019050613d53565b50505050905090810190601f168015613d9b5780820380516001836020036101000a031916815260200191505b5095505050505050604051602081830303815290604052907bffffffffffffffffffffffffffffffffffffffffffffffffffffffff19166020820180517bffffffffffffffffffffffffffffffffffffffffffffffffffffffff8381831617835250505050604051806060016040528060328152602001614760603291398773ffffffffffffffffffffffffffffffffffffffff1661419b9092919063ffffffff16565b90506000818060200190516020811015613e5857600080fd5b8101908080519060200190929190505050905063150b7a0260e01b7bffffffffffffffffffffffffffffffffffffffffffffffffffffffff1916817bffffffffffffffffffffffffffffffffffffffffffffffffffffffff191614925050505b949350505050565b600080836001016000848152602001908152602001600020541415905092915050565b60008083600101600084815260200190815260200160002054905060008114613fbf5760006001820390506000600186600001805490500390506000866000018281548110613f2e57fe5b9060005260206000200154905080876000018481548110613f4b57fe5b9060005260206000200181905550600183018760010160008381526020019081526020016000208190555086600001805480613f8357fe5b60019003818190600052602060002001600090559055866001016000878152602001908152602001600020600090556001945050505050613fc5565b60009150505b92915050565b6000613fd783836141b3565b614030578260000182908060018154018082558091505060019003906000526020600020016000909190919091505582600001805490508360010160008481526020019081526020016000208190555060019050614035565b600090505b92915050565b60008084600101600085815260200190815260200160002054905060008114156140e257846000016040518060400160405280868152602001858152509080600181540180825580915050600190039060005260206000209060020201600090919091909150600082015181600001556020820151816001015550508460000180549050856001016000868152602001908152602001600020819055506001915050614110565b828560000160018303815481106140f557fe5b90600052602060002090600202016001018190555060009150505b9392505050565b61412183836141d6565b61412e6000848484613c7b565b614183576040517f08c379a00000000000000000000000000000000000000000000000000000000081526004018080602001828103825260328152602001806147606032913960400191505060405180910390fd5b505050565b600080823b905060008111915050919050565b60606141aa84846000856143ca565b90509392505050565b600080836001016000848152602001908152602001600020541415905092915050565b600073ffffffffffffffffffffffffffffffffffffffff168273ffffffffffffffffffffffffffffffffffffffff161415614279576040517f08c379a00000000000000000000000000000000000000000000000000000000081526004018080602001828103825260208152602001807f4552433732313a206d696e7420746f20746865207a65726f206164647265737381525060200191505060405180910390fd5b6142828161308c565b156142f5576040517f08c379a000000000000000000000000000000000000000000000000000000000815260040180806020018281038252601c8152602001807f4552433732313a20746f6b656e20616c7265616479206d696e7465640000000081525060200191505060405180910390fd5b614301600083836139cc565b61435281600160008573ffffffffffffffffffffffffffffffffffffffff1673ffffffffffffffffffffffffffffffffffffffff1681526020019081526020016000206139eb90919063ffffffff16565b5061436981836002613a059092919063ffffffff16565b50808273ffffffffffffffffffffffffffffffffffffffff16600073ffffffffffffffffffffffffffffffffffffffff167fddf252ad1be2c89b69c2b068fc378daa952ba7f163c4a11628f55a4df523b3ef60405160405180910390a45050565b60606143d585614188565b614447576040517f08c379a000000000000000000000000000000000000000000000000000000000815260040180806020018281038252601d8152602001807f416464726573733a2063616c6c20746f206e6f6e2d636f6e747261637400000081525060200191505060405180910390fd5b600060608673ffffffffffffffffffffffffffffffffffffffff1685876040518082805190602001908083835b602083106144975780518252602082019150602081019050602083039250614474565b6001836020036101000a03801982511681845116808217855250505050505090500191505060006040518083038185875af1925050503d80600081146144f9576040519150601f19603f3d011682016040523d82523d6000602084013e6144fe565b606091505b509150915081156145135780925050506145c8565b6000815111156145265780518082602001fd5b836040517f08c379a00000000000000000000000000000000000000000000000000000000081526004018080602001828103825283818151815260200191508051906020019080838360005b8381101561458d578082015181840152602081019050614572565b50505050905090810190601f1680156145ba5780820380516001836020036101000a031916815260200191505b509250505060405180910390fd5b949350505050565b828054600181600116156101000203166002900490600052602060002090601f016020900481019282601f1061461157803560ff191683800117855561463f565b8280016001018555821561463f579182015b8281111561463e578235825591602001919060010190614623565b5b50905061464c9190614718565b5090565b50805460018160011615610100020316600290046000825580601f106146765750614695565b601f0160209004906000526020600020908101906146949190614718565b5b50565b828054600181600116156101000203166002900490600052602060002090601f016020900481019282601f106146d957805160ff1916838001178555614707565b82800160010185558215614707579182015b828111156147065782518255916020019190600101906146eb565b5b5090506147149190614718565b5090565b61473a91905b8082111561473657600081600090555060010161471e565b5090565b9056fe456e756d657261626c655365743a20696e646578206f7574206f6620626f756e64734552433732313a207472616e7366657220746f206e6f6e20455243373231526563656976657220696d706c656d656e7465724f776e61626c653a206e6577206f776e657220697320746865207a65726f20616464726573734552433732313a207472616e7366657220746f20746865207a65726f20616464726573734552433732313a206f70657261746f7220717565727920666f72206e6f6e6578697374656e7420746f6b656e4552433732313a20617070726f76652063616c6c6572206973206e6f74206f776e6572206e6f7220617070726f76656420666f7220616c6c4552433732313a2062616c616e636520717565727920666f7220746865207a65726f20616464726573734552433732313a206f776e657220717565727920666f72206e6f6e6578697374656e7420746f6b656e456e756d657261626c654d61703a20696e646578206f7574206f6620626f756e64734552433732313a20617070726f76656420717565727920666f72206e6f6e6578697374656e7420746f6b656e4552433732313a207472616e73666572206f6620746f6b656e2074686174206973206e6f74206f776e4552433732314d657461646174613a2055524920717565727920666f72206e6f6e6578697374656e7420746f6b656e4552433732313a20617070726f76616c20746f2063757272656e74206f776e65724552433732313a207472616e736665722063616c6c6572206973206e6f74206f776e6572206e6f7220617070726f7665644f6e6c79207075707079206f776e65722063616e20706572666f726d20746869732066756e6374696f6ea26469706673582212203c68ad5e0569c0cc3dcfd03c58d8707544be0702fa5e99995f6c7e7c997e297c64736f6c63430006020033",
  "source": "// SPDX-License-Identifier: MIT\npragma solidity ^0.6.2;\n\nimport \"./IClaims.sol\";\nimport \"@openzeppelin/contracts/token/ERC721/ERC721.sol\";\nimport \"@openzeppelin/contracts/access/Ownable.sol\";\n\nenum Sex { Male, Female }\n\nstruct Dog {\n    string name;\n    uint256 dob;\n    bytes32 microchip;\n    uint256 dam;\n    uint256 sire;\n    Sex sex;\n    uint256 timestamp;\n    address owner;\n}\n\ncontract DogERC721 is ERC721, IClaims, Ownable {\n    mapping(address => bool) private _writers;\n    mapping(bytes32 => Dog) private _dogs; \n\n    Dog[] public pack;\n    mapping(uint256 => mapping(address => mapping(bytes32 => bytes32))) public registry;\n\n    string private _name;\n    string private _symbol;\n    mapping(uint256 => string) private _tokenURIs;\n    uint256 private _count;\n\n    bytes4 private constant _INTERFACE_ID_ERC721_METADATA = 0x5b5e139f;\n\n    constructor() public ERC721(\"BEAGLES\", \"DD\") {\n        //_name = \"BEAGLES\";\n        //_symbol = \"DD\";\n        // register the supported interfaces to conform to ERC721 via ERC165\n        _registerInterface(_INTERFACE_ID_ERC721_METADATA);\n    }\n\n    function count() public view returns (uint256) {\n        return _count;\n    }\n\n    function addLitter(uint256 dob, uint256 dam, uint256 sire, uint256 males, uint256 females, address owner) external onlyOwner() {\n        for (uint256 i = 0; i < males; i++) {\n            _addPuppy(\"\", dob, 0x00, Sex.Male, dam, sire, owner);\n        }\n\n        for (uint256 i = 0; i < females; i++) {\n            _addPuppy(\"\", dob, 0x00, Sex.Female, dam, sire, owner);\n        }\n    }\n\n    function addOwnPuppy(string calldata name, uint256 dob, bytes32 microchip, Sex sex, uint256 dam, uint256 sire) external onlyOwner() {\n        _addPuppy(name, dob, microchip, sex, dam, sire, msg.sender);\n    }\n\n    function addPuppy(string calldata name, uint256 dob, bytes32 microchip, Sex sex, uint256 dam, uint256 sire, address owner) external onlyOwner() {\n        _addPuppy(name, dob, microchip, sex, dam, sire, owner);\n    }\n\n    function _addPuppy(string memory name, uint256 dob, bytes32 microchip, Sex sex, uint256 dam, uint256 sire, address owner) internal {\n        uint256 id = pack.length;\n        pack.push(Dog(name, dob, microchip, dam, sire, sex, now, owner));\n\n        _count += 1;\n        _safeMint(owner, id);\n\n        emit Transfer(owner, owner, id);\n        emit PuppyAdded(id);\n    }\n\n    function getPuppy(uint256 tokenId) external view returns (string memory, uint256, Sex, uint256, uint256) {\n        return (\n            pack[tokenId].name,\n            pack[tokenId].dob,\n            pack[tokenId].sex,\n            pack[tokenId].dam,\n            pack[tokenId].sire\n        );\n    }\n\n    function removePuppy(uint256 tokenId) external onlyOwner() {\n        delete pack[tokenId];\n        _count -= 1;\n        emit PuppyRemoved(tokenId);\n    }\n        \n    function updateDam(uint256 tokenId, uint256 dam) external onlyDogOwner(tokenId) {\n        pack[tokenId].dam = dam;\n    }\n\n    function updateSire(uint256 tokenId, uint256 sire) external onlyDogOwner(tokenId) {\n        pack[tokenId].sire = sire;\n    }\n\n    function updateTitle(uint256 tokenId, string calldata name) external onlyOwner() {\n        pack[tokenId].name = name;\n    }\n\n    function updateMicrochip(uint256 tokenId, bytes32 microchip) external onlyOwner() {\n        pack[tokenId].microchip = microchip;\n        _setClaim(tokenId, msg.sender, \"MICROCHIP NO\", microchip);\n    }\n\n    // create or update claims\n    function setClaim(uint256 tokenId, address issuer, bytes32 key, bytes32 value) external override onlyOwner() {\n        _setClaim(tokenId, issuer, key, value);\n    }\n\n    function setSelfClaim(uint256 tokenId, bytes32 key, bytes32 value) external override onlyDogOwner(tokenId) {\n        _setClaim(tokenId, msg.sender, key, value);\n    }\n\n    function getClaim(uint256 tokenId, address issuer, bytes32 key) external override view returns(bytes32) {\n        return registry[tokenId][issuer][key];\n    }\n\n    function removeClaim(uint256 tokenId, address issuer, bytes32 key) external override {\n        require(msg.sender == issuer, \"Only issuer\");\n        delete registry[tokenId][issuer][key];\n        emit ClaimRemoved(msg.sender, tokenId, key, now);\n    }\n\n    function _setClaim(uint256 tokenId, address issuer, bytes32 key, bytes32 value) private {\n        registry[tokenId][issuer][key] = value;\n        emit ClaimSet(msg.sender, tokenId, key, value, now);\n    }\n\n    event ClaimSet(address indexed issuer, uint indexed tokenId, bytes32 indexed key, bytes32 value, uint updatedAt);\n    event ClaimRemoved(address indexed issuer, uint indexed tokenId, bytes32 indexed key, uint removedAt);\n\n    event PuppyAdded(uint256 tokenId);\n    event PuppyRemoved(uint256 tokenId);\n\n    modifier onlyDogOwner(uint256 tokenId) {\n        require(pack[tokenId].owner == msg.sender, \"Only puppy owner can perform this function\");\n        _;\n    }\n}\n",
  "sourcePath": "/home/lucascullen/GitHub/dltx/digitaldogs.github.io/src/contracts/DogERC721.sol",
  "compiler": {
    "name": "solc",
    "version": "0.6.2+commit.bacdbe57.Emscripten.clang"
  },
  "schemaVersion": "3.2.5",
  "updatedAt": "2021-03-10T05:40:53.321Z",
  "networkType": "ethereum",
  "devdoc": {
    "methods": {
      "approve(address,uint256)": {
        "details": "See {IERC721-approve}."
      },
      "balanceOf(address)": {
        "details": "See {IERC721-balanceOf}."
      },
      "baseURI()": {
        "details": "Returns the base URI set via {_setBaseURI}. This will be automatically added as a prefix in {tokenURI} to each token's URI, or to the token ID if no specific URI is set for that token ID."
      },
      "getApproved(uint256)": {
        "details": "See {IERC721-getApproved}."
      },
      "isApprovedForAll(address,address)": {
        "details": "See {IERC721-isApprovedForAll}."
      },
      "name()": {
        "details": "See {IERC721Metadata-name}."
      },
      "owner()": {
        "details": "Returns the address of the current owner."
      },
      "ownerOf(uint256)": {
        "details": "See {IERC721-ownerOf}."
      },
      "renounceOwnership()": {
        "details": "Leaves the contract without owner. It will not be possible to call `onlyOwner` functions anymore. Can only be called by the current owner.     * NOTE: Renouncing ownership will leave the contract without an owner, thereby removing any functionality that is only available to the owner."
      },
      "safeTransferFrom(address,address,uint256)": {
        "details": "See {IERC721-safeTransferFrom}."
      },
      "safeTransferFrom(address,address,uint256,bytes)": {
        "details": "See {IERC721-safeTransferFrom}."
      },
      "setApprovalForAll(address,bool)": {
        "details": "See {IERC721-setApprovalForAll}."
      },
      "supportsInterface(bytes4)": {
        "details": "See {IERC165-supportsInterface}.     * Time complexity O(1), guaranteed to always use less than 30 000 gas."
      },
      "symbol()": {
        "details": "See {IERC721Metadata-symbol}."
      },
      "tokenByIndex(uint256)": {
        "details": "See {IERC721Enumerable-tokenByIndex}."
      },
      "tokenOfOwnerByIndex(address,uint256)": {
        "details": "See {IERC721Enumerable-tokenOfOwnerByIndex}."
      },
      "tokenURI(uint256)": {
        "details": "See {IERC721Metadata-tokenURI}."
      },
      "totalSupply()": {
        "details": "See {IERC721Enumerable-totalSupply}."
      },
      "transferFrom(address,address,uint256)": {
        "details": "See {IERC721-transferFrom}."
      },
      "transferOwnership(address)": {
        "details": "Transfers ownership of the contract to a new account (`newOwner`). Can only be called by the current owner."
      }
    }
  },
  "userdoc": {
    "methods": {}
  }
}