{
  "contractName": "DogERC721Metadata",
  "abi": [
    {
      "constant": true,
      "inputs": [
        {
          "name": "interfaceId",
          "type": "bytes4"
        }
      ],
      "name": "supportsInterface",
      "outputs": [
        {
          "name": "",
          "type": "bool"
        }
      ],
      "payable": false,
      "stateMutability": "view",
      "type": "function"
    },
    {
      "constant": true,
      "inputs": [
        {
          "name": "tokenId",
          "type": "uint256"
        }
      ],
      "name": "getApproved",
      "outputs": [
        {
          "name": "",
          "type": "address"
        }
      ],
      "payable": false,
      "stateMutability": "view",
      "type": "function"
    },
    {
      "constant": false,
      "inputs": [
        {
          "name": "to",
          "type": "address"
        },
        {
          "name": "tokenId",
          "type": "uint256"
        }
      ],
      "name": "approve",
      "outputs": [],
      "payable": false,
      "stateMutability": "nonpayable",
      "type": "function"
    },
    {
      "constant": false,
      "inputs": [
        {
          "name": "from",
          "type": "address"
        },
        {
          "name": "to",
          "type": "address"
        },
        {
          "name": "tokenId",
          "type": "uint256"
        }
      ],
      "name": "transferFrom",
      "outputs": [],
      "payable": false,
      "stateMutability": "nonpayable",
      "type": "function"
    },
    {
      "constant": false,
      "inputs": [
        {
          "name": "from",
          "type": "address"
        },
        {
          "name": "to",
          "type": "address"
        },
        {
          "name": "tokenId",
          "type": "uint256"
        }
      ],
      "name": "safeTransferFrom",
      "outputs": [],
      "payable": false,
      "stateMutability": "nonpayable",
      "type": "function"
    },
    {
      "constant": true,
      "inputs": [
        {
          "name": "tokenId",
          "type": "uint256"
        }
      ],
      "name": "ownerOf",
      "outputs": [
        {
          "name": "",
          "type": "address"
        }
      ],
      "payable": false,
      "stateMutability": "view",
      "type": "function"
    },
    {
      "constant": true,
      "inputs": [
        {
          "name": "",
          "type": "uint256"
        }
      ],
      "name": "pack",
      "outputs": [
        {
          "name": "name",
          "type": "string"
        },
        {
          "name": "dob",
          "type": "uint256"
        },
        {
          "name": "microchip",
          "type": "string"
        },
        {
          "name": "dam",
          "type": "uint256"
        },
        {
          "name": "sire",
          "type": "uint256"
        },
        {
          "name": "sex",
          "type": "uint8"
        },
        {
          "name": "timestamp",
          "type": "uint256"
        }
      ],
      "payable": false,
      "stateMutability": "view",
      "type": "function"
    },
    {
      "constant": true,
      "inputs": [
        {
          "name": "owner",
          "type": "address"
        }
      ],
      "name": "balanceOf",
      "outputs": [
        {
          "name": "",
          "type": "uint256"
        }
      ],
      "payable": false,
      "stateMutability": "view",
      "type": "function"
    },
    {
      "constant": false,
      "inputs": [],
      "name": "renounceOwnership",
      "outputs": [],
      "payable": false,
      "stateMutability": "nonpayable",
      "type": "function"
    },
    {
      "constant": true,
      "inputs": [],
      "name": "owner",
      "outputs": [
        {
          "name": "",
          "type": "address"
        }
      ],
      "payable": false,
      "stateMutability": "view",
      "type": "function"
    },
    {
      "constant": true,
      "inputs": [],
      "name": "isOwner",
      "outputs": [
        {
          "name": "",
          "type": "bool"
        }
      ],
      "payable": false,
      "stateMutability": "view",
      "type": "function"
    },
    {
      "constant": false,
      "inputs": [
        {
          "name": "to",
          "type": "address"
        },
        {
          "name": "approved",
          "type": "bool"
        }
      ],
      "name": "setApprovalForAll",
      "outputs": [],
      "payable": false,
      "stateMutability": "nonpayable",
      "type": "function"
    },
    {
      "constant": false,
      "inputs": [
        {
          "name": "from",
          "type": "address"
        },
        {
          "name": "to",
          "type": "address"
        },
        {
          "name": "tokenId",
          "type": "uint256"
        },
        {
          "name": "_data",
          "type": "bytes"
        }
      ],
      "name": "safeTransferFrom",
      "outputs": [],
      "payable": false,
      "stateMutability": "nonpayable",
      "type": "function"
    },
    {
      "constant": true,
      "inputs": [],
      "name": "fee",
      "outputs": [
        {
          "name": "",
          "type": "uint256"
        }
      ],
      "payable": false,
      "stateMutability": "view",
      "type": "function"
    },
    {
      "constant": true,
      "inputs": [
        {
          "name": "owner",
          "type": "address"
        },
        {
          "name": "operator",
          "type": "address"
        }
      ],
      "name": "isApprovedForAll",
      "outputs": [
        {
          "name": "",
          "type": "bool"
        }
      ],
      "payable": false,
      "stateMutability": "view",
      "type": "function"
    },
    {
      "constant": false,
      "inputs": [
        {
          "name": "newOwner",
          "type": "address"
        }
      ],
      "name": "transferOwnership",
      "outputs": [],
      "payable": false,
      "stateMutability": "nonpayable",
      "type": "function"
    },
    {
      "inputs": [],
      "payable": false,
      "stateMutability": "nonpayable",
      "type": "constructor"
    },
    {
      "anonymous": false,
      "inputs": [
        {
          "indexed": false,
          "name": "_tokenId",
          "type": "uint256"
        }
      ],
      "name": "PuppyAdded",
      "type": "event"
    },
    {
      "anonymous": false,
      "inputs": [
        {
          "indexed": false,
          "name": "_tokenId",
          "type": "uint256"
        }
      ],
      "name": "PuppyRemoved",
      "type": "event"
    },
    {
      "anonymous": false,
      "inputs": [
        {
          "indexed": true,
          "name": "previousOwner",
          "type": "address"
        }
      ],
      "name": "OwnershipRenounced",
      "type": "event"
    },
    {
      "anonymous": false,
      "inputs": [
        {
          "indexed": true,
          "name": "previousOwner",
          "type": "address"
        },
        {
          "indexed": true,
          "name": "newOwner",
          "type": "address"
        }
      ],
      "name": "OwnershipTransferred",
      "type": "event"
    },
    {
      "anonymous": false,
      "inputs": [
        {
          "indexed": true,
          "name": "from",
          "type": "address"
        },
        {
          "indexed": true,
          "name": "to",
          "type": "address"
        },
        {
          "indexed": true,
          "name": "tokenId",
          "type": "uint256"
        }
      ],
      "name": "Transfer",
      "type": "event"
    },
    {
      "anonymous": false,
      "inputs": [
        {
          "indexed": true,
          "name": "owner",
          "type": "address"
        },
        {
          "indexed": true,
          "name": "approved",
          "type": "address"
        },
        {
          "indexed": true,
          "name": "tokenId",
          "type": "uint256"
        }
      ],
      "name": "Approval",
      "type": "event"
    },
    {
      "anonymous": false,
      "inputs": [
        {
          "indexed": true,
          "name": "owner",
          "type": "address"
        },
        {
          "indexed": true,
          "name": "operator",
          "type": "address"
        },
        {
          "indexed": false,
          "name": "approved",
          "type": "bool"
        }
      ],
      "name": "ApprovalForAll",
      "type": "event"
    },
    {
      "constant": true,
      "inputs": [],
      "name": "name",
      "outputs": [
        {
          "name": "",
          "type": "string"
        }
      ],
      "payable": false,
      "stateMutability": "view",
      "type": "function"
    },
    {
      "constant": true,
      "inputs": [],
      "name": "symbol",
      "outputs": [
        {
          "name": "",
          "type": "string"
        }
      ],
      "payable": false,
      "stateMutability": "view",
      "type": "function"
    },
    {
      "constant": true,
      "inputs": [
        {
          "name": "tokenId",
          "type": "uint256"
        }
      ],
      "name": "tokenURI",
      "outputs": [
        {
          "name": "",
          "type": "string"
        }
      ],
      "payable": false,
      "stateMutability": "view",
      "type": "function"
    },
    {
      "constant": true,
      "inputs": [],
      "name": "totalSupply",
      "outputs": [
        {
          "name": "",
          "type": "uint256"
        }
      ],
      "payable": false,
      "stateMutability": "view",
      "type": "function"
    },
    {
      "constant": false,
      "inputs": [
        {
          "name": "dob",
          "type": "uint256"
        },
        {
          "name": "dam",
          "type": "uint256"
        },
        {
          "name": "sire",
          "type": "uint256"
        },
        {
          "name": "numberOfMales",
          "type": "uint256"
        },
        {
          "name": "numberOfFemales",
          "type": "uint256"
        },
        {
          "name": "owner",
          "type": "address"
        }
      ],
      "name": "addLitter",
      "outputs": [],
      "payable": true,
      "stateMutability": "payable",
      "type": "function"
    },
    {
      "constant": false,
      "inputs": [
        {
          "name": "dogsName",
          "type": "string"
        },
        {
          "name": "dob",
          "type": "uint256"
        },
        {
          "name": "microchip",
          "type": "string"
        },
        {
          "name": "sex",
          "type": "uint8"
        },
        {
          "name": "dam",
          "type": "uint256"
        },
        {
          "name": "sire",
          "type": "uint256"
        },
        {
          "name": "owner",
          "type": "address"
        }
      ],
      "name": "addPuppy",
      "outputs": [],
      "payable": true,
      "stateMutability": "payable",
      "type": "function"
    },
    {
      "constant": true,
      "inputs": [
        {
          "name": "_tokenId",
          "type": "uint256"
        }
      ],
      "name": "getPuppy",
      "outputs": [
        {
          "name": "",
          "type": "string"
        },
        {
          "name": "",
          "type": "uint256"
        },
        {
          "name": "",
          "type": "uint8"
        },
        {
          "name": "",
          "type": "uint256"
        },
        {
          "name": "",
          "type": "uint256"
        },
        {
          "name": "",
          "type": "address"
        }
      ],
      "payable": false,
      "stateMutability": "view",
      "type": "function"
    },
    {
      "constant": false,
      "inputs": [
        {
          "name": "_tokenId",
          "type": "uint256"
        }
      ],
      "name": "removePuppy",
      "outputs": [],
      "payable": false,
      "stateMutability": "nonpayable",
      "type": "function"
    },
    {
      "constant": false,
      "inputs": [
        {
          "name": "_tokenId",
          "type": "uint256"
        },
        {
          "name": "_newName",
          "type": "string"
        }
      ],
      "name": "updateTitle",
      "outputs": [],
      "payable": false,
      "stateMutability": "nonpayable",
      "type": "function"
    },
    {
      "constant": false,
      "inputs": [
        {
          "name": "_tokenId",
          "type": "uint256"
        },
        {
          "name": "_microchip",
          "type": "string"
        }
      ],
      "name": "updateMicrochip",
      "outputs": [],
      "payable": false,
      "stateMutability": "nonpayable",
      "type": "function"
    },
    {
      "constant": false,
      "inputs": [
        {
          "name": "_fee",
          "type": "uint256"
        }
      ],
      "name": "setFee",
      "outputs": [],
      "payable": false,
      "stateMutability": "nonpayable",
      "type": "function"
    }
  ],
  "bytecode": "0x60806040523480156200001157600080fd5b506200004f6301ffc9a77c010000000000000000000000000000000000000000000000000000000002620001ac640100000000026401000000009004565b6200008c6380ac58cd7c010000000000000000000000000000000000000000000000000000000002620001ac640100000000026401000000009004565b33600560006101000a81548173ffffffffffffffffffffffffffffffffffffffff021916908373ffffffffffffffffffffffffffffffffffffffff1602179055506040805190810160405280600781526020017f424541474c455300000000000000000000000000000000000000000000000000815250600990805190602001906200011a9291906200026a565b506040805190810160405280600381526020017f4444410000000000000000000000000000000000000000000000000000000000815250600a9080519060200190620001689291906200026a565b50620001a6635b5e139f7c010000000000000000000000000000000000000000000000000000000002620001ac640100000000026401000000009004565b62000319565b63ffffffff7c010000000000000000000000000000000000000000000000000000000002817bffffffffffffffffffffffffffffffffffffffffffffffffffffffff191614151515620001fe57600080fd5b6001600080837bffffffffffffffffffffffffffffffffffffffffffffffffffffffff19167bffffffffffffffffffffffffffffffffffffffffffffffffffffffff1916815260200190815260200160002060006101000a81548160ff02191690831515021790555050565b828054600181600116156101000203166002900490600052602060002090601f016020900481019282601f10620002ad57805160ff1916838001178555620002de565b82800160010185558215620002de579182015b82811115620002dd578251825591602001919060010190620002c0565b5b509050620002ed9190620002f1565b5090565b6200031691905b8082111562000312576000816000905550600101620002f8565b5090565b90565b6130f880620003296000396000f3fe6080604052600436106101b9576000357c0100000000000000000000000000000000000000000000000000000000900480636ea4255511610109578063a22cb465116100a7578063ddca3f4311610081578063ddca3f4314610d5d578063e985e9c514610d88578063f2fde38b14610e11578063f36c83f014610e62576101b9565b8063a22cb46514610b3a578063b88d4fde14610b97578063c87b56dd14610ca9576101b9565b80638da5cb5b116100e35780638da5cb5b146109945780638f32d59b146109eb57806392e1321c14610a1a57806395d89b4114610aaa576101b9565b80636ea42555146107c757806370a0823114610918578063715018a61461097d576101b9565b80632ef848cf116101765780635786ead2116101505780635786ead21461064657806360023628146106d65780636352211e1461071157806369fe0e2d1461078c576101b9565b80632ef848cf1461043c57806342842e0e146104b2578063517fa8bf1461052d576101b9565b806301ffc9a7146101be57806306fdde0314610230578063081812fc146102c0578063095ea7b31461033b57806318160ddd1461039657806323b872dd146103c1575b600080fd5b3480156101ca57600080fd5b50610216600480360360208110156101e157600080fd5b8101908080357bffffffffffffffffffffffffffffffffffffffffffffffffffffffff19169060200190929190505050610f73565b604051808215151515815260200191505060405180910390f35b34801561023c57600080fd5b50610245610fda565b6040518080602001828103825283818151815260200191508051906020019080838360005b8381101561028557808201518184015260208101905061026a565b50505050905090810190601f1680156102b25780820380516001836020036101000a031916815260200191505b509250505060405180910390f35b3480156102cc57600080fd5b506102f9600480360360208110156102e357600080fd5b810190808035906020019092919050505061107c565b604051808273ffffffffffffffffffffffffffffffffffffffff1673ffffffffffffffffffffffffffffffffffffffff16815260200191505060405180910390f35b34801561034757600080fd5b506103946004803603604081101561035e57600080fd5b81019080803573ffffffffffffffffffffffffffffffffffffffff16906020019092919080359060200190929190505050611136565b005b3480156103a257600080fd5b506103ab6112e4565b6040518082815260200191505060405180910390f35b3480156103cd57600080fd5b5061043a600480360360608110156103e457600080fd5b81019080803573ffffffffffffffffffffffffffffffffffffffff169060200190929190803573ffffffffffffffffffffffffffffffffffffffff169060200190929190803590602001909291905050506112f1565b005b6104b0600480360360c081101561045257600080fd5b810190808035906020019092919080359060200190929190803590602001909291908035906020019092919080359060200190929190803573ffffffffffffffffffffffffffffffffffffffff16906020019092919050505061137f565b005b3480156104be57600080fd5b5061052b600480360360608110156104d557600080fd5b81019080803573ffffffffffffffffffffffffffffffffffffffff169060200190929190803573ffffffffffffffffffffffffffffffffffffffff1690602001909291908035906020019092919050505061147e565b005b610644600480360360e081101561054357600080fd5b810190808035906020019064010000000081111561056057600080fd5b82018360208201111561057257600080fd5b8035906020019184600183028401116401000000008311171561059457600080fd5b909192939192939080359060200190929190803590602001906401000000008111156105bf57600080fd5b8201836020820111156105d157600080fd5b803590602001918460018302840111640100000000831117156105f357600080fd5b9091929391929390803560ff1690602001909291908035906020019092919080359060200190929190803573ffffffffffffffffffffffffffffffffffffffff16906020019092919050505061149f565b005b34801561065257600080fd5b506106d46004803603604081101561066957600080fd5b81019080803590602001909291908035906020019064010000000081111561069057600080fd5b8201836020820111156106a257600080fd5b803590602001918460018302840111640100000000831117156106c457600080fd5b909192939192939050505061161a565b005b3480156106e257600080fd5b5061070f600480360360208110156106f957600080fd5b81019080803590602001909291905050506116ae565b005b34801561071d57600080fd5b5061074a6004803603602081101561073457600080fd5b81019080803590602001909291905050506117bb565b604051808273ffffffffffffffffffffffffffffffffffffffff1673ffffffffffffffffffffffffffffffffffffffff16815260200191505060405180910390f35b34801561079857600080fd5b506107c5600480360360208110156107af57600080fd5b81019080803590602001909291905050506118a2565b005b3480156107d357600080fd5b50610800600480360360208110156107ea57600080fd5b810190808035906020019092919050505061190b565b60405180806020018881526020018060200187815260200186815260200185600181111561082a57fe5b60ff16815260200184815260200183810383528a818151815260200191508051906020019080838360005b83811015610870578082015181840152602081019050610855565b50505050905090810190601f16801561089d5780820380516001836020036101000a031916815260200191505b50838103825288818151815260200191508051906020019080838360005b838110156108d65780820151818401526020810190506108bb565b50505050905090810190601f1680156109035780820380516001836020036101000a031916815260200191505b50995050505050505050505060405180910390f35b34801561092457600080fd5b506109676004803603602081101561093b57600080fd5b81019080803573ffffffffffffffffffffffffffffffffffffffff169060200190929190505050611a99565b6040518082815260200191505060405180910390f35b34801561098957600080fd5b50610992611b86565b005b3480156109a057600080fd5b506109a9611c8e565b604051808273ffffffffffffffffffffffffffffffffffffffff1673ffffffffffffffffffffffffffffffffffffffff16815260200191505060405180910390f35b3480156109f757600080fd5b50610a00611cb8565b604051808215151515815260200191505060405180910390f35b348015610a2657600080fd5b50610aa860048036036040811015610a3d57600080fd5b810190808035906020019092919080359060200190640100000000811115610a6457600080fd5b820183602082011115610a7657600080fd5b80359060200191846001830284011164010000000083111715610a9857600080fd5b9091929391929390505050611d10565b005b348015610ab657600080fd5b50610abf611da4565b6040518080602001828103825283818151815260200191508051906020019080838360005b83811015610aff578082015181840152602081019050610ae4565b50505050905090810190601f168015610b2c5780820380516001836020036101000a031916815260200191505b509250505060405180910390f35b348015610b4657600080fd5b50610b9560048036036040811015610b5d57600080fd5b81019080803573ffffffffffffffffffffffffffffffffffffffff169060200190929190803515159060200190929190505050611e46565b005b348015610ba357600080fd5b50610ca760048036036080811015610bba57600080fd5b81019080803573ffffffffffffffffffffffffffffffffffffffff169060200190929190803573ffffffffffffffffffffffffffffffffffffffff1690602001909291908035906020019092919080359060200190640100000000811115610c2157600080fd5b820183602082011115610c3357600080fd5b80359060200191846001830284011164010000000083111715610c5557600080fd5b91908080601f016020809104026020016040519081016040528093929190818152602001838380828437600081840152601f19601f820116905080830192505050505050509192919290505050611feb565b005b348015610cb557600080fd5b50610ce260048036036020811015610ccc57600080fd5b810190808035906020019092919050505061207c565b6040518080602001828103825283818151815260200191508051906020019080838360005b83811015610d22578082015181840152602081019050610d07565b50505050905090810190601f168015610d4f5780820380516001836020036101000a031916815260200191505b509250505060405180910390f35b348015610d6957600080fd5b50610d726121ae565b6040518082815260200191505060405180910390f35b348015610d9457600080fd5b50610df760048036036040811015610dab57600080fd5b81019080803573ffffffffffffffffffffffffffffffffffffffff169060200190929190803573ffffffffffffffffffffffffffffffffffffffff1690602001909291905050506121b4565b604051808215151515815260200191505060405180910390f35b348015610e1d57600080fd5b50610e6060048036036020811015610e3457600080fd5b81019080803573ffffffffffffffffffffffffffffffffffffffff169060200190929190505050612248565b005b348015610e6e57600080fd5b50610e9b60048036036020811015610e8557600080fd5b81019080803590602001909291905050506122b3565b6040518080602001878152602001866001811115610eb557fe5b60ff1681526020018581526020018481526020018373ffffffffffffffffffffffffffffffffffffffff1673ffffffffffffffffffffffffffffffffffffffff168152602001828103825288818151815260200191508051906020019080838360005b83811015610f33578082015181840152602081019050610f18565b50505050905090810190601f168015610f605780820380516001836020036101000a031916815260200191505b5097505050505050505060405180910390f35b6000806000837bffffffffffffffffffffffffffffffffffffffffffffffffffffffff19167bffffffffffffffffffffffffffffffffffffffffffffffffffffffff1916815260200190815260200160002060009054906101000a900460ff169050919050565b606060098054600181600116156101000203166002900480601f0160208091040260200160405190810160405280929190818152602001828054600181600116156101000203166002900480156110725780601f1061104757610100808354040283529160200191611072565b820191906000526020600020905b81548152906001019060200180831161105557829003601f168201915b5050505050905090565b60006110878261242d565b15156110fb576040517f08c379a00000000000000000000000000000000000000000000000000000000081526004018080602001828103825260108152602001807f496e76616c696420746f6b656e2069640000000000000000000000000000000081525060200191505060405180910390fd5b6002600083815260200190815260200160002060009054906101000a900473ffffffffffffffffffffffffffffffffffffffff169050919050565b6000611141826117bb565b90508073ffffffffffffffffffffffffffffffffffffffff168373ffffffffffffffffffffffffffffffffffffffff16141515156111e7576040517f08c379a000000000000000000000000000000000000000000000000000000000815260040180806020018281038252600f8152602001807f43616e6e6f74206265206f776e6572000000000000000000000000000000000081525060200191505060405180910390fd5b8073ffffffffffffffffffffffffffffffffffffffff163373ffffffffffffffffffffffffffffffffffffffff161480611227575061122681336121b4565b5b151561123257600080fd5b826002600084815260200190815260200160002060006101000a81548173ffffffffffffffffffffffffffffffffffffffff021916908373ffffffffffffffffffffffffffffffffffffffff160217905550818373ffffffffffffffffffffffffffffffffffffffff168273ffffffffffffffffffffffffffffffffffffffff167f8c5be1e5ebec7d5bd14f71427d1e84f3dd0314c0f7b2291e5b200ac8c7c3b92560405160405180910390a4505050565b6000600780549050905090565b6112fb338261249f565b151561136f576040517f08c379a00000000000000000000000000000000000000000000000000000000081526004018080602001828103825260148152602001807f41646472657373206e6f7420617070726f76656400000000000000000000000081525060200191505060405180910390fd5b61137a838383612534565b505050565b611387611cb8565b15156113de576040517f08c379a00000000000000000000000000000000000000000000000000000000081526004018080602001828103825260268152602001806130a76026913960400191505060405180910390fd5b60008090505b838110156114295761141c602060405190810160405280600081525088602060405190810160405280600081525060008a8a886127e7565b80806001019150506113e4565b5060008090505b8281101561147557611468602060405190810160405280600081525088602060405190810160405280600081525060018a8a886127e7565b8080600101915050611430565b50505050505050565b61149a8383836020604051908101604052806000815250611feb565b505050565b6114a7611cb8565b15156114fe576040517f08c379a00000000000000000000000000000000000000000000000000000000081526004018080602001828103825260268152602001806130a76026913960400191505060405180910390fd5b6008543410151515611578576040517f08c379a000000000000000000000000000000000000000000000000000000000815260040180806020018281038252600d8152602001807f46656520746f6f20736d616c6c0000000000000000000000000000000000000081525060200191505060405180910390fd5b61160f89898080601f016020809104026020016040519081016040528093929190818152602001838380828437600081840152601f19601f820116905080830192505050505050508888888080601f016020809104026020016040519081016040528093929190818152602001838380828437600081840152601f19601f82011690508083019250505050505050878787876127e7565b505050505050505050565b611622611cb8565b1515611679576040517f08c379a00000000000000000000000000000000000000000000000000000000081526004018080602001828103825260268152602001806130a76026913960400191505060405180910390fd5b818160078581548110151561168a57fe5b906000526020600020906007020160000191906116a8929190612f12565b50505050565b6116b6611cb8565b151561170d576040517f08c379a00000000000000000000000000000000000000000000000000000000081526004018080602001828103825260268152602001806130a76026913960400191505060405180910390fd5b60078181548110151561171c57fe5b90600052602060002090600702016000808201600061173b9190612f92565b60018201600090556002820160006117539190612f92565b600382016000905560048201600090556005820160006101000a81549060ff0219169055600682016000905550507f4aea85f6cb1f012def055dd570b2f19414e39ee70238b57777ad09eaf335dbcf816040518082815260200191505060405180910390a150565b6000806001600084815260200190815260200160002060009054906101000a900473ffffffffffffffffffffffffffffffffffffffff169050600073ffffffffffffffffffffffffffffffffffffffff168173ffffffffffffffffffffffffffffffffffffffff1614151515611899576040517f08c379a000000000000000000000000000000000000000000000000000000000815260040180806020018281038252600f8152602001807f496e76616c69642061646472657373000000000000000000000000000000000081525060200191505060405180910390fd5b80915050919050565b6118aa611cb8565b1515611901576040517f08c379a00000000000000000000000000000000000000000000000000000000081526004018080602001828103825260268152602001806130a76026913960400191505060405180910390fd5b8060088190555050565b60078181548110151561191a57fe5b9060005260206000209060070201600091509050806000018054600181600116156101000203166002900480601f0160208091040260200160405190810160405280929190818152602001828054600181600116156101000203166002900480156119c65780601f1061199b576101008083540402835291602001916119c6565b820191906000526020600020905b8154815290600101906020018083116119a957829003601f168201915b505050505090806001015490806002018054600181600116156101000203166002900480601f016020809104026020016040519081016040528092919081815260200182805460018160011615610100020316600290048015611a6a5780601f10611a3f57610100808354040283529160200191611a6a565b820191906000526020600020905b815481529060010190602001808311611a4d57829003601f168201915b5050505050908060030154908060040154908060050160009054906101000a900460ff16908060060154905087565b60008073ffffffffffffffffffffffffffffffffffffffff168273ffffffffffffffffffffffffffffffffffffffff1614151515611b3f576040517f08c379a000000000000000000000000000000000000000000000000000000000815260040180806020018281038252600f8152602001807f496e76616c69642061646472657373000000000000000000000000000000000081525060200191505060405180910390fd5b600360008373ffffffffffffffffffffffffffffffffffffffff1673ffffffffffffffffffffffffffffffffffffffff168152602001908152602001600020549050919050565b611b8e611cb8565b1515611be5576040517f08c379a00000000000000000000000000000000000000000000000000000000081526004018080602001828103825260268152602001806130a76026913960400191505060405180910390fd5b600560009054906101000a900473ffffffffffffffffffffffffffffffffffffffff1673ffffffffffffffffffffffffffffffffffffffff167ff8df31144d9c2f0f6b59d69b8b98abd5459d07f2742c4df920b25aae33c6482060405160405180910390a26000600560006101000a81548173ffffffffffffffffffffffffffffffffffffffff021916908373ffffffffffffffffffffffffffffffffffffffff160217905550565b6000600560009054906101000a900473ffffffffffffffffffffffffffffffffffffffff16905090565b6000600560009054906101000a900473ffffffffffffffffffffffffffffffffffffffff1673ffffffffffffffffffffffffffffffffffffffff163373ffffffffffffffffffffffffffffffffffffffff1614905090565b611d18611cb8565b1515611d6f576040517f08c379a00000000000000000000000000000000000000000000000000000000081526004018080602001828103825260268152602001806130a76026913960400191505060405180910390fd5b8181600785815481101515611d8057fe5b90600052602060002090600702016002019190611d9e929190612f12565b50505050565b6060600a8054600181600116156101000203166002900480601f016020809104026020016040519081016040528092919081815260200182805460018160011615610100020316600290048015611e3c5780601f10611e1157610100808354040283529160200191611e3c565b820191906000526020600020905b815481529060010190602001808311611e1f57829003601f168201915b5050505050905090565b3373ffffffffffffffffffffffffffffffffffffffff168273ffffffffffffffffffffffffffffffffffffffff1614151515611eea576040517f08c379a000000000000000000000000000000000000000000000000000000000815260040180806020018281038252600f8152602001807f43616e6e6f74206265206f776e6572000000000000000000000000000000000081525060200191505060405180910390fd5b80600460003373ffffffffffffffffffffffffffffffffffffffff1673ffffffffffffffffffffffffffffffffffffffff16815260200190815260200160002060008473ffffffffffffffffffffffffffffffffffffffff1673ffffffffffffffffffffffffffffffffffffffff16815260200190815260200160002060006101000a81548160ff0219169083151502179055508173ffffffffffffffffffffffffffffffffffffffff163373ffffffffffffffffffffffffffffffffffffffff167f17307eab39ab6107e8899845ad3d59bd9653f200f220920489ca2b5937696c3183604051808215151515815260200191505060405180910390a35050565b611ff68484846112f1565b61200284848484612a91565b1515612076576040517f08c379a00000000000000000000000000000000000000000000000000000000081526004018080602001828103825260178152602001807f45524337323120636865636b206e6f742070617373656400000000000000000081525060200191505060405180910390fd5b50505050565b60606120878261242d565b15156120fb576040517f08c379a00000000000000000000000000000000000000000000000000000000081526004018080602001828103825260148152602001807f546f6b656e20646f6573206e6f7420657869737400000000000000000000000081525060200191505060405180910390fd5b600b60008381526020019081526020016000208054600181600116156101000203166002900480601f0160208091040260200160405190810160405280929190818152602001828054600181600116156101000203166002900480156121a25780601f10612177576101008083540402835291602001916121a2565b820191906000526020600020905b81548152906001019060200180831161218557829003601f168201915b50505050509050919050565b60085481565b6000600460008473ffffffffffffffffffffffffffffffffffffffff1673ffffffffffffffffffffffffffffffffffffffff16815260200190815260200160002060008373ffffffffffffffffffffffffffffffffffffffff1673ffffffffffffffffffffffffffffffffffffffff16815260200190815260200160002060009054906101000a900460ff16905092915050565b612250611cb8565b15156122a7576040517f08c379a00000000000000000000000000000000000000000000000000000000081526004018080602001828103825260268152602001806130a76026913960400191505060405180910390fd5b6122b081612cb4565b50565b60606000806000806000806122c7886117bb565b90506007888154811015156122d857fe5b90600052602060002090600702016000016007898154811015156122f857fe5b90600052602060002090600702016001015460078a81548110151561231957fe5b906000526020600020906007020160050160009054906101000a900460ff1660078b81548110151561234757fe5b90600052602060002090600702016003015460078c81548110151561236857fe5b90600052602060002090600702016004015485858054600181600116156101000203166002900480601f0160208091040260200160405190810160405280929190818152602001828054600181600116156101000203166002900480156124105780601f106123e557610100808354040283529160200191612410565b820191906000526020600020905b8154815290600101906020018083116123f357829003601f168201915b505050505095509650965096509650965096505091939550919395565b6000806001600084815260200190815260200160002060009054906101000a900473ffffffffffffffffffffffffffffffffffffffff169050600073ffffffffffffffffffffffffffffffffffffffff168173ffffffffffffffffffffffffffffffffffffffff161415915050919050565b6000806124ab836117bb565b90508073ffffffffffffffffffffffffffffffffffffffff168473ffffffffffffffffffffffffffffffffffffffff16148061251a57508373ffffffffffffffffffffffffffffffffffffffff166125028461107c565b73ffffffffffffffffffffffffffffffffffffffff16145b8061252b575061252a81856121b4565b5b91505092915050565b8273ffffffffffffffffffffffffffffffffffffffff16612554826117bb565b73ffffffffffffffffffffffffffffffffffffffff161415156125df576040517f08c379a00000000000000000000000000000000000000000000000000000000081526004018080602001828103825260158152602001807f4e6f742074686520636f7272656374206f776e6572000000000000000000000081525060200191505060405180910390fd5b600073ffffffffffffffffffffffffffffffffffffffff168273ffffffffffffffffffffffffffffffffffffffff1614151515612684576040517f08c379a000000000000000000000000000000000000000000000000000000000815260040180806020018281038252600f8152602001807f496e76616c69642061646472657373000000000000000000000000000000000081525060200191505060405180910390fd5b61268d81612dfc565b6126e06001600360008673ffffffffffffffffffffffffffffffffffffffff1673ffffffffffffffffffffffffffffffffffffffff16815260200190815260200160002054612ebc90919063ffffffff16565b506127346001600360008573ffffffffffffffffffffffffffffffffffffffff1673ffffffffffffffffffffffffffffffffffffffff16815260200190815260200160002054612ede90919063ffffffff16565b50816001600083815260200190815260200160002060006101000a81548173ffffffffffffffffffffffffffffffffffffffff021916908373ffffffffffffffffffffffffffffffffffffffff160217905550808273ffffffffffffffffffffffffffffffffffffffff168473ffffffffffffffffffffffffffffffffffffffff167fddf252ad1be2c89b69c2b068fc378daa952ba7f163c4a11628f55a4df523b3ef60405160405180910390a4505050565b60006007805490509050600760e0604051908101604052808a815260200189815260200188815260200186815260200185815260200187600181111561282957fe5b815260200142815250908060018154018082558091505090600182039060005260206000209060070201600090919290919091506000820151816000019080519060200190612879929190612fda565b506020820151816001015560408201518160020190805190602001906128a0929190612fda565b50606082015181600301556080820151816004015560a08201518160050160006101000a81548160ff021916908360018111156128d957fe5b021790555060c08201518160060155505050816001600083815260200190815260200160002060006101000a81548173ffffffffffffffffffffffffffffffffffffffff021916908373ffffffffffffffffffffffffffffffffffffffff1602179055506129906001600360008573ffffffffffffffffffffffffffffffffffffffff1673ffffffffffffffffffffffffffffffffffffffff16815260200190815260200160002054612ede90919063ffffffff16565b600360008473ffffffffffffffffffffffffffffffffffffffff1673ffffffffffffffffffffffffffffffffffffffff16815260200190815260200160002081905550808273ffffffffffffffffffffffffffffffffffffffff16600560009054906101000a900473ffffffffffffffffffffffffffffffffffffffff1673ffffffffffffffffffffffffffffffffffffffff167fddf252ad1be2c89b69c2b068fc378daa952ba7f163c4a11628f55a4df523b3ef60405160405180910390a47f98f6e57aa4755baead866c21fe3f1a1bdee97be51e462ff15de2395c4fdc78d3816040518082815260200191505060405180910390a15050505050505050565b6000612ab28473ffffffffffffffffffffffffffffffffffffffff16612eff565b1515612ac15760019050612cac565b60008473ffffffffffffffffffffffffffffffffffffffff1663150b7a02338887876040518563ffffffff167c0100000000000000000000000000000000000000000000000000000000028152600401808573ffffffffffffffffffffffffffffffffffffffff1673ffffffffffffffffffffffffffffffffffffffff1681526020018473ffffffffffffffffffffffffffffffffffffffff1673ffffffffffffffffffffffffffffffffffffffff16815260200183815260200180602001828103825283818151815260200191508051906020019080838360005b83811015612bb8578082015181840152602081019050612b9d565b50505050905090810190601f168015612be55780820380516001836020036101000a031916815260200191505b5095505050505050602060405180830381600087803b158015612c0757600080fd5b505af1158015612c1b573d6000803e3d6000fd5b505050506040513d6020811015612c3157600080fd5b8101908080519060200190929190505050905063150b7a027c0100000000000000000000000000000000000000000000000000000000027bffffffffffffffffffffffffffffffffffffffffffffffffffffffff1916817bffffffffffffffffffffffffffffffffffffffffffffffffffffffff1916149150505b949350505050565b600073ffffffffffffffffffffffffffffffffffffffff168173ffffffffffffffffffffffffffffffffffffffff1614151515612d3c576040517f08c379a00000000000000000000000000000000000000000000000000000000081526004018080602001828103825260278152602001806130806027913960400191505060405180910390fd5b8073ffffffffffffffffffffffffffffffffffffffff16600560009054906101000a900473ffffffffffffffffffffffffffffffffffffffff1673ffffffffffffffffffffffffffffffffffffffff167f8be0079c531659141344cd1fd0a4f28419497f9722a3daafe3b4186f6b6457e060405160405180910390a380600560006101000a81548173ffffffffffffffffffffffffffffffffffffffff021916908373ffffffffffffffffffffffffffffffffffffffff16021790555050565b600073ffffffffffffffffffffffffffffffffffffffff166002600083815260200190815260200160002060009054906101000a900473ffffffffffffffffffffffffffffffffffffffff1673ffffffffffffffffffffffffffffffffffffffff16141515612eb95760006002600083815260200190815260200160002060006101000a81548173ffffffffffffffffffffffffffffffffffffffff021916908373ffffffffffffffffffffffffffffffffffffffff1602179055505b50565b6000828211151515612ecd57600080fd5b600082840390508091505092915050565b6000808284019050838110151515612ef557600080fd5b8091505092915050565b600080823b905060008111915050919050565b828054600181600116156101000203166002900490600052602060002090601f016020900481019282601f10612f5357803560ff1916838001178555612f81565b82800160010185558215612f81579182015b82811115612f80578235825591602001919060010190612f65565b5b509050612f8e919061305a565b5090565b50805460018160011615610100020316600290046000825580601f10612fb85750612fd7565b601f016020900490600052602060002090810190612fd6919061305a565b5b50565b828054600181600116156101000203166002900490600052602060002090601f016020900481019282601f1061301b57805160ff1916838001178555613049565b82800160010185558215613049579182015b8281111561304857825182559160200191906001019061302d565b5b509050613056919061305a565b5090565b61307c91905b80821115613078576000816000905550600101613060565b5090565b9056fe596f752063616e6e6f74207472616e7366657220746f20746865207a65726f20616464726573734f6e6c7920746865206f776e65722063616e20706572666f726d207468697320616374696f6ea165627a7a7230582038438ed524e667ed0e7e015ca8338d1d3c9874481ec2693cc391cb72975dd3450029",
  "source": "pragma solidity ^0.5.2;\n\nimport \"./ERC721.sol\";\nimport \"./IERC721Metadata.sol\";\nimport \"./ERC165.sol\";\nimport \"./Ownable.sol\";\nimport \"./SafeMath.sol\";\n\ncontract DogERC721Metadata is ERC165, ERC721, IERC721Metadata, Ownable {\n    using SafeMath for uint256;\n\n    enum Sex {\n        Male,\n        Female\n    }\n\n    struct Dog {\n        string name;\n        uint256 dob;\n        string microchip;\n        uint256 dam;\n        uint256 sire;\n        Sex sex;\n        uint256 timestamp;\n    }\n\n    mapping(address => bool) private _writers;\n\n    Dog[] public pack;\n    uint256 public fee;\n\n    string private _name;\n    string private _symbol;\n    mapping(uint256 => string) private _tokenURIs;\n\n    bytes4 private constant _INTERFACE_ID_ERC721_METADATA = 0x5b5e139f;\n    /*\n     * 0x5b5e139f ===\n     *     bytes4(keccak256('name()')) ^\n     *     bytes4(keccak256('symbol()')) ^\n     *     bytes4(keccak256('tokenURI(uint256)'))\n     */\n\n    // constructor (string memory name, string memory symbol) public {\n    //     _name = name;\n    //     _symbol = symbol;\n\n    //     // register the supported interfaces to conform to ERC721 via ERC165\n    //     _registerInterface(_INTERFACE_ID_ERC721_METADATA);\n    // }\n\n    constructor () public {\n        _name = \"BEAGLES\";\n        _symbol = \"DDA\";\n\n        // register the supported interfaces to conform to ERC721 via ERC165\n        _registerInterface(_INTERFACE_ID_ERC721_METADATA);\n    }\n\n    function name() external view returns (string memory) {\n        return _name;\n    }\n\n    function symbol() external view returns (string memory) {\n        return _symbol;\n    }\n\n    function tokenURI(uint256 tokenId) external view returns (string memory) {\n        require(_exists(tokenId), \"Token does not exist\");\n        return _tokenURIs[tokenId];\n    }\n\n    function totalSupply() public view returns(uint256) {\n        return pack.length;\n    }\n\n    function addLitter(uint256 dob, uint256 dam, uint256 sire, uint numberOfMales, uint numberOfFemales, address owner) external payable onlyOwner() {\n        for (uint i = 0; i < numberOfMales; i++) {\n            _addPuppy(\"\", dob, \"\", Sex.Male, dam, sire, owner);\n        }\n\n        for (uint i = 0; i < numberOfFemales; i++) {\n            _addPuppy(\"\", dob, \"\", Sex.Female, dam, sire, owner);\n        }\n    }\n\n    function addPuppy(string calldata dogsName, uint256 dob, string calldata microchip, Sex sex, uint256 dam, uint256 sire, address owner) external payable onlyOwner() {\n        require(msg.value >= fee, \"Fee too small\");\n\n        _addPuppy(dogsName, dob, microchip, sex, dam, sire, owner);\n    }\n\n    function _addPuppy(string memory dogsName, uint256 dob, string memory microchip, Sex sex, uint256 dam, uint256 sire, address owner) internal {\n        uint id = pack.length;\n        pack.push(Dog(dogsName, dob, microchip, dam, sire, sex, now));\n\n        _tokenOwner[id] = owner;\n        _ownedTokensCount[owner] = _ownedTokensCount[owner].add(1);\n\n        emit Transfer(_owner, owner, id);\n        emit PuppyAdded(id);\n    }\n\n    function getPuppy(uint256 _tokenId) external view returns (string memory, uint256, Sex, uint256, uint256, address) {\n        address owner = ownerOf(_tokenId);\n        return (pack[_tokenId].name, pack[_tokenId].dob, pack[_tokenId].sex, pack[_tokenId].dam, pack[_tokenId].sire, owner);\n    }\n\n    function removePuppy(uint256 _tokenId) external onlyOwner() {\n        delete pack[_tokenId];\n\n        emit PuppyRemoved(_tokenId);\n    }\n\n    function updateTitle(uint256 _tokenId, string calldata _newName) external onlyOwner() {\n        pack[_tokenId].name = _newName;\n    }\n\n    function updateMicrochip(uint256 _tokenId, string calldata _microchip) external onlyOwner() {\n        pack[_tokenId].microchip = _microchip;\n    }\n\n    function setFee(uint256 _fee) public onlyOwner() {\n        fee = _fee;\n    }\n\n    function _setTokenURI(uint256 tokenId, string memory uri) internal {\n        require(_exists(tokenId), \"Token does not exist\");\n        _tokenURIs[tokenId] = uri;\n    }\n\n    event PuppyAdded(uint _tokenId);\n    event PuppyRemoved(uint _tokenId);\n}",
  "sourcePath": "/Users/lucascullen/GitHub/digitaldogs/digitaldogs.github.io/contracts/DogERC721Metadata.sol",
  "compiler": {
    "name": "solc",
    "version": "0.5.2+commit.1df8f40c.Emscripten.clang"
  },
  "schemaVersion": "3.0.1",
  "updatedAt": "2019-02-13T04:21:22.442Z",
  "devdoc": {
    "methods": {
      "supportsInterface(bytes4)": {
        "details": "implement supportsInterface(bytes4) using a lookup table"
      }
    }
  },
  "userdoc": {
    "methods": {}
  }
}