{
  "contractName": "DogERC721",
  "abi": [
    {
      "constant": true,
      "inputs": [
        {
          "name": "",
          "type": "uint256"
        }
      ],
      "name": "_pack",
      "outputs": [
        {
          "name": "name",
          "type": "string"
        },
        {
          "name": "dob",
          "type": "uint256"
        },
        {
          "name": "microchip",
          "type": "string"
        },
        {
          "name": "dam",
          "type": "uint256"
        },
        {
          "name": "sire",
          "type": "uint256"
        },
        {
          "name": "sex",
          "type": "uint8"
        },
        {
          "name": "timestamp",
          "type": "uint256"
        }
      ],
      "payable": false,
      "stateMutability": "view",
      "type": "function"
    },
    {
      "constant": true,
      "inputs": [
        {
          "name": "who",
          "type": "address"
        }
      ],
      "name": "isWriter",
      "outputs": [
        {
          "name": "",
          "type": "bool"
        }
      ],
      "payable": false,
      "stateMutability": "view",
      "type": "function"
    },
    {
      "constant": false,
      "inputs": [
        {
          "name": "who",
          "type": "address"
        }
      ],
      "name": "removeWriter",
      "outputs": [],
      "payable": false,
      "stateMutability": "nonpayable",
      "type": "function"
    },
    {
      "constant": false,
      "inputs": [],
      "name": "renounceOwnership",
      "outputs": [],
      "payable": false,
      "stateMutability": "nonpayable",
      "type": "function"
    },
    {
      "constant": true,
      "inputs": [],
      "name": "owner",
      "outputs": [
        {
          "name": "",
          "type": "address"
        }
      ],
      "payable": false,
      "stateMutability": "view",
      "type": "function"
    },
    {
      "constant": true,
      "inputs": [],
      "name": "isOwner",
      "outputs": [
        {
          "name": "",
          "type": "bool"
        }
      ],
      "payable": false,
      "stateMutability": "view",
      "type": "function"
    },
    {
      "constant": false,
      "inputs": [
        {
          "name": "who",
          "type": "address"
        }
      ],
      "name": "addWriter",
      "outputs": [],
      "payable": false,
      "stateMutability": "nonpayable",
      "type": "function"
    },
    {
      "constant": true,
      "inputs": [],
      "name": "fee",
      "outputs": [
        {
          "name": "",
          "type": "uint256"
        }
      ],
      "payable": false,
      "stateMutability": "view",
      "type": "function"
    },
    {
      "constant": false,
      "inputs": [
        {
          "name": "newOwner",
          "type": "address"
        }
      ],
      "name": "transferOwnership",
      "outputs": [],
      "payable": false,
      "stateMutability": "nonpayable",
      "type": "function"
    },
    {
      "anonymous": false,
      "inputs": [
        {
          "indexed": true,
          "name": "_from",
          "type": "address"
        },
        {
          "indexed": true,
          "name": "_to",
          "type": "address"
        },
        {
          "indexed": false,
          "name": "_tokenId",
          "type": "uint256"
        }
      ],
      "name": "Transfer",
      "type": "event"
    },
    {
      "anonymous": false,
      "inputs": [
        {
          "indexed": true,
          "name": "_owner",
          "type": "address"
        },
        {
          "indexed": true,
          "name": "_approved",
          "type": "address"
        },
        {
          "indexed": false,
          "name": "_tokenId",
          "type": "uint256"
        }
      ],
      "name": "Approval",
      "type": "event"
    },
    {
      "anonymous": false,
      "inputs": [
        {
          "indexed": true,
          "name": "_owner",
          "type": "address"
        },
        {
          "indexed": true,
          "name": "_operator",
          "type": "address"
        },
        {
          "indexed": false,
          "name": "_approved",
          "type": "bool"
        }
      ],
      "name": "ApprovalForAll",
      "type": "event"
    },
    {
      "anonymous": false,
      "inputs": [
        {
          "indexed": true,
          "name": "previousOwner",
          "type": "address"
        }
      ],
      "name": "OwnershipRenounced",
      "type": "event"
    },
    {
      "anonymous": false,
      "inputs": [
        {
          "indexed": true,
          "name": "previousOwner",
          "type": "address"
        },
        {
          "indexed": true,
          "name": "newOwner",
          "type": "address"
        }
      ],
      "name": "OwnershipTransferred",
      "type": "event"
    },
    {
      "constant": true,
      "inputs": [],
      "name": "totalSupply",
      "outputs": [
        {
          "name": "",
          "type": "uint256"
        }
      ],
      "payable": false,
      "stateMutability": "view",
      "type": "function"
    },
    {
      "constant": true,
      "inputs": [
        {
          "name": "_owner",
          "type": "address"
        }
      ],
      "name": "balanceOf",
      "outputs": [
        {
          "name": "_balance",
          "type": "uint256"
        }
      ],
      "payable": false,
      "stateMutability": "view",
      "type": "function"
    },
    {
      "constant": true,
      "inputs": [
        {
          "name": "_tokenId",
          "type": "uint256"
        }
      ],
      "name": "exists",
      "outputs": [
        {
          "name": "_exists",
          "type": "bool"
        }
      ],
      "payable": false,
      "stateMutability": "view",
      "type": "function"
    },
    {
      "constant": true,
      "inputs": [
        {
          "name": "_tokenId",
          "type": "uint256"
        }
      ],
      "name": "ownerOf",
      "outputs": [
        {
          "name": "",
          "type": "address"
        }
      ],
      "payable": false,
      "stateMutability": "view",
      "type": "function"
    },
    {
      "constant": false,
      "inputs": [
        {
          "name": "_to",
          "type": "address"
        },
        {
          "name": "_tokenId",
          "type": "uint256"
        }
      ],
      "name": "approve",
      "outputs": [],
      "payable": false,
      "stateMutability": "nonpayable",
      "type": "function"
    },
    {
      "constant": true,
      "inputs": [
        {
          "name": "_tokenId",
          "type": "uint256"
        }
      ],
      "name": "getApproved",
      "outputs": [
        {
          "name": "",
          "type": "address"
        }
      ],
      "payable": false,
      "stateMutability": "view",
      "type": "function"
    },
    {
      "constant": false,
      "inputs": [
        {
          "name": "_to",
          "type": "address"
        },
        {
          "name": "_approved",
          "type": "bool"
        }
      ],
      "name": "setApprovalForAll",
      "outputs": [],
      "payable": false,
      "stateMutability": "nonpayable",
      "type": "function"
    },
    {
      "constant": true,
      "inputs": [
        {
          "name": "_owner",
          "type": "address"
        },
        {
          "name": "_operator",
          "type": "address"
        }
      ],
      "name": "isApprovedForAll",
      "outputs": [
        {
          "name": "",
          "type": "bool"
        }
      ],
      "payable": false,
      "stateMutability": "view",
      "type": "function"
    },
    {
      "constant": false,
      "inputs": [
        {
          "name": "_from",
          "type": "address"
        },
        {
          "name": "_to",
          "type": "address"
        },
        {
          "name": "_tokenId",
          "type": "uint256"
        }
      ],
      "name": "transferFrom",
      "outputs": [],
      "payable": false,
      "stateMutability": "nonpayable",
      "type": "function"
    },
    {
      "constant": false,
      "inputs": [
        {
          "name": "_from",
          "type": "address"
        },
        {
          "name": "_to",
          "type": "address"
        },
        {
          "name": "_tokenId",
          "type": "uint256"
        }
      ],
      "name": "safeTransferFrom",
      "outputs": [],
      "payable": false,
      "stateMutability": "nonpayable",
      "type": "function"
    },
    {
      "constant": false,
      "inputs": [
        {
          "name": "_from",
          "type": "address"
        },
        {
          "name": "_to",
          "type": "address"
        },
        {
          "name": "_tokenId",
          "type": "uint256"
        },
        {
          "name": "_data",
          "type": "bytes"
        }
      ],
      "name": "safeTransferFrom",
      "outputs": [],
      "payable": false,
      "stateMutability": "nonpayable",
      "type": "function"
    },
    {
      "constant": false,
      "inputs": [
        {
          "name": "name",
          "type": "string"
        },
        {
          "name": "dob",
          "type": "uint256"
        },
        {
          "name": "microchip",
          "type": "string"
        },
        {
          "name": "sex",
          "type": "uint8"
        },
        {
          "name": "dam",
          "type": "uint256"
        },
        {
          "name": "sire",
          "type": "uint256"
        },
        {
          "name": "owner",
          "type": "address"
        }
      ],
      "name": "add",
      "outputs": [],
      "payable": true,
      "stateMutability": "payable",
      "type": "function"
    },
    {
      "constant": true,
      "inputs": [
        {
          "name": "_tokenId",
          "type": "uint256"
        }
      ],
      "name": "get",
      "outputs": [
        {
          "name": "",
          "type": "string"
        },
        {
          "name": "",
          "type": "uint256"
        },
        {
          "name": "",
          "type": "uint8"
        },
        {
          "name": "",
          "type": "uint256"
        },
        {
          "name": "",
          "type": "uint256"
        },
        {
          "name": "",
          "type": "address"
        }
      ],
      "payable": false,
      "stateMutability": "view",
      "type": "function"
    },
    {
      "constant": false,
      "inputs": [
        {
          "name": "_tokenId",
          "type": "uint256"
        }
      ],
      "name": "remove",
      "outputs": [],
      "payable": false,
      "stateMutability": "nonpayable",
      "type": "function"
    },
    {
      "constant": false,
      "inputs": [
        {
          "name": "_fee",
          "type": "uint256"
        }
      ],
      "name": "setFee",
      "outputs": [],
      "payable": false,
      "stateMutability": "nonpayable",
      "type": "function"
    }
  ],
  "bytecode": "0x6080604052336000806101000a81548173ffffffffffffffffffffffffffffffffffffffff021916908373ffffffffffffffffffffffffffffffffffffffff160217905550612a13806100536000396000f3fe60806040526004361061013e576000357c0100000000000000000000000000000000000000000000000000000000900463ffffffff168063081812fc14610143578063082b23eb146101be578063095ea7b31461030f578063130761221461036a57806318160ddd1461048357806323b872dd146104ae5780632b29ba231461052957806342842e0e146105925780634cc822151461060d5780634f558e79146106485780635356dddc1461069b5780636352211e146106ec57806369fe0e2d1461076757806370a08231146107a2578063715018a6146108075780638da5cb5b1461081e5780638f32d59b146108755780639507d39a146108a4578063a22cb465146109b5578063b88d4fde14610a12578063da2824a814610ae2578063ddca3f4314610b33578063e985e9c514610b5e578063f2fde38b14610be7575b600080fd5b34801561014f57600080fd5b5061017c6004803603602081101561016657600080fd5b8101908080359060200190929190505050610c38565b604051808273ffffffffffffffffffffffffffffffffffffffff1673ffffffffffffffffffffffffffffffffffffffff16815260200191505060405180910390f35b3480156101ca57600080fd5b506101f7600480360360208110156101e157600080fd5b8101908080359060200190929190505050610c75565b60405180806020018881526020018060200187815260200186815260200185600181111561022157fe5b60ff16815260200184815260200183810383528a818151815260200191508051906020019080838360005b8381101561026757808201518184015260208101905061024c565b50505050905090810190601f1680156102945780820380516001836020036101000a031916815260200191505b50838103825288818151815260200191508051906020019080838360005b838110156102cd5780820151818401526020810190506102b2565b50505050905090810190601f1680156102fa5780820380516001836020036101000a031916815260200191505b50995050505050505050505060405180910390f35b34801561031b57600080fd5b506103686004803603604081101561033257600080fd5b81019080803573ffffffffffffffffffffffffffffffffffffffff16906020019092919080359060200190929190505050610e03565b005b610481600480360360e081101561038057600080fd5b810190808035906020019064010000000081111561039d57600080fd5b8201836020820111156103af57600080fd5b803590602001918460018302840111640100000000831117156103d157600080fd5b909192939192939080359060200190929190803590602001906401000000008111156103fc57600080fd5b82018360208201111561040e57600080fd5b8035906020019184600183028401116401000000008311171561043057600080fd5b9091929391929390803560ff1690602001909291908035906020019092919080359060200190929190803573ffffffffffffffffffffffffffffffffffffffff16906020019092919050505061104f565b005b34801561048f57600080fd5b506104986113eb565b6040518082815260200191505060405180910390f35b3480156104ba57600080fd5b50610527600480360360608110156104d157600080fd5b81019080803573ffffffffffffffffffffffffffffffffffffffff169060200190929190803573ffffffffffffffffffffffffffffffffffffffff169060200190929190803590602001909291905050506113f8565b005b34801561053557600080fd5b506105786004803603602081101561054c57600080fd5b81019080803573ffffffffffffffffffffffffffffffffffffffff169060200190929190505050611408565b604051808215151515815260200191505060405180910390f35b34801561059e57600080fd5b5061060b600480360360608110156105b557600080fd5b81019080803573ffffffffffffffffffffffffffffffffffffffff169060200190929190803573ffffffffffffffffffffffffffffffffffffffff16906020019092919080359060200190929190505050611502565b005b34801561061957600080fd5b506106466004803603602081101561063057600080fd5b8101908080359060200190929190505050611512565b005b34801561065457600080fd5b506106816004803603602081101561066b57600080fd5b810190808035906020019092919050505061162b565b604051808215151515815260200191505060405180910390f35b3480156106a757600080fd5b506106ea600480360360208110156106be57600080fd5b81019080803573ffffffffffffffffffffffffffffffffffffffff169060200190929190505050611697565b005b3480156106f857600080fd5b506107256004803603602081101561070f57600080fd5b8101908080359060200190929190505050611830565b604051808273ffffffffffffffffffffffffffffffffffffffff1673ffffffffffffffffffffffffffffffffffffffff16815260200191505060405180910390f35b34801561077357600080fd5b506107a06004803603602081101561078a57600080fd5b810190808035906020019092919050505061186d565b005b3480156107ae57600080fd5b506107f1600480360360208110156107c557600080fd5b81019080803573ffffffffffffffffffffffffffffffffffffffff169060200190929190505050611919565b6040518082815260200191505060405180910390f35b34801561081357600080fd5b5061081c611a06565b005b34801561082a57600080fd5b50610833611b4f565b604051808273ffffffffffffffffffffffffffffffffffffffff1673ffffffffffffffffffffffffffffffffffffffff16815260200191505060405180910390f35b34801561088157600080fd5b5061088a611b78565b604051808215151515815260200191505060405180910390f35b3480156108b057600080fd5b506108dd600480360360208110156108c757600080fd5b8101908080359060200190929190505050611bcf565b60405180806020018781526020018660018111156108f757fe5b60ff1681526020018581526020018481526020018373ffffffffffffffffffffffffffffffffffffffff1673ffffffffffffffffffffffffffffffffffffffff168152602001828103825288818151815260200191508051906020019080838360005b8381101561097557808201518184015260208101905061095a565b50505050905090810190601f1680156109a25780820380516001836020036101000a031916815260200191505b5097505050505050505060405180910390f35b3480156109c157600080fd5b50610a10600480360360408110156109d857600080fd5b81019080803573ffffffffffffffffffffffffffffffffffffffff169060200190929190803515159060200190929190505050611d40565b005b348015610a1e57600080fd5b50610ae060048036036080811015610a3557600080fd5b81019080803573ffffffffffffffffffffffffffffffffffffffff169060200190929190803573ffffffffffffffffffffffffffffffffffffffff1690602001909291908035906020019092919080359060200190640100000000811115610a9c57600080fd5b820183602082011115610aae57600080fd5b80359060200191846001830284011164010000000083111715610ad057600080fd5b9091929391929390505050611e7c565b005b348015610aee57600080fd5b50610b3160048036036020811015610b0557600080fd5b81019080803573ffffffffffffffffffffffffffffffffffffffff169060200190929190505050611e8e565b005b348015610b3f57600080fd5b50610b4861202f565b6040518082815260200191505060405180910390f35b348015610b6a57600080fd5b50610bcd60048036036040811015610b8157600080fd5b81019080803573ffffffffffffffffffffffffffffffffffffffff169060200190929190803573ffffffffffffffffffffffffffffffffffffffff169060200190929190505050612035565b604051808215151515815260200191505060405180910390f35b348015610bf357600080fd5b50610c3660048036036020811015610c0a57600080fd5b81019080803573ffffffffffffffffffffffffffffffffffffffff1690602001909291905050506120c9565b005b60006004600083815260200190815260200160002060009054906101000a900473ffffffffffffffffffffffffffffffffffffffff169050919050565b600781815481101515610c8457fe5b9060005260206000209060070201600091509050806000018054600181600116156101000203166002900480601f016020809104026020016040519081016040528092919081815260200182805460018160011615610100020316600290048015610d305780601f10610d0557610100808354040283529160200191610d30565b820191906000526020600020905b815481529060010190602001808311610d1357829003601f168201915b505050505090806001015490806002018054600181600116156101000203166002900480601f016020809104026020016040519081016040528092919081815260200182805460018160011615610100020316600290048015610dd45780601f10610da957610100808354040283529160200191610dd4565b820191906000526020600020905b815481529060010190602001808311610db757829003601f168201915b5050505050908060030154908060040154908060050160009054906101000a900460ff16908060060154905087565b60006003600083815260200190815260200160002060009054906101000a900473ffffffffffffffffffffffffffffffffffffffff1690508073ffffffffffffffffffffffffffffffffffffffff168373ffffffffffffffffffffffffffffffffffffffff1614151515610edf576040517f08c379a00000000000000000000000000000000000000000000000000000000081526004018080602001828103825260108152602001807f43616e206e6f74206265206f776e65720000000000000000000000000000000081525060200191505060405180910390fd5b8073ffffffffffffffffffffffffffffffffffffffff163373ffffffffffffffffffffffffffffffffffffffff161480610f1f5750610f1e8133612035565b5b1515610f93576040517f08c379a00000000000000000000000000000000000000000000000000000000081526004018080602001828103825260078152602001807f496e76616c69640000000000000000000000000000000000000000000000000081525060200191505060405180910390fd5b826004600084815260200190815260200160002060006101000a81548173ffffffffffffffffffffffffffffffffffffffff021916908373ffffffffffffffffffffffffffffffffffffffff1602179055508273ffffffffffffffffffffffffffffffffffffffff168173ffffffffffffffffffffffffffffffffffffffff167f8c5be1e5ebec7d5bd14f71427d1e84f3dd0314c0f7b2291e5b200ac8c7c3b925846040518082815260200191505060405180910390a3505050565b611057611b78565b15156110f1576040517f08c379a00000000000000000000000000000000000000000000000000000000081526004018080602001828103825260268152602001807f4f6e6c7920746865206f776e65722063616e20706572666f726d20746869732081526020017f616374696f6e000000000000000000000000000000000000000000000000000081525060400191505060405180910390fd5b600854341015151561116b576040517f08c379a000000000000000000000000000000000000000000000000000000000815260040180806020018281038252600d8152602001807f46656520746f6f20736d616c6c0000000000000000000000000000000000000081525060200191505060405180910390fd5b60006007805490509050600760e0604051908101604052808c8c8080601f016020809104026020016040519081016040528093929190818152602001838380828437600081840152601f19601f8201169050808301925050505050505081526020018a815260200189898080601f016020809104026020016040519081016040528093929190818152602001838380828437600081840152601f19601f82011690508083019250505050505050815260200186815260200185815260200187600181111561123557fe5b8152602001428152509080600181540180825580915050906001820390600052602060002090600702016000909192909190915060008201518160000190805190602001906112859291906128fa565b506020820151816001015560408201518160020190805190602001906112ac9291906128fa565b50606082015181600301556080820151816004015560a08201518160050160006101000a81548160ff021916908360018111156112e557fe5b021790555060c08201518160060155505050816003600083815260200190815260200160002060006101000a81548173ffffffffffffffffffffffffffffffffffffffff021916908373ffffffffffffffffffffffffffffffffffffffff16021790555061139c6001600560008573ffffffffffffffffffffffffffffffffffffffff1673ffffffffffffffffffffffffffffffffffffffff1681526020019081526020016000205461217790919063ffffffff16565b600560008473ffffffffffffffffffffffffffffffffffffffff1673ffffffffffffffffffffffffffffffffffffffff1681526020019081526020016000208190555050505050505050505050565b6000600780549050905090565b611403838383612198565b505050565b60008073ffffffffffffffffffffffffffffffffffffffff168273ffffffffffffffffffffffffffffffffffffffff16141515156114ae576040517f08c379a000000000000000000000000000000000000000000000000000000000815260040180806020018281038252600f8152602001807f496e76616c69642061646472657373000000000000000000000000000000000081525060200191505060405180910390fd5b600160003373ffffffffffffffffffffffffffffffffffffffff1673ffffffffffffffffffffffffffffffffffffffff16815260200190815260200160002060009054906101000a900460ff169050919050565b61150d838383612198565b505050565b61151a611b78565b15156115b4576040517f08c379a00000000000000000000000000000000000000000000000000000000081526004018080602001828103825260268152602001807f4f6e6c7920746865206f776e65722063616e20706572666f726d20746869732081526020017f616374696f6e000000000000000000000000000000000000000000000000000081525060400191505060405180910390fd5b6007818154811015156115c357fe5b9060005260206000209060070201600080820160006115e2919061297a565b60018201600090556002820160006115fa919061297a565b600382016000905560048201600090556005820160006101000a81549060ff02191690556006820160009055505050565b60008073ffffffffffffffffffffffffffffffffffffffff166003600084815260200190815260200160002060009054906101000a900473ffffffffffffffffffffffffffffffffffffffff1673ffffffffffffffffffffffffffffffffffffffff1614159050919050565b61169f611b78565b1515611739576040517f08c379a00000000000000000000000000000000000000000000000000000000081526004018080602001828103825260268152602001807f4f6e6c7920746865206f776e65722063616e20706572666f726d20746869732081526020017f616374696f6e000000000000000000000000000000000000000000000000000081525060400191505060405180910390fd5b600073ffffffffffffffffffffffffffffffffffffffff168173ffffffffffffffffffffffffffffffffffffffff16141515156117de576040517f08c379a000000000000000000000000000000000000000000000000000000000815260040180806020018281038252600f8152602001807f496e76616c69642061646472657373000000000000000000000000000000000081525060200191505060405180910390fd5b600160008273ffffffffffffffffffffffffffffffffffffffff1673ffffffffffffffffffffffffffffffffffffffff16815260200190815260200160002060006101000a81549060ff021916905550565b60006003600083815260200190815260200160002060009054906101000a900473ffffffffffffffffffffffffffffffffffffffff169050919050565b611875611b78565b151561190f576040517f08c379a00000000000000000000000000000000000000000000000000000000081526004018080602001828103825260268152602001807f4f6e6c7920746865206f776e65722063616e20706572666f726d20746869732081526020017f616374696f6e000000000000000000000000000000000000000000000000000081525060400191505060405180910390fd5b8060088190555050565b60008073ffffffffffffffffffffffffffffffffffffffff168273ffffffffffffffffffffffffffffffffffffffff16141515156119bf576040517f08c379a000000000000000000000000000000000000000000000000000000000815260040180806020018281038252600f8152602001807f496e76616c69642061646472657373000000000000000000000000000000000081525060200191505060405180910390fd5b600560008373ffffffffffffffffffffffffffffffffffffffff1673ffffffffffffffffffffffffffffffffffffffff168152602001908152602001600020549050919050565b611a0e611b78565b1515611aa8576040517f08c379a00000000000000000000000000000000000000000000000000000000081526004018080602001828103825260268152602001807f4f6e6c7920746865206f776e65722063616e20706572666f726d20746869732081526020017f616374696f6e000000000000000000000000000000000000000000000000000081525060400191505060405180910390fd5b6000809054906101000a900473ffffffffffffffffffffffffffffffffffffffff1673ffffffffffffffffffffffffffffffffffffffff167ff8df31144d9c2f0f6b59d69b8b98abd5459d07f2742c4df920b25aae33c6482060405160405180910390a260008060006101000a81548173ffffffffffffffffffffffffffffffffffffffff021916908373ffffffffffffffffffffffffffffffffffffffff160217905550565b60008060009054906101000a900473ffffffffffffffffffffffffffffffffffffffff16905090565b60008060009054906101000a900473ffffffffffffffffffffffffffffffffffffffff1673ffffffffffffffffffffffffffffffffffffffff163373ffffffffffffffffffffffffffffffffffffffff1614905090565b60606000806000806000600787815481101515611be857fe5b9060005260206000209060070201600001600788815481101515611c0857fe5b906000526020600020906007020160010154600789815481101515611c2957fe5b906000526020600020906007020160050160009054906101000a900460ff1660078a815481101515611c5757fe5b90600052602060002090600702016003015460078b815481101515611c7857fe5b9060005260206000209060070201600401546000858054600181600116156101000203166002900480601f016020809104026020016040519081016040528092919081815260200182805460018160011615610100020316600290048015611d215780601f10611cf657610100808354040283529160200191611d21565b820191906000526020600020905b815481529060010190602001808311611d0457829003601f168201915b5050505050955080905095509550955095509550955091939550919395565b3373ffffffffffffffffffffffffffffffffffffffff168273ffffffffffffffffffffffffffffffffffffffff1614151515611d7b57600080fd5b80600660003373ffffffffffffffffffffffffffffffffffffffff1673ffffffffffffffffffffffffffffffffffffffff16815260200190815260200160002060008473ffffffffffffffffffffffffffffffffffffffff1673ffffffffffffffffffffffffffffffffffffffff16815260200190815260200160002060006101000a81548160ff0219169083151502179055508173ffffffffffffffffffffffffffffffffffffffff163373ffffffffffffffffffffffffffffffffffffffff167f17307eab39ab6107e8899845ad3d59bd9653f200f220920489ca2b5937696c3183604051808215151515815260200191505060405180910390a35050565b611e87858585612198565b5050505050565b611e96611b78565b1515611f30576040517f08c379a00000000000000000000000000000000000000000000000000000000081526004018080602001828103825260268152602001807f4f6e6c7920746865206f776e65722063616e20706572666f726d20746869732081526020017f616374696f6e000000000000000000000000000000000000000000000000000081525060400191505060405180910390fd5b600073ffffffffffffffffffffffffffffffffffffffff168173ffffffffffffffffffffffffffffffffffffffff1614151515611fd5576040517f08c379a000000000000000000000000000000000000000000000000000000000815260040180806020018281038252600f8152602001807f496e76616c69642061646472657373000000000000000000000000000000000081525060200191505060405180910390fd5b60018060008373ffffffffffffffffffffffffffffffffffffffff1673ffffffffffffffffffffffffffffffffffffffff16815260200190815260200160002060006101000a81548160ff02191690831515021790555050565b60085481565b6000600660008473ffffffffffffffffffffffffffffffffffffffff1673ffffffffffffffffffffffffffffffffffffffff16815260200190815260200160002060008373ffffffffffffffffffffffffffffffffffffffff1673ffffffffffffffffffffffffffffffffffffffff16815260200190815260200160002060009054906101000a900460ff16905092915050565b6120d1611b78565b151561216b576040517f08c379a00000000000000000000000000000000000000000000000000000000081526004018080602001828103825260268152602001807f4f6e6c7920746865206f776e65722063616e20706572666f726d20746869732081526020017f616374696f6e000000000000000000000000000000000000000000000000000081525060400191505060405180910390fd5b612174816122ad565b50565b600080828401905083811015151561218e57600080fd5b8091505092915050565b6121a23382612436565b15156121ad57600080fd5b600073ffffffffffffffffffffffffffffffffffffffff168373ffffffffffffffffffffffffffffffffffffffff16141515156121e957600080fd5b600073ffffffffffffffffffffffffffffffffffffffff168273ffffffffffffffffffffffffffffffffffffffff161415151561222557600080fd5b61222f83826124f6565b6122398382612624565b612243828261277e565b8173ffffffffffffffffffffffffffffffffffffffff168373ffffffffffffffffffffffffffffffffffffffff167fddf252ad1be2c89b69c2b068fc378daa952ba7f163c4a11628f55a4df523b3ef836040518082815260200191505060405180910390a3505050565b600073ffffffffffffffffffffffffffffffffffffffff168173ffffffffffffffffffffffffffffffffffffffff1614151515612378576040517f08c379a00000000000000000000000000000000000000000000000000000000081526004018080602001828103825260278152602001807f596f752063616e6e6f74207472616e7366657220746f20746865207a65726f2081526020017f616464726573730000000000000000000000000000000000000000000000000081525060400191505060405180910390fd5b8073ffffffffffffffffffffffffffffffffffffffff166000809054906101000a900473ffffffffffffffffffffffffffffffffffffffff1673ffffffffffffffffffffffffffffffffffffffff167f8be0079c531659141344cd1fd0a4f28419497f9722a3daafe3b4186f6b6457e060405160405180910390a3806000806101000a81548173ffffffffffffffffffffffffffffffffffffffff021916908373ffffffffffffffffffffffffffffffffffffffff16021790555050565b6000806003600084815260200190815260200160002060009054906101000a900473ffffffffffffffffffffffffffffffffffffffff1690508073ffffffffffffffffffffffffffffffffffffffff168473ffffffffffffffffffffffffffffffffffffffff1614806124dc57508373ffffffffffffffffffffffffffffffffffffffff166124c484610c38565b73ffffffffffffffffffffffffffffffffffffffff16145b806124ed57506124ec8185612035565b5b91505092915050565b8173ffffffffffffffffffffffffffffffffffffffff166003600083815260200190815260200160002060009054906101000a900473ffffffffffffffffffffffffffffffffffffffff1673ffffffffffffffffffffffffffffffffffffffff1614151561256357600080fd5b600073ffffffffffffffffffffffffffffffffffffffff166004600083815260200190815260200160002060009054906101000a900473ffffffffffffffffffffffffffffffffffffffff1673ffffffffffffffffffffffffffffffffffffffff161415156126205760006004600083815260200190815260200160002060006101000a81548173ffffffffffffffffffffffffffffffffffffffff021916908373ffffffffffffffffffffffffffffffffffffffff1602179055505b5050565b8173ffffffffffffffffffffffffffffffffffffffff166003600083815260200190815260200160002060009054906101000a900473ffffffffffffffffffffffffffffffffffffffff1673ffffffffffffffffffffffffffffffffffffffff1614151561269157600080fd5b6126e46001600560008573ffffffffffffffffffffffffffffffffffffffff1673ffffffffffffffffffffffffffffffffffffffff168152602001908152602001600020546128d890919063ffffffff16565b600560008473ffffffffffffffffffffffffffffffffffffffff1673ffffffffffffffffffffffffffffffffffffffff1681526020019081526020016000208190555060006003600083815260200190815260200160002060006101000a81548173ffffffffffffffffffffffffffffffffffffffff021916908373ffffffffffffffffffffffffffffffffffffffff1602179055505050565b600073ffffffffffffffffffffffffffffffffffffffff166003600083815260200190815260200160002060009054906101000a900473ffffffffffffffffffffffffffffffffffffffff1673ffffffffffffffffffffffffffffffffffffffff161415156127ec57600080fd5b816003600083815260200190815260200160002060006101000a81548173ffffffffffffffffffffffffffffffffffffffff021916908373ffffffffffffffffffffffffffffffffffffffff1602179055506128916001600560008573ffffffffffffffffffffffffffffffffffffffff1673ffffffffffffffffffffffffffffffffffffffff1681526020019081526020016000205461217790919063ffffffff16565b600560008473ffffffffffffffffffffffffffffffffffffffff1673ffffffffffffffffffffffffffffffffffffffff168152602001908152602001600020819055505050565b60008282111515156128e957600080fd5b600082840390508091505092915050565b828054600181600116156101000203166002900490600052602060002090601f016020900481019282601f1061293b57805160ff1916838001178555612969565b82800160010185558215612969579182015b8281111561296857825182559160200191906001019061294d565b5b50905061297691906129c2565b5090565b50805460018160011615610100020316600290046000825580601f106129a057506129bf565b601f0160209004906000526020600020908101906129be91906129c2565b5b50565b6129e491905b808211156129e05760008160009055506001016129c8565b5090565b9056fea165627a7a7230582089af4382a197b9526c5ebe40033c8c2668c0c6182546de465da22b485774bc4a0029",
  "source": "pragma solidity ^0.5.0;\n\nimport \"./IERC721.sol\";\nimport \"./SafeMath.sol\";\nimport \"./IRepository.sol\";\nimport \"./Roles.sol\";\n\n//ERC721\ncontract DogERC721 is IERC721, Roles {\n    \n    using SafeMath for uint;\n\n    enum Sex {\n        Male,\n        Female\n    }\n    \n    struct Dog {\n        string name;\n        uint256 dob;\n        string microchip;\n        uint256 dam;\n        uint256 sire;\n        Sex sex;\n        uint256 timestamp;\n    }\n    \n    mapping(address => bool) private _writers;\n    mapping(uint256 => address) private _tokenOwner;\n    mapping(uint256 => address) private _tokenApprovals;\n\n    mapping(address => uint256) private _ownedTokensCount;\n    mapping (address => mapping (address => bool)) private operatorApprovals;\n\n    Dog[] public _pack;\n    uint256 public fee;\n\n    function totalSupply() public view returns(uint256) {\n        return _pack.length;\n    }\n\n    function balanceOf(address _owner) external view returns (uint256 _balance) {\n        require(_owner != address(0), \"Invalid address\");\n        return _ownedTokensCount[_owner];\n    }\n    \n    function exists(uint256 _tokenId) external view returns (bool _exists) {\n        return _tokenOwner[_tokenId] != address(0);\n    }\n\n    function ownerOf(uint256 _tokenId) external view returns (address) {\n        return _tokenOwner[_tokenId];\n    }\n\n    function approve(address _to, uint256 _tokenId) external {\n        address owner = _tokenOwner[_tokenId];\n\n        require(_to != owner, \"Can not be owner\");\n        require(msg.sender == owner || isApprovedForAll(owner, msg.sender), \"Invalid\");\n\n        _tokenApprovals[_tokenId] = _to;\n        emit Approval(owner, _to, _tokenId);\n    }\n\n    function getApproved(uint256 _tokenId) public view returns (address) {\n        return _tokenApprovals[_tokenId];\n    }\n\n    function setApprovalForAll(address _to, bool _approved) public {\n        require(_to != msg.sender);\n        operatorApprovals[msg.sender][_to] = _approved;\n\n        emit ApprovalForAll(msg.sender, _to, _approved);\n    }\n\n    function isApprovedForAll(address _owner, address _operator) public view returns (bool) {\n        return operatorApprovals[_owner][_operator];\n    }\n    \n    function transferFrom(address _from, address _to, uint256 _tokenId) external {\n        _transferFrom(_from, _to, _tokenId);\n    }\n\n    function _transferFrom(address _from, address _to, uint256 _tokenId) internal {\n        require(isApprovedOrOwner(msg.sender, _tokenId));\n        require(_from != address(0));\n        require(_to != address(0));\n\n        clearApproval(_from, _tokenId);\n        removeTokenFrom(_from, _tokenId);\n        addTokenTo(_to, _tokenId);\n\n        emit Transfer(_from, _to, _tokenId);\n    }\n\n    function safeTransferFrom(address _from, address _to, uint256 _tokenId) external {\n        _transferFrom(_from, _to, _tokenId);\n    }\n\n    function safeTransferFrom(address _from, address _to, uint256 _tokenId, bytes calldata _data) external {\n        _transferFrom(_from, _to, _tokenId);\n    }\n\n    function add(string calldata name, uint256 dob, string calldata microchip, Sex sex, uint256 dam, uint256 sire, address owner) external payable onlyOwner() {\n        require(msg.value >= fee, \"Fee too small\");\n        uint id = _pack.length;\n        _pack.push(Dog(name, dob, microchip, dam, sire, sex, now));\n        _tokenOwner[id] = owner;\n        _ownedTokensCount[owner] = _ownedTokensCount[owner].add(1);\n    }\n\n    function get(uint256 _tokenId) external view returns (string memory, uint256, Sex, uint256, uint256, address) {\n        return (_pack[_tokenId].name, _pack[_tokenId].dob, _pack[_tokenId].sex, _pack[_tokenId].dam, _pack[_tokenId].sire, address(0));\n    }\n\n    function remove(uint256 _tokenId) external onlyOwner() {\n        delete _pack[_tokenId];\n    }\n\n    function setFee(uint256 _fee) public onlyOwner() {\n        fee = _fee;\n    }\n\n    function isApprovedOrOwner(address _spender, uint256 _tokenId) internal view returns (bool) {\n        address owner = _tokenOwner[_tokenId];\n        return (_spender == owner || getApproved(_tokenId) == _spender || isApprovedForAll(owner, _spender));\n    }\n\n    function addTokenTo(address _to, uint256 _tokenId) internal {\n        require(_tokenOwner[_tokenId] == address(0));\n        _tokenOwner[_tokenId] = _to;\n        _ownedTokensCount[_to] = _ownedTokensCount[_to].add(1);\n    }\n\n    function removeTokenFrom(address _from, uint256 _tokenId) internal {\n        require(_tokenOwner[_tokenId] == _from);\n        _ownedTokensCount[_from] = _ownedTokensCount[_from].sub(1);\n        _tokenOwner[_tokenId] = address(0);\n    }\n\n    function clearApproval(address _owner, uint256 _tokenId) internal {\n        require(_tokenOwner[_tokenId] == _owner);\n\n        if (_tokenApprovals[_tokenId] != address(0)) {\n            _tokenApprovals[_tokenId] = address(0);\n        }\n    }\n\n    event Transfer(address indexed _from, address indexed _to, uint256 _tokenId);\n    event Approval(address indexed _owner, address indexed _approved, uint256 _tokenId);\n    event ApprovalForAll(address indexed _owner, address indexed _operator, bool _approved); \n}",
  "sourcePath": "/home/lucascullen/GitHub/BitcoinBrisbane/puppies/src/contracts/DogERC721.sol",
  "compiler": {
    "name": "solc",
    "version": "0.5.0+commit.1d4f565a.Emscripten.clang"
  },
  "schemaVersion": "3.0.1",
  "updatedAt": "2019-01-31T10:46:22.370Z",
  "devdoc": {
    "methods": {}
  },
  "userdoc": {
    "methods": {}
  }
}