{
  "contractName": "DogERC721Metadata",
  "abi": [
    {
      "constant": true,
      "inputs": [
        {
          "name": "interfaceId",
          "type": "bytes4"
        }
      ],
      "name": "supportsInterface",
      "outputs": [
        {
          "name": "",
          "type": "bool"
        }
      ],
      "payable": false,
      "stateMutability": "view",
      "type": "function"
    },
    {
      "constant": true,
      "inputs": [
        {
          "name": "tokenId",
          "type": "uint256"
        }
      ],
      "name": "getApproved",
      "outputs": [
        {
          "name": "",
          "type": "address"
        }
      ],
      "payable": false,
      "stateMutability": "view",
      "type": "function"
    },
    {
      "constant": false,
      "inputs": [
        {
          "name": "to",
          "type": "address"
        },
        {
          "name": "tokenId",
          "type": "uint256"
        }
      ],
      "name": "approve",
      "outputs": [],
      "payable": false,
      "stateMutability": "nonpayable",
      "type": "function"
    },
    {
      "constant": false,
      "inputs": [
        {
          "name": "from",
          "type": "address"
        },
        {
          "name": "to",
          "type": "address"
        },
        {
          "name": "tokenId",
          "type": "uint256"
        }
      ],
      "name": "transferFrom",
      "outputs": [],
      "payable": false,
      "stateMutability": "nonpayable",
      "type": "function"
    },
    {
      "constant": false,
      "inputs": [
        {
          "name": "from",
          "type": "address"
        },
        {
          "name": "to",
          "type": "address"
        },
        {
          "name": "tokenId",
          "type": "uint256"
        }
      ],
      "name": "safeTransferFrom",
      "outputs": [],
      "payable": false,
      "stateMutability": "nonpayable",
      "type": "function"
    },
    {
      "constant": true,
      "inputs": [
        {
          "name": "tokenId",
          "type": "uint256"
        }
      ],
      "name": "ownerOf",
      "outputs": [
        {
          "name": "",
          "type": "address"
        }
      ],
      "payable": false,
      "stateMutability": "view",
      "type": "function"
    },
    {
      "constant": true,
      "inputs": [
        {
          "name": "",
          "type": "uint256"
        }
      ],
      "name": "pack",
      "outputs": [
        {
          "name": "name",
          "type": "string"
        },
        {
          "name": "dob",
          "type": "uint256"
        },
        {
          "name": "microchip",
          "type": "string"
        },
        {
          "name": "dam",
          "type": "uint256"
        },
        {
          "name": "sire",
          "type": "uint256"
        },
        {
          "name": "sex",
          "type": "uint8"
        },
        {
          "name": "timestamp",
          "type": "uint256"
        }
      ],
      "payable": false,
      "stateMutability": "view",
      "type": "function"
    },
    {
      "constant": true,
      "inputs": [
        {
          "name": "owner",
          "type": "address"
        }
      ],
      "name": "balanceOf",
      "outputs": [
        {
          "name": "",
          "type": "uint256"
        }
      ],
      "payable": false,
      "stateMutability": "view",
      "type": "function"
    },
    {
      "constant": false,
      "inputs": [],
      "name": "renounceOwnership",
      "outputs": [],
      "payable": false,
      "stateMutability": "nonpayable",
      "type": "function"
    },
    {
      "constant": true,
      "inputs": [],
      "name": "owner",
      "outputs": [
        {
          "name": "",
          "type": "address"
        }
      ],
      "payable": false,
      "stateMutability": "view",
      "type": "function"
    },
    {
      "constant": true,
      "inputs": [],
      "name": "isOwner",
      "outputs": [
        {
          "name": "",
          "type": "bool"
        }
      ],
      "payable": false,
      "stateMutability": "view",
      "type": "function"
    },
    {
      "constant": false,
      "inputs": [
        {
          "name": "to",
          "type": "address"
        },
        {
          "name": "approved",
          "type": "bool"
        }
      ],
      "name": "setApprovalForAll",
      "outputs": [],
      "payable": false,
      "stateMutability": "nonpayable",
      "type": "function"
    },
    {
      "constant": false,
      "inputs": [
        {
          "name": "from",
          "type": "address"
        },
        {
          "name": "to",
          "type": "address"
        },
        {
          "name": "tokenId",
          "type": "uint256"
        },
        {
          "name": "_data",
          "type": "bytes"
        }
      ],
      "name": "safeTransferFrom",
      "outputs": [],
      "payable": false,
      "stateMutability": "nonpayable",
      "type": "function"
    },
    {
      "constant": true,
      "inputs": [],
      "name": "fee",
      "outputs": [
        {
          "name": "",
          "type": "uint256"
        }
      ],
      "payable": false,
      "stateMutability": "view",
      "type": "function"
    },
    {
      "constant": true,
      "inputs": [
        {
          "name": "owner",
          "type": "address"
        },
        {
          "name": "operator",
          "type": "address"
        }
      ],
      "name": "isApprovedForAll",
      "outputs": [
        {
          "name": "",
          "type": "bool"
        }
      ],
      "payable": false,
      "stateMutability": "view",
      "type": "function"
    },
    {
      "constant": false,
      "inputs": [
        {
          "name": "newOwner",
          "type": "address"
        }
      ],
      "name": "transferOwnership",
      "outputs": [],
      "payable": false,
      "stateMutability": "nonpayable",
      "type": "function"
    },
    {
      "inputs": [],
      "payable": false,
      "stateMutability": "nonpayable",
      "type": "constructor"
    },
    {
      "anonymous": false,
      "inputs": [
        {
          "indexed": false,
          "name": "_tokenId",
          "type": "uint256"
        }
      ],
      "name": "PuppyAdded",
      "type": "event"
    },
    {
      "anonymous": false,
      "inputs": [
        {
          "indexed": false,
          "name": "_tokenId",
          "type": "uint256"
        }
      ],
      "name": "PuppyRemoved",
      "type": "event"
    },
    {
      "anonymous": false,
      "inputs": [
        {
          "indexed": true,
          "name": "previousOwner",
          "type": "address"
        }
      ],
      "name": "OwnershipRenounced",
      "type": "event"
    },
    {
      "anonymous": false,
      "inputs": [
        {
          "indexed": true,
          "name": "previousOwner",
          "type": "address"
        },
        {
          "indexed": true,
          "name": "newOwner",
          "type": "address"
        }
      ],
      "name": "OwnershipTransferred",
      "type": "event"
    },
    {
      "anonymous": false,
      "inputs": [
        {
          "indexed": true,
          "name": "from",
          "type": "address"
        },
        {
          "indexed": true,
          "name": "to",
          "type": "address"
        },
        {
          "indexed": true,
          "name": "tokenId",
          "type": "uint256"
        }
      ],
      "name": "Transfer",
      "type": "event"
    },
    {
      "anonymous": false,
      "inputs": [
        {
          "indexed": true,
          "name": "owner",
          "type": "address"
        },
        {
          "indexed": true,
          "name": "approved",
          "type": "address"
        },
        {
          "indexed": true,
          "name": "tokenId",
          "type": "uint256"
        }
      ],
      "name": "Approval",
      "type": "event"
    },
    {
      "anonymous": false,
      "inputs": [
        {
          "indexed": true,
          "name": "owner",
          "type": "address"
        },
        {
          "indexed": true,
          "name": "operator",
          "type": "address"
        },
        {
          "indexed": false,
          "name": "approved",
          "type": "bool"
        }
      ],
      "name": "ApprovalForAll",
      "type": "event"
    },
    {
      "constant": true,
      "inputs": [],
      "name": "name",
      "outputs": [
        {
          "name": "",
          "type": "string"
        }
      ],
      "payable": false,
      "stateMutability": "view",
      "type": "function"
    },
    {
      "constant": true,
      "inputs": [],
      "name": "symbol",
      "outputs": [
        {
          "name": "",
          "type": "string"
        }
      ],
      "payable": false,
      "stateMutability": "view",
      "type": "function"
    },
    {
      "constant": true,
      "inputs": [
        {
          "name": "tokenId",
          "type": "uint256"
        }
      ],
      "name": "tokenURI",
      "outputs": [
        {
          "name": "",
          "type": "string"
        }
      ],
      "payable": false,
      "stateMutability": "view",
      "type": "function"
    },
    {
      "constant": true,
      "inputs": [],
      "name": "totalSupply",
      "outputs": [
        {
          "name": "",
          "type": "uint256"
        }
      ],
      "payable": false,
      "stateMutability": "view",
      "type": "function"
    },
    {
      "constant": false,
      "inputs": [
        {
          "name": "dogsName",
          "type": "string"
        },
        {
          "name": "dob",
          "type": "uint256"
        },
        {
          "name": "microchip",
          "type": "string"
        },
        {
          "name": "sex",
          "type": "uint8"
        },
        {
          "name": "dam",
          "type": "uint256"
        },
        {
          "name": "sire",
          "type": "uint256"
        },
        {
          "name": "owner",
          "type": "address"
        }
      ],
      "name": "addPuppy",
      "outputs": [],
      "payable": true,
      "stateMutability": "payable",
      "type": "function"
    },
    {
      "constant": true,
      "inputs": [
        {
          "name": "_tokenId",
          "type": "uint256"
        }
      ],
      "name": "getPuppy",
      "outputs": [
        {
          "name": "",
          "type": "string"
        },
        {
          "name": "",
          "type": "uint256"
        },
        {
          "name": "",
          "type": "uint8"
        },
        {
          "name": "",
          "type": "uint256"
        },
        {
          "name": "",
          "type": "uint256"
        },
        {
          "name": "",
          "type": "address"
        }
      ],
      "payable": false,
      "stateMutability": "view",
      "type": "function"
    },
    {
      "constant": false,
      "inputs": [
        {
          "name": "_tokenId",
          "type": "uint256"
        }
      ],
      "name": "removePuppy",
      "outputs": [],
      "payable": false,
      "stateMutability": "nonpayable",
      "type": "function"
    },
    {
      "constant": false,
      "inputs": [
        {
          "name": "_tokenId",
          "type": "uint256"
        },
        {
          "name": "dogsName",
          "type": "string"
        }
      ],
      "name": "updateTitle",
      "outputs": [],
      "payable": false,
      "stateMutability": "nonpayable",
      "type": "function"
    },
    {
      "constant": false,
      "inputs": [
        {
          "name": "_fee",
          "type": "uint256"
        }
      ],
      "name": "setFee",
      "outputs": [],
      "payable": false,
      "stateMutability": "nonpayable",
      "type": "function"
    },
    {
      "constant": false,
      "inputs": [
        {
          "name": "tokenId",
          "type": "uint256"
        },
        {
          "name": "uri",
          "type": "string"
        }
      ],
      "name": "setTokenURI",
      "outputs": [],
      "payable": false,
      "stateMutability": "nonpayable",
      "type": "function"
    }
  ],
  "bytecode": "0x60806040523480156200001157600080fd5b506200004f6301ffc9a77c010000000000000000000000000000000000000000000000000000000002620001ac640100000000026401000000009004565b6200008c6380ac58cd7c010000000000000000000000000000000000000000000000000000000002620001ac640100000000026401000000009004565b33600560006101000a81548173ffffffffffffffffffffffffffffffffffffffff021916908373ffffffffffffffffffffffffffffffffffffffff1602179055506040805190810160405280600781526020017f424541474c455300000000000000000000000000000000000000000000000000815250600990805190602001906200011a9291906200026a565b506040805190810160405280600381526020017f4444410000000000000000000000000000000000000000000000000000000000815250600a9080519060200190620001689291906200026a565b50620001a6635b5e139f7c010000000000000000000000000000000000000000000000000000000002620001ac640100000000026401000000009004565b62000319565b63ffffffff7c010000000000000000000000000000000000000000000000000000000002817bffffffffffffffffffffffffffffffffffffffffffffffffffffffff191614151515620001fe57600080fd5b6001600080837bffffffffffffffffffffffffffffffffffffffffffffffffffffffff19167bffffffffffffffffffffffffffffffffffffffffffffffffffffffff1916815260200190815260200160002060006101000a81548160ff02191690831515021790555050565b828054600181600116156101000203166002900490600052602060002090601f016020900481019282601f10620002ad57805160ff1916838001178555620002de565b82800160010185558215620002de579182015b82811115620002dd578251825591602001919060010190620002c0565b5b509050620002ed9190620002f1565b5090565b6200031691905b8082111562000312576000816000905550600101620002f8565b5090565b90565b61308680620003296000396000f3fe60806040526004361061019e576000357c0100000000000000000000000000000000000000000000000000000000900480636ea42555116100ee578063a22cb465116100a7578063ddca3f4311610081578063ddca3f4314610d0e578063e985e9c514610d39578063f2fde38b14610dc2578063f36c83f014610e135761019e565b8063a22cb46514610aeb578063b88d4fde14610b48578063c87b56dd14610c5a5761019e565b80636ea425551461080857806370a0823114610959578063715018a6146109be5780638da5cb5b146109d55780638f32d59b14610a2c57806395d89b4114610a5b5761019e565b806323b872dd1161015b5780635786ead2116101355780635786ead21461068757806360023628146107175780636352211e1461075257806369fe0e2d146107cd5761019e565b806323b872dd1461047857806342842e0e146104f3578063517fa8bf1461056e5761019e565b806301ffc9a7146101a357806306fdde0314610215578063081812fc146102a5578063095ea7b314610320578063162094c41461037b57806318160ddd1461044d575b600080fd5b3480156101af57600080fd5b506101fb600480360360208110156101c657600080fd5b8101908080357bffffffffffffffffffffffffffffffffffffffffffffffffffffffff19169060200190929190505050610f24565b604051808215151515815260200191505060405180910390f35b34801561022157600080fd5b5061022a610f8b565b6040518080602001828103825283818151815260200191508051906020019080838360005b8381101561026a57808201518184015260208101905061024f565b50505050905090810190601f1680156102975780820380516001836020036101000a031916815260200191505b509250505060405180910390f35b3480156102b157600080fd5b506102de600480360360208110156102c857600080fd5b810190808035906020019092919050505061102d565b604051808273ffffffffffffffffffffffffffffffffffffffff1673ffffffffffffffffffffffffffffffffffffffff16815260200191505060405180910390f35b34801561032c57600080fd5b506103796004803603604081101561034357600080fd5b81019080803573ffffffffffffffffffffffffffffffffffffffff169060200190929190803590602001909291905050506110e7565b005b34801561038757600080fd5b5061044b6004803603604081101561039e57600080fd5b8101908080359060200190929190803590602001906401000000008111156103c557600080fd5b8201836020820111156103d757600080fd5b803590602001918460018302840111640100000000831117156103f957600080fd5b91908080601f016020809104026020016040519081016040528093929190818152602001838380828437600081840152601f19601f820116905080830192505050505050509192919290505050611295565b005b34801561045957600080fd5b5061046261139d565b6040518082815260200191505060405180910390f35b34801561048457600080fd5b506104f16004803603606081101561049b57600080fd5b81019080803573ffffffffffffffffffffffffffffffffffffffff169060200190929190803573ffffffffffffffffffffffffffffffffffffffff169060200190929190803590602001909291905050506113aa565b005b3480156104ff57600080fd5b5061056c6004803603606081101561051657600080fd5b81019080803573ffffffffffffffffffffffffffffffffffffffff169060200190929190803573ffffffffffffffffffffffffffffffffffffffff16906020019092919080359060200190929190505050611438565b005b610685600480360360e081101561058457600080fd5b81019080803590602001906401000000008111156105a157600080fd5b8201836020820111156105b357600080fd5b803590602001918460018302840111640100000000831117156105d557600080fd5b9091929391929390803590602001909291908035906020019064010000000081111561060057600080fd5b82018360208201111561061257600080fd5b8035906020019184600183028401116401000000008311171561063457600080fd5b9091929391929390803560ff1690602001909291908035906020019092919080359060200190929190803573ffffffffffffffffffffffffffffffffffffffff169060200190929190505050611459565b005b34801561069357600080fd5b50610715600480360360408110156106aa57600080fd5b8101908080359060200190929190803590602001906401000000008111156106d157600080fd5b8201836020820111156106e357600080fd5b8035906020019184600183028401116401000000008311171561070557600080fd5b9091929391929390505050611866565b005b34801561072357600080fd5b506107506004803603602081101561073a57600080fd5b81019080803590602001909291905050506118fa565b005b34801561075e57600080fd5b5061078b6004803603602081101561077557600080fd5b8101908080359060200190929190505050611a07565b604051808273ffffffffffffffffffffffffffffffffffffffff1673ffffffffffffffffffffffffffffffffffffffff16815260200191505060405180910390f35b3480156107d957600080fd5b50610806600480360360208110156107f057600080fd5b8101908080359060200190929190505050611aee565b005b34801561081457600080fd5b506108416004803603602081101561082b57600080fd5b8101908080359060200190929190505050611b57565b60405180806020018881526020018060200187815260200186815260200185600181111561086b57fe5b60ff16815260200184815260200183810383528a818151815260200191508051906020019080838360005b838110156108b1578082015181840152602081019050610896565b50505050905090810190601f1680156108de5780820380516001836020036101000a031916815260200191505b50838103825288818151815260200191508051906020019080838360005b838110156109175780820151818401526020810190506108fc565b50505050905090810190601f1680156109445780820380516001836020036101000a031916815260200191505b50995050505050505050505060405180910390f35b34801561096557600080fd5b506109a86004803603602081101561097c57600080fd5b81019080803573ffffffffffffffffffffffffffffffffffffffff169060200190929190505050611ce5565b6040518082815260200191505060405180910390f35b3480156109ca57600080fd5b506109d3611dd2565b005b3480156109e157600080fd5b506109ea611eda565b604051808273ffffffffffffffffffffffffffffffffffffffff1673ffffffffffffffffffffffffffffffffffffffff16815260200191505060405180910390f35b348015610a3857600080fd5b50610a41611f04565b604051808215151515815260200191505060405180910390f35b348015610a6757600080fd5b50610a70611f5c565b6040518080602001828103825283818151815260200191508051906020019080838360005b83811015610ab0578082015181840152602081019050610a95565b50505050905090810190601f168015610add5780820380516001836020036101000a031916815260200191505b509250505060405180910390f35b348015610af757600080fd5b50610b4660048036036040811015610b0e57600080fd5b81019080803573ffffffffffffffffffffffffffffffffffffffff169060200190929190803515159060200190929190505050611ffe565b005b348015610b5457600080fd5b50610c5860048036036080811015610b6b57600080fd5b81019080803573ffffffffffffffffffffffffffffffffffffffff169060200190929190803573ffffffffffffffffffffffffffffffffffffffff1690602001909291908035906020019092919080359060200190640100000000811115610bd257600080fd5b820183602082011115610be457600080fd5b80359060200191846001830284011164010000000083111715610c0657600080fd5b91908080601f016020809104026020016040519081016040528093929190818152602001838380828437600081840152601f19601f8201169050808301925050505050505091929192905050506121a3565b005b348015610c6657600080fd5b50610c9360048036036020811015610c7d57600080fd5b8101908080359060200190929190505050612234565b6040518080602001828103825283818151815260200191508051906020019080838360005b83811015610cd3578082015181840152602081019050610cb8565b50505050905090810190601f168015610d005780820380516001836020036101000a031916815260200191505b509250505060405180910390f35b348015610d1a57600080fd5b50610d23612366565b6040518082815260200191505060405180910390f35b348015610d4557600080fd5b50610da860048036036040811015610d5c57600080fd5b81019080803573ffffffffffffffffffffffffffffffffffffffff169060200190929190803573ffffffffffffffffffffffffffffffffffffffff16906020019092919050505061236c565b604051808215151515815260200191505060405180910390f35b348015610dce57600080fd5b50610e1160048036036020811015610de557600080fd5b81019080803573ffffffffffffffffffffffffffffffffffffffff169060200190929190505050612400565b005b348015610e1f57600080fd5b50610e4c60048036036020811015610e3657600080fd5b810190808035906020019092919050505061246b565b6040518080602001878152602001866001811115610e6657fe5b60ff1681526020018581526020018481526020018373ffffffffffffffffffffffffffffffffffffffff1673ffffffffffffffffffffffffffffffffffffffff168152602001828103825288818151815260200191508051906020019080838360005b83811015610ee4578082015181840152602081019050610ec9565b50505050905090810190601f168015610f115780820380516001836020036101000a031916815260200191505b5097505050505050505060405180910390f35b6000806000837bffffffffffffffffffffffffffffffffffffffffffffffffffffffff19167bffffffffffffffffffffffffffffffffffffffffffffffffffffffff1916815260200190815260200160002060009054906101000a900460ff169050919050565b606060098054600181600116156101000203166002900480601f0160208091040260200160405190810160405280929190818152602001828054600181600116156101000203166002900480156110235780601f10610ff857610100808354040283529160200191611023565b820191906000526020600020905b81548152906001019060200180831161100657829003601f168201915b5050505050905090565b6000611038826125e5565b15156110ac576040517f08c379a00000000000000000000000000000000000000000000000000000000081526004018080602001828103825260108152602001807f496e76616c696420746f6b656e2069640000000000000000000000000000000081525060200191505060405180910390fd5b6002600083815260200190815260200160002060009054906101000a900473ffffffffffffffffffffffffffffffffffffffff169050919050565b60006110f282611a07565b90508073ffffffffffffffffffffffffffffffffffffffff168373ffffffffffffffffffffffffffffffffffffffff1614151515611198576040517f08c379a000000000000000000000000000000000000000000000000000000000815260040180806020018281038252600f8152602001807f43616e6e6f74206265206f776e6572000000000000000000000000000000000081525060200191505060405180910390fd5b8073ffffffffffffffffffffffffffffffffffffffff163373ffffffffffffffffffffffffffffffffffffffff1614806111d857506111d7813361236c565b5b15156111e357600080fd5b826002600084815260200190815260200160002060006101000a81548173ffffffffffffffffffffffffffffffffffffffff021916908373ffffffffffffffffffffffffffffffffffffffff160217905550818373ffffffffffffffffffffffffffffffffffffffff168273ffffffffffffffffffffffffffffffffffffffff167f8c5be1e5ebec7d5bd14f71427d1e84f3dd0314c0f7b2291e5b200ac8c7c3b92560405160405180910390a4505050565b61129d611f04565b15156112f4576040517f08c379a00000000000000000000000000000000000000000000000000000000081526004018080602001828103825260268152602001806130356026913960400191505060405180910390fd5b6112fd826125e5565b1515611371576040517f08c379a00000000000000000000000000000000000000000000000000000000081526004018080602001828103825260148152602001807f546f6b656e20646f6573206e6f7420657869737400000000000000000000000081525060200191505060405180910390fd5b80600b60008481526020019081526020016000209080519060200190611398929190612e20565b505050565b6000600780549050905090565b6113b43382612657565b1515611428576040517f08c379a00000000000000000000000000000000000000000000000000000000081526004018080602001828103825260148152602001807f41646472657373206e6f7420617070726f76656400000000000000000000000081525060200191505060405180910390fd5b6114338383836126ec565b505050565b61145483838360206040519081016040528060008152506121a3565b505050565b611461611f04565b15156114b8576040517f08c379a00000000000000000000000000000000000000000000000000000000081526004018080602001828103825260268152602001806130356026913960400191505060405180910390fd5b6008543410151515611532576040517f08c379a000000000000000000000000000000000000000000000000000000000815260040180806020018281038252600d8152602001807f46656520746f6f20736d616c6c0000000000000000000000000000000000000081525060200191505060405180910390fd5b60006007805490509050600760e0604051908101604052808c8c8080601f016020809104026020016040519081016040528093929190818152602001838380828437600081840152601f19601f8201169050808301925050505050505081526020018a815260200189898080601f016020809104026020016040519081016040528093929190818152602001838380828437600081840152601f19601f8201169050808301925050505050505081526020018681526020018581526020018760018111156115fc57fe5b81526020014281525090806001815401808255809150509060018203906000526020600020906007020160009091929091909150600082015181600001908051906020019061164c929190612ea0565b50602082015181600101556040820151816002019080519060200190611673929190612ea0565b50606082015181600301556080820151816004015560a08201518160050160006101000a81548160ff021916908360018111156116ac57fe5b021790555060c08201518160060155505050816001600083815260200190815260200160002060006101000a81548173ffffffffffffffffffffffffffffffffffffffff021916908373ffffffffffffffffffffffffffffffffffffffff1602179055506117636001600360008573ffffffffffffffffffffffffffffffffffffffff1673ffffffffffffffffffffffffffffffffffffffff1681526020019081526020016000205461299f90919063ffffffff16565b600360008473ffffffffffffffffffffffffffffffffffffffff1673ffffffffffffffffffffffffffffffffffffffff16815260200190815260200160002081905550808273ffffffffffffffffffffffffffffffffffffffff16600560009054906101000a900473ffffffffffffffffffffffffffffffffffffffff1673ffffffffffffffffffffffffffffffffffffffff167fddf252ad1be2c89b69c2b068fc378daa952ba7f163c4a11628f55a4df523b3ef60405160405180910390a47f98f6e57aa4755baead866c21fe3f1a1bdee97be51e462ff15de2395c4fdc78d3816040518082815260200191505060405180910390a150505050505050505050565b61186e611f04565b15156118c5576040517f08c379a00000000000000000000000000000000000000000000000000000000081526004018080602001828103825260268152602001806130356026913960400191505060405180910390fd5b81816007858154811015156118d657fe5b906000526020600020906007020160000191906118f4929190612f20565b50505050565b611902611f04565b1515611959576040517f08c379a00000000000000000000000000000000000000000000000000000000081526004018080602001828103825260268152602001806130356026913960400191505060405180910390fd5b60078181548110151561196857fe5b9060005260206000209060070201600080820160006119879190612fa0565b600182016000905560028201600061199f9190612fa0565b600382016000905560048201600090556005820160006101000a81549060ff0219169055600682016000905550507f4aea85f6cb1f012def055dd570b2f19414e39ee70238b57777ad09eaf335dbcf816040518082815260200191505060405180910390a150565b6000806001600084815260200190815260200160002060009054906101000a900473ffffffffffffffffffffffffffffffffffffffff169050600073ffffffffffffffffffffffffffffffffffffffff168173ffffffffffffffffffffffffffffffffffffffff1614151515611ae5576040517f08c379a000000000000000000000000000000000000000000000000000000000815260040180806020018281038252600f8152602001807f496e76616c69642061646472657373000000000000000000000000000000000081525060200191505060405180910390fd5b80915050919050565b611af6611f04565b1515611b4d576040517f08c379a00000000000000000000000000000000000000000000000000000000081526004018080602001828103825260268152602001806130356026913960400191505060405180910390fd5b8060088190555050565b600781815481101515611b6657fe5b9060005260206000209060070201600091509050806000018054600181600116156101000203166002900480601f016020809104026020016040519081016040528092919081815260200182805460018160011615610100020316600290048015611c125780601f10611be757610100808354040283529160200191611c12565b820191906000526020600020905b815481529060010190602001808311611bf557829003601f168201915b505050505090806001015490806002018054600181600116156101000203166002900480601f016020809104026020016040519081016040528092919081815260200182805460018160011615610100020316600290048015611cb65780601f10611c8b57610100808354040283529160200191611cb6565b820191906000526020600020905b815481529060010190602001808311611c9957829003601f168201915b5050505050908060030154908060040154908060050160009054906101000a900460ff16908060060154905087565b60008073ffffffffffffffffffffffffffffffffffffffff168273ffffffffffffffffffffffffffffffffffffffff1614151515611d8b576040517f08c379a000000000000000000000000000000000000000000000000000000000815260040180806020018281038252600f8152602001807f496e76616c69642061646472657373000000000000000000000000000000000081525060200191505060405180910390fd5b600360008373ffffffffffffffffffffffffffffffffffffffff1673ffffffffffffffffffffffffffffffffffffffff168152602001908152602001600020549050919050565b611dda611f04565b1515611e31576040517f08c379a00000000000000000000000000000000000000000000000000000000081526004018080602001828103825260268152602001806130356026913960400191505060405180910390fd5b600560009054906101000a900473ffffffffffffffffffffffffffffffffffffffff1673ffffffffffffffffffffffffffffffffffffffff167ff8df31144d9c2f0f6b59d69b8b98abd5459d07f2742c4df920b25aae33c6482060405160405180910390a26000600560006101000a81548173ffffffffffffffffffffffffffffffffffffffff021916908373ffffffffffffffffffffffffffffffffffffffff160217905550565b6000600560009054906101000a900473ffffffffffffffffffffffffffffffffffffffff16905090565b6000600560009054906101000a900473ffffffffffffffffffffffffffffffffffffffff1673ffffffffffffffffffffffffffffffffffffffff163373ffffffffffffffffffffffffffffffffffffffff1614905090565b6060600a8054600181600116156101000203166002900480601f016020809104026020016040519081016040528092919081815260200182805460018160011615610100020316600290048015611ff45780601f10611fc957610100808354040283529160200191611ff4565b820191906000526020600020905b815481529060010190602001808311611fd757829003601f168201915b5050505050905090565b3373ffffffffffffffffffffffffffffffffffffffff168273ffffffffffffffffffffffffffffffffffffffff16141515156120a2576040517f08c379a000000000000000000000000000000000000000000000000000000000815260040180806020018281038252600f8152602001807f43616e6e6f74206265206f776e6572000000000000000000000000000000000081525060200191505060405180910390fd5b80600460003373ffffffffffffffffffffffffffffffffffffffff1673ffffffffffffffffffffffffffffffffffffffff16815260200190815260200160002060008473ffffffffffffffffffffffffffffffffffffffff1673ffffffffffffffffffffffffffffffffffffffff16815260200190815260200160002060006101000a81548160ff0219169083151502179055508173ffffffffffffffffffffffffffffffffffffffff163373ffffffffffffffffffffffffffffffffffffffff167f17307eab39ab6107e8899845ad3d59bd9653f200f220920489ca2b5937696c3183604051808215151515815260200191505060405180910390a35050565b6121ae8484846113aa565b6121ba848484846129c0565b151561222e576040517f08c379a00000000000000000000000000000000000000000000000000000000081526004018080602001828103825260178152602001807f45524337323120636865636b206e6f742070617373656400000000000000000081525060200191505060405180910390fd5b50505050565b606061223f826125e5565b15156122b3576040517f08c379a00000000000000000000000000000000000000000000000000000000081526004018080602001828103825260148152602001807f546f6b656e20646f6573206e6f7420657869737400000000000000000000000081525060200191505060405180910390fd5b600b60008381526020019081526020016000208054600181600116156101000203166002900480601f01602080910402602001604051908101604052809291908181526020018280546001816001161561010002031660029004801561235a5780601f1061232f5761010080835404028352916020019161235a565b820191906000526020600020905b81548152906001019060200180831161233d57829003601f168201915b50505050509050919050565b60085481565b6000600460008473ffffffffffffffffffffffffffffffffffffffff1673ffffffffffffffffffffffffffffffffffffffff16815260200190815260200160002060008373ffffffffffffffffffffffffffffffffffffffff1673ffffffffffffffffffffffffffffffffffffffff16815260200190815260200160002060009054906101000a900460ff16905092915050565b612408611f04565b151561245f576040517f08c379a00000000000000000000000000000000000000000000000000000000081526004018080602001828103825260268152602001806130356026913960400191505060405180910390fd5b61246881612be3565b50565b606060008060008060008061247f88611a07565b905060078881548110151561249057fe5b90600052602060002090600702016000016007898154811015156124b057fe5b90600052602060002090600702016001015460078a8154811015156124d157fe5b906000526020600020906007020160050160009054906101000a900460ff1660078b8154811015156124ff57fe5b90600052602060002090600702016003015460078c81548110151561252057fe5b90600052602060002090600702016004015485858054600181600116156101000203166002900480601f0160208091040260200160405190810160405280929190818152602001828054600181600116156101000203166002900480156125c85780601f1061259d576101008083540402835291602001916125c8565b820191906000526020600020905b8154815290600101906020018083116125ab57829003601f168201915b505050505095509650965096509650965096505091939550919395565b6000806001600084815260200190815260200160002060009054906101000a900473ffffffffffffffffffffffffffffffffffffffff169050600073ffffffffffffffffffffffffffffffffffffffff168173ffffffffffffffffffffffffffffffffffffffff161415915050919050565b60008061266383611a07565b90508073ffffffffffffffffffffffffffffffffffffffff168473ffffffffffffffffffffffffffffffffffffffff1614806126d257508373ffffffffffffffffffffffffffffffffffffffff166126ba8461102d565b73ffffffffffffffffffffffffffffffffffffffff16145b806126e357506126e2818561236c565b5b91505092915050565b8273ffffffffffffffffffffffffffffffffffffffff1661270c82611a07565b73ffffffffffffffffffffffffffffffffffffffff16141515612797576040517f08c379a00000000000000000000000000000000000000000000000000000000081526004018080602001828103825260158152602001807f4e6f742074686520636f7272656374206f776e6572000000000000000000000081525060200191505060405180910390fd5b600073ffffffffffffffffffffffffffffffffffffffff168273ffffffffffffffffffffffffffffffffffffffff161415151561283c576040517f08c379a000000000000000000000000000000000000000000000000000000000815260040180806020018281038252600f8152602001807f496e76616c69642061646472657373000000000000000000000000000000000081525060200191505060405180910390fd5b61284581612d2b565b6128986001600360008673ffffffffffffffffffffffffffffffffffffffff1673ffffffffffffffffffffffffffffffffffffffff16815260200190815260200160002054612deb90919063ffffffff16565b506128ec6001600360008573ffffffffffffffffffffffffffffffffffffffff1673ffffffffffffffffffffffffffffffffffffffff1681526020019081526020016000205461299f90919063ffffffff16565b50816001600083815260200190815260200160002060006101000a81548173ffffffffffffffffffffffffffffffffffffffff021916908373ffffffffffffffffffffffffffffffffffffffff160217905550808273ffffffffffffffffffffffffffffffffffffffff168473ffffffffffffffffffffffffffffffffffffffff167fddf252ad1be2c89b69c2b068fc378daa952ba7f163c4a11628f55a4df523b3ef60405160405180910390a4505050565b60008082840190508381101515156129b657600080fd5b8091505092915050565b60006129e18473ffffffffffffffffffffffffffffffffffffffff16612e0d565b15156129f05760019050612bdb565b60008473ffffffffffffffffffffffffffffffffffffffff1663150b7a02338887876040518563ffffffff167c0100000000000000000000000000000000000000000000000000000000028152600401808573ffffffffffffffffffffffffffffffffffffffff1673ffffffffffffffffffffffffffffffffffffffff1681526020018473ffffffffffffffffffffffffffffffffffffffff1673ffffffffffffffffffffffffffffffffffffffff16815260200183815260200180602001828103825283818151815260200191508051906020019080838360005b83811015612ae7578082015181840152602081019050612acc565b50505050905090810190601f168015612b145780820380516001836020036101000a031916815260200191505b5095505050505050602060405180830381600087803b158015612b3657600080fd5b505af1158015612b4a573d6000803e3d6000fd5b505050506040513d6020811015612b6057600080fd5b8101908080519060200190929190505050905063150b7a027c0100000000000000000000000000000000000000000000000000000000027bffffffffffffffffffffffffffffffffffffffffffffffffffffffff1916817bffffffffffffffffffffffffffffffffffffffffffffffffffffffff1916149150505b949350505050565b600073ffffffffffffffffffffffffffffffffffffffff168173ffffffffffffffffffffffffffffffffffffffff1614151515612c6b576040517f08c379a000000000000000000000000000000000000000000000000000000000815260040180806020018281038252602781526020018061300e6027913960400191505060405180910390fd5b8073ffffffffffffffffffffffffffffffffffffffff16600560009054906101000a900473ffffffffffffffffffffffffffffffffffffffff1673ffffffffffffffffffffffffffffffffffffffff167f8be0079c531659141344cd1fd0a4f28419497f9722a3daafe3b4186f6b6457e060405160405180910390a380600560006101000a81548173ffffffffffffffffffffffffffffffffffffffff021916908373ffffffffffffffffffffffffffffffffffffffff16021790555050565b600073ffffffffffffffffffffffffffffffffffffffff166002600083815260200190815260200160002060009054906101000a900473ffffffffffffffffffffffffffffffffffffffff1673ffffffffffffffffffffffffffffffffffffffff16141515612de85760006002600083815260200190815260200160002060006101000a81548173ffffffffffffffffffffffffffffffffffffffff021916908373ffffffffffffffffffffffffffffffffffffffff1602179055505b50565b6000828211151515612dfc57600080fd5b600082840390508091505092915050565b600080823b905060008111915050919050565b828054600181600116156101000203166002900490600052602060002090601f016020900481019282601f10612e6157805160ff1916838001178555612e8f565b82800160010185558215612e8f579182015b82811115612e8e578251825591602001919060010190612e73565b5b509050612e9c9190612fe8565b5090565b828054600181600116156101000203166002900490600052602060002090601f016020900481019282601f10612ee157805160ff1916838001178555612f0f565b82800160010185558215612f0f579182015b82811115612f0e578251825591602001919060010190612ef3565b5b509050612f1c9190612fe8565b5090565b828054600181600116156101000203166002900490600052602060002090601f016020900481019282601f10612f6157803560ff1916838001178555612f8f565b82800160010185558215612f8f579182015b82811115612f8e578235825591602001919060010190612f73565b5b509050612f9c9190612fe8565b5090565b50805460018160011615610100020316600290046000825580601f10612fc65750612fe5565b601f016020900490600052602060002090810190612fe49190612fe8565b5b50565b61300a91905b80821115613006576000816000905550600101612fee565b5090565b9056fe596f752063616e6e6f74207472616e7366657220746f20746865207a65726f20616464726573734f6e6c7920746865206f776e65722063616e20706572666f726d207468697320616374696f6ea165627a7a723058203b90ce9d73fd493a035fa655564679dcd767f0816490ef62ee9914074ef0249f0029",
  "source": "pragma solidity ^0.5.2;\n\nimport \"./ERC721.sol\";\nimport \"./IERC721Metadata.sol\";\nimport \"./ERC165.sol\";\nimport \"./Ownable.sol\";\nimport \"./SafeMath.sol\";\n\ncontract DogERC721Metadata is ERC165, ERC721, IERC721Metadata, Ownable {\n    using SafeMath for uint256;\n\n    enum Sex {\n        Male,\n        Female\n    }\n    \n    struct Dog {\n        string name;\n        uint256 dob;\n        string microchip;\n        uint256 dam;\n        uint256 sire;\n        Sex sex;\n        uint256 timestamp;\n    }\n    \n    mapping(address => bool) private _writers;\n\n    Dog[] public pack;\n    uint256 public fee;\n\n    string private _name;\n    string private _symbol;\n    mapping(uint256 => string) private _tokenURIs;\n\n    bytes4 private constant _INTERFACE_ID_ERC721_METADATA = 0x5b5e139f;\n    /*\n     * 0x5b5e139f ===\n     *     bytes4(keccak256('name()')) ^\n     *     bytes4(keccak256('symbol()')) ^\n     *     bytes4(keccak256('tokenURI(uint256)'))\n     */\n\n    //constructor (string memory name, string memory symbol) public {\n    constructor () public {\n        _name = \"BEAGLES\"; //name;\n        _symbol = \"DDA\"; //symbol;\n\n        // register the supported interfaces to conform to ERC721 via ERC165\n        _registerInterface(_INTERFACE_ID_ERC721_METADATA);\n    }\n\n    function name() external view returns (string memory) {\n        return _name;\n    }\n\n    function symbol() external view returns (string memory) {\n        return _symbol;\n    }\n\n    function tokenURI(uint256 tokenId) external view returns (string memory) {\n        require(_exists(tokenId), \"Token does not exist\");\n        return _tokenURIs[tokenId];\n    }\n\n    function totalSupply() public view returns(uint256) {\n        return pack.length;\n    }\n\n    function addPuppy(string calldata dogsName, uint256 dob, string calldata microchip, Sex sex, uint256 dam, uint256 sire, address owner) external payable onlyOwner() {\n        require(msg.value >= fee, \"Fee too small\");\n        uint id = pack.length;\n        pack.push(Dog(dogsName, dob, microchip, dam, sire, sex, now));\n\n        _tokenOwner[id] = owner;\n        _ownedTokensCount[owner] = _ownedTokensCount[owner].add(1);\n\n        emit Transfer(_owner, owner, id);\n        emit PuppyAdded(id);\n    }\n\n    function getPuppy(uint256 _tokenId) external view returns (string memory, uint256, Sex, uint256, uint256, address) {\n        address owner = ownerOf(_tokenId);\n        return (pack[_tokenId].name, pack[_tokenId].dob, pack[_tokenId].sex, pack[_tokenId].dam, pack[_tokenId].sire, owner);\n    }\n\n    function removePuppy(uint256 _tokenId) external onlyOwner() {\n        delete pack[_tokenId];\n\n        emit PuppyRemoved(_tokenId);\n    }\n\n    function updateTitle(uint256 _tokenId, string calldata dogsName) external onlyOwner() {\n        pack[_tokenId].name = dogsName;\n    }\n\n    function setFee(uint256 _fee) public onlyOwner() {\n        fee = _fee;\n    }\n\n    function setTokenURI(uint256 tokenId, string memory uri) public onlyOwner() {\n        require(_exists(tokenId), \"Token does not exist\");\n        _tokenURIs[tokenId] = uri;\n    }\n\n    event PuppyAdded(uint _tokenId);\n    event PuppyRemoved(uint _tokenId);\n}\n",
  "sourcePath": "/Users/lucascullen/GitHub/digitaldogs/puppies/contracts/DogERC721Metadata.sol",
  "compiler": {
    "name": "solc",
    "version": "0.5.2+commit.1df8f40c.Emscripten.clang"
  },
  "schemaVersion": "3.0.1",
  "updatedAt": "2019-02-05T04:53:54.521Z",
  "devdoc": {
    "methods": {
      "supportsInterface(bytes4)": {
        "details": "implement supportsInterface(bytes4) using a lookup table"
      }
    }
  },
  "userdoc": {
    "methods": {}
  }
}